{"contracts/BurntPunX.sol":{"BurntPunX":{"abi":[{"inputs":[{"internalType":"bytes32[]","name":"_data","type":"bytes32[]"},{"internalType":"bytes[]","name":"_values","type":"bytes[]"}],"stateMutability":"nonpayable","type":"constructor"},{"inputs":[{"internalType":"address","name":"account","type":"address"}],"name":"AddressInsufficientBalance","type":"error"},{"inputs":[{"internalType":"uint256","name":"_amount","type":"uint256"}],"name":"BPunxMintingLimitExceeded","type":"error"},{"inputs":[{"internalType":"uint256","name":"_amount","type":"uint256"}],"name":"BPunxMintingPriceNotMet","type":"error"},{"inputs":[],"name":"ERC725Y_DataKeysValuesEmptyArray","type":"error"},{"inputs":[],"name":"ERC725Y_DataKeysValuesLengthMismatch","type":"error"},{"inputs":[],"name":"ERC725Y_MsgValueDisallowed","type":"error"},{"inputs":[],"name":"FailedInnerCall","type":"error"},{"inputs":[{"internalType":"bytes","name":"storedData","type":"bytes"}],"name":"InvalidExtensionAddress","type":"error"},{"inputs":[{"internalType":"bytes","name":"data","type":"bytes"}],"name":"InvalidFunctionSelector","type":"error"},{"inputs":[],"name":"LSP4TokenNameNotEditable","type":"error"},{"inputs":[],"name":"LSP4TokenSymbolNotEditable","type":"error"},{"inputs":[],"name":"LSP4TokenTypeNotEditable","type":"error"},{"inputs":[{"internalType":"uint256","name":"callIndex","type":"uint256"}],"name":"LSP8BatchCallFailed","type":"error"},{"inputs":[],"name":"LSP8CannotSendToAddressZero","type":"error"},{"inputs":[],"name":"LSP8CannotSendToSelf","type":"error"},{"inputs":[],"name":"LSP8CannotUseAddressZeroAsOperator","type":"error"},{"inputs":[],"name":"LSP8InvalidTransferBatch","type":"error"},{"inputs":[{"internalType":"bytes32","name":"tokenId","type":"bytes32"}],"name":"LSP8NonExistentTokenId","type":"error"},{"inputs":[{"internalType":"address","name":"operator","type":"address"},{"internalType":"bytes32","name":"tokenId","type":"bytes32"}],"name":"LSP8NonExistingOperator","type":"error"},{"inputs":[{"internalType":"bytes32","name":"tokenId","type":"bytes32"},{"internalType":"address","name":"caller","type":"address"}],"name":"LSP8NotTokenOperator","type":"error"},{"inputs":[{"internalType":"address","name":"tokenOwner","type":"address"},{"internalType":"bytes32","name":"tokenId","type":"bytes32"},{"internalType":"address","name":"caller","type":"address"}],"name":"LSP8NotTokenOwner","type":"error"},{"inputs":[{"internalType":"address","name":"tokenReceiver","type":"address"}],"name":"LSP8NotifyTokenReceiverContractMissingLSP1Interface","type":"error"},{"inputs":[{"internalType":"address","name":"tokenReceiver","type":"address"}],"name":"LSP8NotifyTokenReceiverIsEOA","type":"error"},{"inputs":[{"internalType":"address","name":"operator","type":"address"},{"internalType":"bytes32","name":"tokenId","type":"bytes32"}],"name":"LSP8OperatorAlreadyAuthorized","type":"error"},{"inputs":[],"name":"LSP8TokenContractCannotHoldValue","type":"error"},{"inputs":[{"internalType":"bytes32","name":"tokenId","type":"bytes32"}],"name":"LSP8TokenIdAlreadyMinted","type":"error"},{"inputs":[],"name":"LSP8TokenIdFormatNotEditable","type":"error"},{"inputs":[],"name":"LSP8TokenIdsDataEmptyArray","type":"error"},{"inputs":[],"name":"LSP8TokenIdsDataLengthMismatch","type":"error"},{"inputs":[],"name":"LSP8TokenOwnerCannotBeOperator","type":"error"},{"inputs":[{"internalType":"bytes4","name":"functionSelector","type":"bytes4"}],"name":"NoExtensionFoundForFunctionSelector","type":"error"},{"inputs":[{"internalType":"address","name":"callerAddress","type":"address"}],"name":"OwnableCallerNotTheOwner","type":"error"},{"inputs":[],"name":"OwnableCannotSetZeroAddressAsOwner","type":"error"},{"inputs":[],"name":"ReentrancyGuardReentrantCall","type":"error"},{"anonymous":false,"inputs":[{"indexed":true,"internalType":"bytes32","name":"dataKey","type":"bytes32"},{"indexed":false,"internalType":"bytes","name":"dataValue","type":"bytes"}],"name":"DataChanged","type":"event"},{"anonymous":false,"inputs":[{"indexed":true,"internalType":"address","name":"operator","type":"address"},{"indexed":true,"internalType":"address","name":"tokenOwner","type":"address"},{"indexed":true,"internalType":"bytes32","name":"tokenId","type":"bytes32"},{"indexed":false,"internalType":"bytes","name":"operatorNotificationData","type":"bytes"}],"name":"OperatorAuthorizationChanged","type":"event"},{"anonymous":false,"inputs":[{"indexed":true,"internalType":"address","name":"operator","type":"address"},{"indexed":true,"internalType":"address","name":"tokenOwner","type":"address"},{"indexed":true,"internalType":"bytes32","name":"tokenId","type":"bytes32"},{"indexed":false,"internalType":"bool","name":"notified","type":"bool"},{"indexed":false,"internalType":"bytes","name":"operatorNotificationData","type":"bytes"}],"name":"OperatorRevoked","type":"event"},{"anonymous":false,"inputs":[{"indexed":true,"internalType":"address","name":"previousOwner","type":"address"},{"indexed":true,"internalType":"address","name":"newOwner","type":"address"}],"name":"OwnershipTransferred","type":"event"},{"anonymous":false,"inputs":[{"indexed":true,"internalType":"bytes32","name":"tokenId","type":"bytes32"},{"indexed":true,"internalType":"bytes32","name":"dataKey","type":"bytes32"},{"indexed":false,"internalType":"bytes","name":"dataValue","type":"bytes"}],"name":"TokenIdDataChanged","type":"event"},{"anonymous":false,"inputs":[{"indexed":false,"internalType":"address","name":"operator","type":"address"},{"indexed":true,"internalType":"address","name":"from","type":"address"},{"indexed":true,"internalType":"address","name":"to","type":"address"},{"indexed":true,"internalType":"bytes32","name":"tokenId","type":"bytes32"},{"indexed":false,"internalType":"bool","name":"force","type":"bool"},{"indexed":false,"internalType":"bytes","name":"data","type":"bytes"}],"name":"Transfer","type":"event"},{"stateMutability":"payable","type":"fallback"},{"inputs":[],"name":"CHILLPRICE","outputs":[{"internalType":"uint256","name":"","type":"uint256"}],"stateMutability":"view","type":"function"},{"inputs":[],"name":"MAX_MINTABLE","outputs":[{"internalType":"uint256","name":"","type":"uint256"}],"stateMutability":"view","type":"function"},{"inputs":[],"name":"MAX_SUPPLY","outputs":[{"internalType":"uint256","name":"","type":"uint256"}],"stateMutability":"view","type":"function"},{"inputs":[],"name":"PRICE","outputs":[{"internalType":"uint256","name":"","type":"uint256"}],"stateMutability":"view","type":"function"},{"inputs":[],"name":"TEAM_RESERVE","outputs":[{"internalType":"uint256","name":"","type":"uint256"}],"stateMutability":"view","type":"function"},{"inputs":[{"internalType":"address","name":"operator","type":"address"},{"internalType":"bytes32","name":"tokenId","type":"bytes32"},{"internalType":"bytes","name":"operatorNotificationData","type":"bytes"}],"name":"authorizeOperator","outputs":[],"stateMutability":"nonpayable","type":"function"},{"inputs":[{"internalType":"address","name":"tokenOwner","type":"address"}],"name":"balanceOf","outputs":[{"internalType":"uint256","name":"","type":"uint256"}],"stateMutability":"view","type":"function"},{"inputs":[{"internalType":"bytes[]","name":"data","type":"bytes[]"}],"name":"batchCalls","outputs":[{"internalType":"bytes[]","name":"results","type":"bytes[]"}],"stateMutability":"nonpayable","type":"function"},{"inputs":[{"internalType":"bytes32[]","name":"_tokenIds","type":"bytes32[]"},{"internalType":"bytes[]","name":"_datas","type":"bytes[]"}],"name":"burn","outputs":[],"stateMutability":"nonpayable","type":"function"},{"inputs":[{"internalType":"uint256","name":"_amount","type":"uint256"}],"name":"chillMint","outputs":[],"stateMutability":"payable","type":"function"},{"inputs":[{"internalType":"bytes32","name":"dataKey","type":"bytes32"}],"name":"getData","outputs":[{"internalType":"bytes","name":"dataValue","type":"bytes"}],"stateMutability":"view","type":"function"},{"inputs":[{"internalType":"bytes32[]","name":"dataKeys","type":"bytes32[]"}],"name":"getDataBatch","outputs":[{"internalType":"bytes[]","name":"dataValues","type":"bytes[]"}],"stateMutability":"view","type":"function"},{"inputs":[{"internalType":"bytes32[]","name":"tokenIds","type":"bytes32[]"},{"internalType":"bytes32[]","name":"dataKeys","type":"bytes32[]"}],"name":"getDataBatchForTokenIds","outputs":[{"internalType":"bytes[]","name":"dataValues","type":"bytes[]"}],"stateMutability":"view","type":"function"},{"inputs":[{"internalType":"bytes32","name":"tokenId","type":"bytes32"},{"internalType":"bytes32","name":"dataKey","type":"bytes32"}],"name":"getDataForTokenId","outputs":[{"internalType":"bytes","name":"dataValue","type":"bytes"}],"stateMutability":"view","type":"function"},{"inputs":[{"internalType":"bytes32","name":"tokenId","type":"bytes32"}],"name":"getOperatorsOf","outputs":[{"internalType":"address[]","name":"","type":"address[]"}],"stateMutability":"view","type":"function"},{"inputs":[{"internalType":"address","name":"operator","type":"address"},{"internalType":"bytes32","name":"tokenId","type":"bytes32"}],"name":"isOperatorFor","outputs":[{"internalType":"bool","name":"","type":"bool"}],"stateMutability":"view","type":"function"},{"inputs":[{"internalType":"uint256","name":"_amount","type":"uint256"}],"name":"mint","outputs":[],"stateMutability":"payable","type":"function"},{"inputs":[],"name":"mintOpen","outputs":[{"internalType":"bool","name":"","type":"bool"}],"stateMutability":"view","type":"function"},{"inputs":[{"internalType":"address","name":"_receiver","type":"address"}],"name":"mintTeamsAllocation","outputs":[],"stateMutability":"nonpayable","type":"function"},{"inputs":[],"name":"owner","outputs":[{"internalType":"address","name":"","type":"address"}],"stateMutability":"view","type":"function"},{"inputs":[],"name":"renounceOwnership","outputs":[],"stateMutability":"nonpayable","type":"function"},{"inputs":[{"internalType":"address","name":"operator","type":"address"},{"internalType":"bytes32","name":"tokenId","type":"bytes32"},{"internalType":"bool","name":"notify","type":"bool"},{"internalType":"bytes","name":"operatorNotificationData","type":"bytes"}],"name":"revokeOperator","outputs":[],"stateMutability":"nonpayable","type":"function"},{"inputs":[{"internalType":"string","name":"_baseURI","type":"string"}],"name":"setBaseURI","outputs":[],"stateMutability":"nonpayable","type":"function"},{"inputs":[{"internalType":"bytes32","name":"dataKey","type":"bytes32"},{"internalType":"bytes","name":"dataValue","type":"bytes"}],"name":"setData","outputs":[],"stateMutability":"payable","type":"function"},{"inputs":[{"internalType":"bytes32[]","name":"dataKeys","type":"bytes32[]"},{"internalType":"bytes[]","name":"dataValues","type":"bytes[]"}],"name":"setDataBatch","outputs":[],"stateMutability":"payable","type":"function"},{"inputs":[{"internalType":"bytes32[]","name":"tokenIds","type":"bytes32[]"},{"internalType":"bytes32[]","name":"dataKeys","type":"bytes32[]"},{"internalType":"bytes[]","name":"dataValues","type":"bytes[]"}],"name":"setDataBatchForTokenIds","outputs":[],"stateMutability":"nonpayable","type":"function"},{"inputs":[{"internalType":"bytes32","name":"tokenId","type":"bytes32"},{"internalType":"bytes32","name":"dataKey","type":"bytes32"},{"internalType":"bytes","name":"dataValue","type":"bytes"}],"name":"setDataForTokenId","outputs":[],"stateMutability":"nonpayable","type":"function"},{"inputs":[{"internalType":"bool","name":"_mintOpen","type":"bool"}],"name":"setMintStatus","outputs":[],"stateMutability":"nonpayable","type":"function"},{"inputs":[{"internalType":"bytes4","name":"interfaceId","type":"bytes4"}],"name":"supportsInterface","outputs":[{"internalType":"bool","name":"","type":"bool"}],"stateMutability":"view","type":"function"},{"inputs":[{"internalType":"uint256","name":"index","type":"uint256"}],"name":"tokenAt","outputs":[{"internalType":"bytes32","name":"","type":"bytes32"}],"stateMutability":"view","type":"function"},{"inputs":[{"internalType":"address","name":"tokenOwner","type":"address"}],"name":"tokenIdsOf","outputs":[{"internalType":"bytes32[]","name":"","type":"bytes32[]"}],"stateMutability":"view","type":"function"},{"inputs":[{"internalType":"bytes32","name":"tokenId","type":"bytes32"}],"name":"tokenOwnerOf","outputs":[{"internalType":"address","name":"","type":"address"}],"stateMutability":"view","type":"function"},{"inputs":[],"name":"totalSupply","outputs":[{"internalType":"uint256","name":"","type":"uint256"}],"stateMutability":"view","type":"function"},{"inputs":[{"internalType":"address","name":"from","type":"address"},{"internalType":"address","name":"to","type":"address"},{"internalType":"bytes32","name":"tokenId","type":"bytes32"},{"internalType":"bool","name":"force","type":"bool"},{"internalType":"bytes","name":"data","type":"bytes"}],"name":"transfer","outputs":[],"stateMutability":"nonpayable","type":"function"},{"inputs":[{"internalType":"address[]","name":"from","type":"address[]"},{"internalType":"address[]","name":"to","type":"address[]"},{"internalType":"bytes32[]","name":"tokenId","type":"bytes32[]"},{"internalType":"bool[]","name":"force","type":"bool[]"},{"internalType":"bytes[]","name":"data","type":"bytes[]"}],"name":"transferBatch","outputs":[],"stateMutability":"nonpayable","type":"function"},{"inputs":[{"internalType":"address","name":"newOwner","type":"address"}],"name":"transferOwnership","outputs":[],"stateMutability":"nonpayable","type":"function"},{"inputs":[],"name":"withdraw","outputs":[],"stateMutability":"nonpayable","type":"function"},{"stateMutability":"payable","type":"receive"}],"evm":{"bytecode":{"linkReferences":{},"object":"6080604052600a805460ff191690553480156200001b57600080fd5b5060405162003e1a38038062003e1a8339810160408190526200003e91620006bd565b604080518082018252600a815269084eae4dce840a0eadcb60b31b60208083019190915282518084019093526005835264084a0aa9cb60db1b90830152903360016000848484848180620000a5576040516306b620db60e21b815260040160405180910390fd5b620000b0816200022d565b506040805180820190915260048152632936598960e21b6020820152620000f9907feafec4d89fa9619884b60000a4d96624a38f7ac2d8d9a604ecf07c12c77e480c906200029b565b620001257fdeba1e292f8ba88238e10ab3c7f88bd4be4fac56cad5194b6ecceaf653468af1856200029b565b620001517f2f0a68ab07768e01943a599e73362a0e17a63a72e94dd2e384d2c1d4db932756846200029b565b60408051602081018390526200019a917fe0261fa95db2eb3b5439bd033cda66d56b96f92f243a8228fd87550ed7bdfdb3910160408051601f198184030181529190526200029b565b50506040805160208101859052620001e793507ff675e9361af1c1664c1868cfa3eb97672d6b1a513aa5b81dec34c9ee330e818d92500160408051601f19818403018152919052620002f4565b505060016009555050600a8054610100600160a81b031916745b8b0e44d4719f8a328470dccd3746bfc73d6b14001790555062000225828262000304565b50506200092b565b6000546001600160a01b038281169116146200029857600080546040516001600160a01b03808516939216917f8be0079c531659141344cd1fd0a4f28419497f9722a3daafe3b4186f6b6457e091a3600080546001600160a01b0319166001600160a01b0383161790555b50565b6000828152600160205260409020620002b5828262000814565b50817fece574603820d07bc9b91f2a932baadf4628aabcb8afba49776529c14a6104b282604051620002e89190620008e0565b60405180910390a25050565b620003008282620003d9565b5050565b6200030e6200049c565b34156200032e5760405163f36ba73760e01b815260040160405180910390fd5b80518251146200035157604051633bcc897960e01b815260040160405180910390fd5b815160000362000374576040516397da5f9560e01b815260040160405180910390fd5b60005b8251811015620003d457620003cb8382815181106200039a576200039a62000915565b6020026020010151838381518110620003b757620003b762000915565b6020026020010151620004e060201b60201c565b60010162000377565b505050565b7f2145e1d6d074577dc71ef54c3807742b41b053a9352ae6b491331509acb9750f82016200041a576040516385c169bd60e01b815260040160405180910390fd5b7fd0f59754f88971fe6bc5a6618cc9d5f1e859c58d16b22d1c7b2d3e2b246cd8aa82016200045b57604051630eceab6760e31b815260040160405180910390fd5b7f1fd9e056a24d14c4abc642fcc325992a946906d0dbc57dd70278aaf12842024d82016200029b57604051634ef6d7fb60e01b815260040160405180910390fd5b33620004b06000546001600160a01b031690565b6001600160a01b031614620004de5760405163bf1169c560e01b815233600482015260240160405180910390fd5b565b7f098a16c9e50e3e99b3e797305c146898d294e5aec55a47e213cb3611ccf17e7382016200052157604051631b32400560e11b815260040160405180910390fd5b620003008282620002f4565b634e487b7160e01b600052604160045260246000fd5b604051601f8201601f191681016001600160401b03811182821017156200056e576200056e6200052d565b604052919050565b60006001600160401b038211156200059257620005926200052d565b5060051b60200190565b60005b83811015620005b95781810151838201526020016200059f565b50506000910152565b6000601f83601f840112620005d657600080fd5b82516020620005ef620005e98362000576565b62000543565b82815260059290921b850181019181810190878411156200060f57600080fd5b8287015b84811015620006b15780516001600160401b0380821115620006355760008081fd5b818a0191508a603f8301126200064b5760008081fd5b858201516040828211156200066457620006646200052d565b62000677828b01601f1916890162000543565b92508183528c818386010111156200068f5760008081fd5b620006a0828985018387016200059c565b505084525091830191830162000613565b50979650505050505050565b60008060408385031215620006d157600080fd5b82516001600160401b0380821115620006e957600080fd5b818501915085601f830112620006fe57600080fd5b8151602062000711620005e98362000576565b82815260059290921b840181019181810190898411156200073157600080fd5b948201945b83861015620007515785518252948201949082019062000736565b918801519196509093505050808211156200076b57600080fd5b506200077a85828601620005c2565b9150509250929050565b600181811c908216806200079957607f821691505b602082108103620007ba57634e487b7160e01b600052602260045260246000fd5b50919050565b601f821115620003d4576000816000526020600020601f850160051c81016020861015620007eb5750805b601f850160051c820191505b818110156200080c57828155600101620007f7565b505050505050565b81516001600160401b038111156200083057620008306200052d565b620008488162000841845462000784565b84620007c0565b602080601f831160018114620008805760008415620008675750858301515b600019600386901b1c1916600185901b1785556200080c565b600085815260208120601f198616915b82811015620008b15788860151825594840194600190910190840162000890565b5085821015620008d05787850151600019600388901b60f8161c191681555b5050505050600190811b01905550565b6020815260008251806020840152620009018160408501602087016200059c565b601f01601f19169190910160400192915050565b634e487b7160e01b600052603260045260246000fd5b6134df806200093b6000396000f3fe6080604052600436106101ae5760003560e01c806301ffc9a71461024a57806316e023b31461027f57806318160ddd146102ac5780631d26fce6146102cb5780631f85e3ca146102f8578063217b22701461031a57806324bbd049146103475780632a3654a41461036157806332cb6b0c146103815780633ccfd60b146103975780633f879faf146103ac57806349a6078d146103c1578063511b6952146103ee57806354f6127f1461040e57806355f804b31461042e5780636963d4381461044e57806370a082311461046e578063715018a61461048e5780637e87632c146104a35780637f23690c146104c357806386a10ddd146104d65780638d859f3e146104f65780638da5cb5b1461051257806392a91a3a1461052757806395805794146105545780639790242114610567578063a0712d681461057a578063a3b261f21461058d578063be9f0e6f146105ba578063c60be179146105da578063d0530ab0146105fa578063d6c1407c14610610578063db8c966314610630578063dda3c4b814610650578063dedff9c614610670578063e5408eae14610690578063f2fde38b146106a557610209565b3661020957346000036101f05760405163e5099ee360e01b81526004016101e79060208082526004908201526000604082015260600190565b60405180910390fd5b6040516330fa4a2160e11b815260040160405180910390fd5b6000366060600482101561023457828260405163e5099ee360e01b81526004016101e79291906125d3565b61023e83836106c5565b80519350602001915050f35b34801561025657600080fd5b5061026a610265366004612602565b6107bb565b60405190151581526020015b60405180910390f35b34801561028b57600080fd5b5061029f61029a36600461262c565b6107ef565b604051610276919061269e565b3480156102b857600080fd5b506002545b604051908152602001610276565b3480156102d757600080fd5b506102eb6102e6366004612789565b610802565b60405161027691906127ec565b34801561030457600080fd5b50610318610313366004612865565b6108c7565b005b34801561032657600080fd5b5061033a610335366004612880565b6108e2565b6040516102769190612899565b34801561035357600080fd5b50600a5461026a9060ff1681565b34801561036d57600080fd5b5061026a61037c3660046128c4565b61091b565b34801561038d57600080fd5b506102bd611af481565b3480156103a357600080fd5b50610318610930565b3480156103b857600080fd5b506102bd606481565b3480156103cd57600080fd5b506103e16103dc366004612880565b610944565b60405161027691906128ee565b3480156103fa57600080fd5b506103186104093660046129bb565b610966565b34801561041a57600080fd5b5061029f610429366004612880565b6109a5565b34801561043a57600080fd5b50610318610449366004612a33565b6109b0565b34801561045a57600080fd5b506102eb610469366004612a7b565b610a09565b34801561047a57600080fd5b506102bd610489366004612aef565b610b38565b34801561049a57600080fd5b50610318610b59565b3480156104af57600080fd5b506103186104be366004612c55565b610b6b565b6103186104d1366004612d19565b610c5a565b3480156104e257600080fd5b506103186104f1366004612d55565b610c8f565b34801561050257600080fd5b506102bd673a4965bf58a4000081565b34801561051e57600080fd5b5061033a610de9565b34801561053357600080fd5b506102bd610542366004612880565b60009081526007602052604090205490565b610318610562366004612880565b610df8565b610318610575366004612dab565b610f76565b610318610588366004612880565b611036565b34801561059957600080fd5b506105ad6105a8366004612aef565b611136565b6040516102769190612e04565b3480156105c657600080fd5b506103186105d5366004612e3c565b61115a565b3480156105e657600080fd5b506103186105f5366004612dab565b611225565b34801561060657600080fd5b506102bd611b3981565b34801561061c57600080fd5b5061031861062b366004612eb9565b6112d2565b34801561063c57600080fd5b5061031861064b366004612ef2565b6112e5565b34801561065c57600080fd5b5061031861066b366004612aef565b6113a7565b34801561067c57600080fd5b506102eb61068b366004612f59565b61144c565b34801561069c57600080fd5b506102bd60a981565b3480156106b157600080fd5b506103186106c0366004612aef565b6114f6565b606060006106de6000356001600160e01b03191661152e565b5090506001600160a01b038116610716576000356001600160e01b03191660405163bb370b2b60e01b81526004016101e79190612f8d565b600080826001600160a01b0316348787333460405160200161073b9493929190612fa2565b60408051601f198184030181529082905261075591612fcd565b60006040518083038185875af1925050503d8060008114610792576040519150601f19603f3d011682016040523d82523d6000602084013e610797565b606091505b509150915081156107ac5792506107b5915050565b80518060208301fd5b92915050565b60006001600160e01b03198216631d138b8360e11b14806107e057506107e0826115ac565b806107b557506107b5826115d1565b60606107fb8383611608565b9392505050565b606082516001600160401b0381111561081d5761081d6126b1565b60405190808252806020026020018201604052801561085057816020015b606081526020019060019003908161083b5790505b50905060005b83518110156108c05761089b84828151811061087457610874612fe9565b602002602001015184838151811061088e5761088e612fe9565b6020026020010151611608565b8282815181106108ad576108ad612fe9565b6020908102919091010152600101610856565b5092915050565b6108cf6116df565b600a805460ff1916911515919091179055565b6000818152600360205260408120546001600160a01b0316806107b557604051635747cd1b60e11b8152600481018490526024016101e7565b600061092682611711565b6107fb838361173a565b6109386116df565b6109423347611777565b565b606061094f82611711565b60008281526005602052604090206107b59061180e565b610970338461173a565b610991578233604051631294d2a960e01b81526004016101e7929190612fff565b61099e858585858561181b565b5050505050565b60606107b5826119bd565b6109b86116df565b604051610a06907f1a7628600c3bac7101f53697f48df381ddc36b9015e7d7c9c5633d1252aa2843906109f2906000908590602001613016565b604051602081830303815290604052611a5f565b50565b6060816001600160401b03811115610a2357610a236126b1565b604051908082528060200260200182016040528015610a5657816020015b6060815260200190600190039081610a415790505b50905060005b828110156108c05760008030868685818110610a7a57610a7a612fe9565b9050602002810190610a8c9190613047565b604051610a9a929190613094565b600060405180830381855af49150503d8060008114610ad5576040519150601f19603f3d011682016040523d82523d6000602084013e610ada565b606091505b509150915081610b1057805115610af45780518082602001fd5b60405163234eb81960e01b8152600481018490526024016101e7565b80848481518110610b2357610b23612fe9565b60209081029190910101525050600101610a5c565b6001600160a01b03811660009081526004602052604081206107b590611aa9565b610b616116df565b6109426000611ab3565b8451845181141580610b7e575083518114155b80610b8a575082518114155b80610b96575081518114155b15610bb4576040516393a8311960e01b815260040160405180910390fd5b60005b81811015610c5157610c49878281518110610bd457610bd4612fe9565b6020026020010151878381518110610bee57610bee612fe9565b6020026020010151878481518110610c0857610c08612fe9565b6020026020010151878581518110610c2257610c22612fe9565b6020026020010151878681518110610c3c57610c3c612fe9565b6020026020010151610966565b600101610bb7565b50505050505050565b610c626116df565b3415610c815760405163f36ba73760e01b815260040160405180910390fd5b610c8b8282611a5f565b5050565b6000610c9a836108e2565b90506001600160a01b0381163314610ccb57808333604051632d938f5160e11b81526004016101e7939291906130a4565b6001600160a01b038416610cf257604051639577b8b360e01b815260040160405180910390fd5b836001600160a01b0316816001600160a01b031603610d24576040516344fed6b160e11b815260040160405180910390fd5b6000838152600560205260408120610d3c9086611b2c565b905080610d605784846040516314ec4d6d60e31b81526004016101e79291906130c7565b83826001600160a01b0316866001600160a01b03167f1b1b58aa2ec0cec2228b2d37124556d41f5a1f7b12f089171f896cc23667121586604051610da4919061269e565b60405180910390a460003385600186604051602001610dc694939291906130e0565b6040516020818303038152906040529050610de18682611b41565b505050505050565b6000546001600160a01b031690565b610e00611b6c565b600a5460ff16610e225760405162461bcd60e51b81526004016101e790613119565b611af481600b54610e33919061315f565b1115610e5457604051628edf1960e71b8152600481018290526024016101e7565b6064811115610e7857604051628edf1960e71b8152600481018290526024016101e7565b600a5461010090046001600160a01b031663760d9bba33610e97610de9565b610ea385611b39613172565b6040516001600160e01b031960e086901b1681526001600160a01b039384166004820152929091166024830152604482015260006064820181905260a0608483015260a482015260c401600060405180830381600087803b158015610f0757600080fd5b505af1158015610f1b573d6000803e3d6000fd5b5050505060005b81811015610f6b576000600b60008154610f3b90613189565b9190508190559050610f62338260001b600060405180602001604052806000815250611b96565b50600101610f22565b50610a066001600955565b610f7e6116df565b3415610f9d5760405163f36ba73760e01b815260040160405180910390fd5b8051825114610fbf57604051633bcc897960e01b815260040160405180910390fd5b8151600003610fe1576040516397da5f9560e01b815260040160405180910390fd5b60005b82518110156110315761102983828151811061100257611002612fe9565b602002602001015183838151811061101c5761101c612fe9565b6020026020010151611a5f565b600101610fe4565b505050565b61103e611b6c565b600a5460ff166110605760405162461bcd60e51b81526004016101e790613119565b611af481600b54611071919061315f565b111561109257604051628edf1960e71b8152600481018290526024016101e7565b60648111156110b657604051628edf1960e71b8152600481018290526024016101e7565b6110c881673a4965bf58a40000613172565b34146110ea57604051635e90f77360e11b8152600481018290526024016101e7565b60005b81811015610f6b576000600b6000815461110690613189565b919050819055905061112d338260001b600060405180602001604052806000815250611b96565b506001016110ed565b6001600160a01b03811660009081526004602052604090206060906107b59061180e565b6111626116df565b8151835114158061117557508051825114155b15611193576040516317d38eff60e11b815260040160405180910390fd5b82516000036111b5576040516380c9830560e01b815260040160405180910390fd5b60005b835181101561121f576112178482815181106111d6576111d6612fe9565b60200260200101518483815181106111f0576111f0612fe9565b602002602001015184848151811061120a5761120a612fe9565b6020026020010151611cb9565b6001016111b8565b50505050565b60005b8251811015611031576112543384838151811061124757611247612fe9565b602002602001015161173a565b61128e5782818151811061126a5761126a612fe9565b602002602001015133604051631294d2a960e01b81526004016101e7929190612fff565b6112ca8382815181106112a3576112a3612fe9565b60200260200101518383815181106112bd576112bd612fe9565b6020026020010151611d49565b600101611228565b6112da6116df565b611031838383611cb9565b60006112f0846108e2565b90506001600160a01b038116331461132157808433604051632d938f5160e11b81526004016101e7939291906130a4565b6001600160a01b03851661134857604051639577b8b360e01b815260040160405180910390fd5b846001600160a01b0316816001600160a01b03160361137a576040516344fed6b160e11b815260040160405180910390fd5b6113878582868686611e38565b821561099e5760003385600085604051602001610dc694939291906130e0565b6113af6116df565b60a9600b54106113ff5760405162461bcd60e51b815260206004820152601b60248201527a1519585b481c995cd95c9d9948185b1c9958591e481b5a5b9d1959602a1b60448201526064016101e7565b60005b60a9811015610c8b576000600b6000815461141c90613189565b9190508190559050611443838260001b600060405180602001604052806000815250611b96565b50600101611402565b606081516001600160401b03811115611467576114676126b1565b60405190808252806020026020018201604052801561149a57816020015b60608152602001906001900390816114855790505b50905060005b82518110156114f0576114cb8382815181106114be576114be612fe9565b60200260200101516119bd565b8282815181106114dd576114dd612fe9565b60209081029190910101526001016114a0565b50919050565b6114fe6116df565b6001600160a01b038116611525576040516306b620db60e21b815260040160405180910390fd5b610a0681611ab3565b60008080611553696773c5a04a6d4300884b60b11b6001600160e01b03198616611eca565b90506000611560826119bd565b905080516014141580156115745750805115155b1561159457806040516342bfe79f60e01b81526004016101e7919061269e565b61159d816131a2565b60601c95600195509350505050565b60006001600160e01b0319821663a918fa6b60e01b14806107b557506107b582611f1e565b6000806115e46301ffc9a760e01b61152e565b5090506001600160a01b0381166115fe5750600092915050565b6107fb8184611f53565b606060016000848460405160200161162a929190918252602082015260400190565b6040516020818303038152906040528051906020012081526020019081526020016000208054611659906131d9565b80601f0160208091040260200160405190810160405280929190818152602001828054611685906131d9565b80156116d25780601f106116a7576101008083540402835291602001916116d2565b820191906000526020600020905b8154815290600101906020018083116116b557829003601f168201915b5050505050905092915050565b336116e8610de9565b6001600160a01b031614610942573360405163bf1169c560e01b81526004016101e79190612899565b61171a81611fd6565b610a0657604051635747cd1b60e11b8152600481018290526024016101e7565b6000611745826108e2565b6001600160a01b0316836001600160a01b031614806107fb575060008281526005602052604090206107fb9084611ff3565b8047101561179a573060405163cd78605960e01b81526004016101e79190612899565b6000826001600160a01b03168260405160006040518083038185875af1925050503d80600081146117e7576040519150601f19603f3d011682016040523d82523d6000602084013e6117ec565b606091505b505090508061103157604051630a12f52160e11b815260040160405180910390fd5b606060006107fb83612008565b836001600160a01b0316856001600160a01b03160361184d57604051635d67d6c160e01b815260040160405180910390fd5b6000611858846108e2565b9050856001600160a01b0316816001600160a01b03161461189257808487604051632d938f5160e11b81526004016101e7939291906130a4565b6001600160a01b0385166118b9576040516324ecef4d60e01b815260040160405180910390fd5b6118c586868685612063565b6118ce846108e2565b90506118da868561206f565b6001600160a01b03861660009081526004602052604090206118fc90856120c7565b506001600160a01b038516600090815260046020526040902061191f90856120d3565b506000848152600360205260409081902080546001600160a01b0319166001600160a01b03888116918217909255915186929189169060008051602061348a833981519152906119749033908990899061320d565b60405180910390a460003387878786604051602001611997959493929190613242565b60405160208183030381529060405290506119b287826120df565b610c5186858361210a565b60008181526001602052604090208054606091906119da906131d9565b80601f0160208091040260200160405190810160405280929190818152602001828054611a06906131d9565b8015611a535780601f10611a2857610100808354040283529160200191611a53565b820191906000526020600020905b815481529060010190602001808311611a3657829003601f168201915b50505050509050919050565b7f098a16c9e50e3e99b3e797305c146898d294e5aec55a47e213cb3611ccf17e738201611a9f57604051631b32400560e11b815260040160405180910390fd5b610c8b8282612200565b60006107b5825490565b611abb610de9565b6001600160a01b0316816001600160a01b031614610a0657600080546040516001600160a01b03808516939216917f8be0079c531659141344cd1fd0a4f28419497f9722a3daafe3b4186f6b6457e091a3600080546001600160a01b0383166001600160a01b031990911617905550565b60006107fb836001600160a01b03841661220a565b610c8b827f8a1c15a8799f71b547e08e2bcb2e85257e81b0a07eee2ce6712549eef1f0097083612254565b600260095403611b8f57604051633ee5aeb560e01b815260040160405180910390fd5b6002600955565b6001600160a01b038416611bbd576040516324ecef4d60e01b815260040160405180910390fd5b611bca6000858584612063565b611bd383611fd6565b15611bf4576040516334c7b51160e01b8152600481018490526024016101e7565b600260008154611c0390613189565b909155506001600160a01b0384166000908152600460205260409020611c2990846120d3565b5060008381526003602052604080822080546001600160a01b0319166001600160a01b038816908117909155905185929060008051602061348a83398151915290611c799033908890889061320d565b60405180910390a46000336000868685604051602001611c9d959493929190613242565b604051602081830303815290604052905061099e85848361210a565b80600160008585604051602001611cda929190918252602082015260400190565b6040516020818303038152906040528051906020012081526020019081526020016000209081611d0a91906132c5565b5081837fa6e4251f855f750545fe414f120db91c76b88def14d120969e5bb2d3f05debbb83604051611d3c919061269e565b60405180910390a3505050565b6000611d54836108e2565b9050611d638160008585612063565b611d6c836108e2565b9050600260008154611d7d90613384565b90915550611d8b818461206f565b6001600160a01b0381166000908152600460205260409020611dad90846120c7565b5060008381526003602052604080822080546001600160a01b0319169055518491906001600160a01b0384169060008051602061348a83398151915290611df99033908590899061320d565b60405180910390a46000338260008686604051602001611e1d959493929190613242565b604051602081830303815290604052905061121f82826120df565b6000838152600560205260408120611e5090876122a1565b905080611e745785846040516312a8c6a360e21b81526004016101e79291906130c7565b83856001600160a01b0316876001600160a01b03167fc78cd419d6136f9f1c1c6aec1d3fae098cffaf8bc86314a8f2685e32fe574e3c8686604051611eba92919061339b565b60405180910390a4505050505050565b604080516001600160b01b0319841660208201526000602a82018190526001600160601b03198416602c83015291829101604051602081830303815290604052905080611f16906133b6565b949350505050565b60006001600160e01b031982166318a6a9a560e21b14806107b557506301ffc9a760e01b6001600160e01b03198316146107b5565b60008082604051602401611f679190612f8d565b60408051601f19818403018152919052602080820180516001600160e01b03166301ffc9a760e01b178152825192935060009283928392909183918a617530fa92503d91506000519050828015611fbf575060208210155b8015611fcb5750600081115b979650505050505050565b6000908152600360205260409020546001600160a01b0316151590565b60006107fb836001600160a01b0384166122b6565b606081600001805480602002602001604051908101604052809291908181526020018280548015611a5357602002820191906000526020600020905b8154815260200190600101908083116120445750505050509050919050565b61121f848484846122ce565b60008181526005602052604081209061208782611aa9565b90506000805b82811015610de1576120a0846000612395565b91506120bf828787600060405180602001604052806000815250611e38565b60010161208d565b60006107fb83836123a1565b60006107fb838361220a565b610c8b827fb23eae7e6d1564b295b4c3e3be402d9a2f0776c57bdf365903496f6fa481ab0083612254565b61211b83631aed5a8560e21b611f53565b156121b557604051631aed5a8560e21b81526001600160a01b03841690636bb56a149061216e907f0b084a55ebf70fd3c06fd755269dac2212c4d3f0f4d09079780bfa50c1b2984d9085906004016133da565b6000604051808303816000875af115801561218d573d6000803e3d6000fd5b505050506040513d6000823e601f3d908101601f1916820160405261121f91908101906133f3565b81611031576001600160a01b0383163b156121e55782604051634349776d60e01b81526004016101e79190612899565b82604051630317313760e01b81526004016101e79190612899565b610c8b8282612494565b600061221683836122b6565b61224c575081546001818101845560008481526020808220909301849055845484825282860190935260409020919091556107b5565b5060006107b5565b61226e6001600160a01b038416631aed5a8560e21b611f53565b1561103157604051631aed5a8560e21b81526001600160a01b03841690636bb56a149061216e90859085906004016133da565b60006107fb836001600160a01b0384166123a1565b60009081526001919091016020526040902054151590565b6001600160a01b0384166123085760006122e760025490565b60008181526007602090815260408083208790558683526008909152902055505b6001600160a01b038316612390576000600161232360025490565b61232d9190613460565b6000848152600860205260409020549091508181101561236f576000828152600760209081526040808320548484528184208190558352600890915290208190555b50600090815260076020908152604080832083905584835260089091528120555b61121f565b60006107fb83836125a9565b6000818152600183016020526040812054801561248a5760006123c5600183613460565b85549091506000906123d990600190613460565b905080821461243e5760008660000182815481106123f9576123f9612fe9565b906000526020600020015490508087600001848154811061241c5761241c612fe9565b6000918252602080832090910192909255918252600188019052604090208390555b855486908061244f5761244f613473565b6001900381819060005260206000200160009055905585600101600086815260200190815260200160002060009055600193505050506107b5565b60009150506107b5565b7f2145e1d6d074577dc71ef54c3807742b41b053a9352ae6b491331509acb9750f82016124d4576040516385c169bd60e01b815260040160405180910390fd5b7fd0f59754f88971fe6bc5a6618cc9d5f1e859c58d16b22d1c7b2d3e2b246cd8aa820161251457604051630eceab6760e31b815260040160405180910390fd5b7f1fd9e056a24d14c4abc642fcc325992a946906d0dbc57dd70278aaf12842024d820161255457604051634ef6d7fb60e01b815260040160405180910390fd5b600082815260016020526040902061256c82826132c5565b50817fece574603820d07bc9b91f2a932baadf4628aabcb8afba49776529c14a6104b28260405161259d919061269e565b60405180910390a25050565b60008260000182815481106125c0576125c0612fe9565b9060005260206000200154905092915050565b60208152816020820152818360408301376000818301604090810191909152601f909201601f19160101919050565b60006020828403121561261457600080fd5b81356001600160e01b0319811681146107fb57600080fd5b6000806040838503121561263f57600080fd5b50508035926020909101359150565b60005b83811015612669578181015183820152602001612651565b50506000910152565b6000815180845261268a81602086016020860161264e565b601f01601f19169290920160200192915050565b6020815260006107fb6020830184612672565b634e487b7160e01b600052604160045260246000fd5b604051601f8201601f191681016001600160401b03811182821017156126ef576126ef6126b1565b604052919050565b60006001600160401b03821115612710576127106126b1565b5060051b60200190565b600082601f83011261272b57600080fd5b8135602061274061273b836126f7565b6126c7565b8083825260208201915060208460051b87010193508684111561276257600080fd5b602086015b8481101561277e5780358352918301918301612767565b509695505050505050565b6000806040838503121561279c57600080fd5b82356001600160401b03808211156127b357600080fd5b6127bf8683870161271a565b935060208501359150808211156127d557600080fd5b506127e28582860161271a565b9150509250929050565b600060208083016020845280855180835260408601915060408160051b87010192506020870160005b8281101561284357603f19888603018452612831858351612672565b94509285019290850190600101612815565b5092979650505050505050565b8035801515811461286057600080fd5b919050565b60006020828403121561287757600080fd5b6107fb82612850565b60006020828403121561289257600080fd5b5035919050565b6001600160a01b0391909116815260200190565b80356001600160a01b038116811461286057600080fd5b600080604083850312156128d757600080fd5b6128e0836128ad565b946020939093013593505050565b6020808252825182820181905260009190848201906040850190845b8181101561292f5783516001600160a01b03168352928401929184019160010161290a565b50909695505050505050565b60006001600160401b03821115612954576129546126b1565b50601f01601f191660200190565b600061297061273b8461293b565b905082815283838301111561298457600080fd5b828260208301376000602084830101529392505050565b600082601f8301126129ac57600080fd5b6107fb83833560208501612962565b600080600080600060a086880312156129d357600080fd5b6129dc866128ad565b94506129ea602087016128ad565b9350604086013592506129ff60608701612850565b915060808601356001600160401b03811115612a1a57600080fd5b612a268882890161299b565b9150509295509295909350565b600060208284031215612a4557600080fd5b81356001600160401b03811115612a5b57600080fd5b8201601f81018413612a6c57600080fd5b611f1684823560208401612962565b60008060208385031215612a8e57600080fd5b82356001600160401b0380821115612aa557600080fd5b818501915085601f830112612ab957600080fd5b813581811115612ac857600080fd5b8660208260051b8501011115612add57600080fd5b60209290920196919550909350505050565b600060208284031215612b0157600080fd5b6107fb826128ad565b600082601f830112612b1b57600080fd5b81356020612b2b61273b836126f7565b8083825260208201915060208460051b870101935086841115612b4d57600080fd5b602086015b8481101561277e57612b63816128ad565b8352918301918301612b52565b600082601f830112612b8157600080fd5b81356020612b9161273b836126f7565b8083825260208201915060208460051b870101935086841115612bb357600080fd5b602086015b8481101561277e57612bc981612850565b8352918301918301612bb8565b600082601f830112612be757600080fd5b81356020612bf761273b836126f7565b82815260059290921b84018101918181019086841115612c1657600080fd5b8286015b8481101561277e5780356001600160401b03811115612c395760008081fd5b612c478986838b010161299b565b845250918301918301612c1a565b600080600080600060a08688031215612c6d57600080fd5b85356001600160401b0380821115612c8457600080fd5b612c9089838a01612b0a565b96506020880135915080821115612ca657600080fd5b612cb289838a01612b0a565b95506040880135915080821115612cc857600080fd5b612cd489838a0161271a565b94506060880135915080821115612cea57600080fd5b612cf689838a01612b70565b93506080880135915080821115612d0c57600080fd5b50612a2688828901612bd6565b60008060408385031215612d2c57600080fd5b8235915060208301356001600160401b03811115612d4957600080fd5b6127e28582860161299b565b600080600060608486031215612d6a57600080fd5b612d73846128ad565b92506020840135915060408401356001600160401b03811115612d9557600080fd5b612da18682870161299b565b9150509250925092565b60008060408385031215612dbe57600080fd5b82356001600160401b0380821115612dd557600080fd5b612de18683870161271a565b93506020850135915080821115612df757600080fd5b506127e285828601612bd6565b6020808252825182820181905260009190848201906040850190845b8181101561292f57835183529284019291840191600101612e20565b600080600060608486031215612e5157600080fd5b83356001600160401b0380821115612e6857600080fd5b612e748783880161271a565b94506020860135915080821115612e8a57600080fd5b612e968783880161271a565b93506040860135915080821115612eac57600080fd5b50612da186828701612bd6565b600080600060608486031215612ece57600080fd5b833592506020840135915060408401356001600160401b03811115612d9557600080fd5b60008060008060808587031215612f0857600080fd5b612f11856128ad565b935060208501359250612f2660408601612850565b915060608501356001600160401b03811115612f4157600080fd5b612f4d8782880161299b565b91505092959194509250565b600060208284031215612f6b57600080fd5b81356001600160401b03811115612f8157600080fd5b611f168482850161271a565b6001600160e01b031991909116815260200190565b8385823760609290921b6001600160601b031916919092019081526014810191909152603401919050565b60008251612fdf81846020870161264e565b9190910192915050565b634e487b7160e01b600052603260045260246000fd5b9182526001600160a01b0316602082015260400190565b6001600160c01b031983168152815160009061303981600885016020870161264e565b919091016008019392505050565b6000808335601e1984360301811261305e57600080fd5b8301803591506001600160401b0382111561307857600080fd5b60200191503681900382131561308d57600080fd5b9250929050565b8183823760009101908152919050565b6001600160a01b0393841681526020810192909252909116604082015260600190565b6001600160a01b03929092168252602082015260400190565b60018060a01b0385168152836020820152821515604082015260806060820152600061310f6080830184612672565b9695505050505050565b602080825260169082015275135a5b9d1a5b99c81a5cc81b9bdd08195b98589b195960521b604082015260600190565b634e487b7160e01b600052601160045260246000fd5b808201808211156107b5576107b5613149565b80820281158282048414176107b5576107b5613149565b60006001820161319b5761319b613149565b5060010190565b805160208201516001600160601b031980821692919060148310156131d15780818460140360031b1b83161693505b505050919050565b600181811c908216806131ed57607f821691505b6020821081036114f057634e487b7160e01b600052602260045260246000fd5b6001600160a01b0384168152821515602082015260606040820181905260009061323990830184612672565b95945050505050565b6001600160a01b0386811682528581166020830152841660408201526060810183905260a060808201819052600090611fcb90830184612672565b601f821115611031576000816000526020600020601f850160051c810160208610156132a65750805b601f850160051c820191505b81811015610de1578281556001016132b2565b81516001600160401b038111156132de576132de6126b1565b6132f2816132ec84546131d9565b8461327d565b602080601f831160018114613327576000841561330f5750858301515b600019600386901b1c1916600185901b178555610de1565b600085815260208120601f198616915b8281101561335657888601518255948401946001909101908401613337565b50858210156133745787850151600019600388901b60f8161c191681555b5050505050600190811b01905550565b60008161339357613393613149565b506000190190565b8215158152604060208201526000611f166040830184612672565b805160208083015191908110156114f05760001960209190910360031b1b16919050565b828152604060208201526000611f166040830184612672565b60006020828403121561340557600080fd5b81516001600160401b0381111561341b57600080fd5b8201601f8101841361342c57600080fd5b805161343a61273b8261293b565b81815285602083850101111561344f57600080fd5b61323982602083016020860161264e565b818103818111156107b5576107b5613149565b634e487b7160e01b600052603160045260246000fdfeb333c813a7426a7a11e2b190cad52c44119421594b47f6f32ace6d8c7207b2bfa26469706673582212200dc8f5d748c35e6efe5438d86d444fcf51906fefab6324071586e28364b0a83964736f6c63430008180033","opcodes":"PUSH1 0x80 PUSH1 0x40 MSTORE PUSH1 0xA DUP1 SLOAD PUSH1 0xFF NOT AND SWAP1 SSTORE CALLVALUE DUP1 ISZERO PUSH3 0x1B JUMPI PUSH1 0x0 DUP1 REVERT JUMPDEST POP PUSH1 0x40 MLOAD PUSH3 0x3E1A CODESIZE SUB DUP1 PUSH3 0x3E1A DUP4 CODECOPY DUP2 ADD PUSH1 0x40 DUP2 SWAP1 MSTORE PUSH3 0x3E SWAP2 PUSH3 0x6BD JUMP JUMPDEST PUSH1 0x40 DUP1 MLOAD DUP1 DUP3 ADD DUP3 MSTORE PUSH1 0xA DUP2 MSTORE PUSH10 0x84EAE4DCE840A0EADCB PUSH1 0xB3 SHL PUSH1 0x20 DUP1 DUP4 ADD SWAP2 SWAP1 SWAP2 MSTORE DUP3 MLOAD DUP1 DUP5 ADD SWAP1 SWAP4 MSTORE PUSH1 0x5 DUP4 MSTORE PUSH5 0x84A0AA9CB PUSH1 0xDB SHL SWAP1 DUP4 ADD MSTORE SWAP1 CALLER PUSH1 0x1 PUSH1 0x0 DUP5 DUP5 DUP5 DUP5 DUP2 DUP1 PUSH3 0xA5 JUMPI PUSH1 0x40 MLOAD PUSH4 0x6B620DB PUSH1 0xE2 SHL DUP2 MSTORE PUSH1 0x4 ADD PUSH1 0x40 MLOAD DUP1 SWAP2 SUB SWAP1 REVERT JUMPDEST PUSH3 0xB0 DUP2 PUSH3 0x22D JUMP JUMPDEST POP PUSH1 0x40 DUP1 MLOAD DUP1 DUP3 ADD SWAP1 SWAP2 MSTORE PUSH1 0x4 DUP2 MSTORE PUSH4 0x29365989 PUSH1 0xE2 SHL PUSH1 0x20 DUP3 ADD MSTORE PUSH3 0xF9 SWAP1 PUSH32 0xEAFEC4D89FA9619884B60000A4D96624A38F7AC2D8D9A604ECF07C12C77E480C SWAP1 PUSH3 0x29B JUMP JUMPDEST PUSH3 0x125 PUSH32 0xDEBA1E292F8BA88238E10AB3C7F88BD4BE4FAC56CAD5194B6ECCEAF653468AF1 DUP6 PUSH3 0x29B JUMP JUMPDEST PUSH3 0x151 PUSH32 0x2F0A68AB07768E01943A599E73362A0E17A63A72E94DD2E384D2C1D4DB932756 DUP5 PUSH3 0x29B JUMP JUMPDEST PUSH1 0x40 DUP1 MLOAD PUSH1 0x20 DUP2 ADD DUP4 SWAP1 MSTORE PUSH3 0x19A SWAP2 PUSH32 0xE0261FA95DB2EB3B5439BD033CDA66D56B96F92F243A8228FD87550ED7BDFDB3 SWAP2 ADD PUSH1 0x40 DUP1 MLOAD PUSH1 0x1F NOT DUP2 DUP5 SUB ADD DUP2 MSTORE SWAP2 SWAP1 MSTORE PUSH3 0x29B JUMP JUMPDEST POP POP PUSH1 0x40 DUP1 MLOAD PUSH1 0x20 DUP2 ADD DUP6 SWAP1 MSTORE PUSH3 0x1E7 SWAP4 POP PUSH32 0xF675E9361AF1C1664C1868CFA3EB97672D6B1A513AA5B81DEC34C9EE330E818D SWAP3 POP ADD PUSH1 0x40 DUP1 MLOAD PUSH1 0x1F NOT DUP2 DUP5 SUB ADD DUP2 MSTORE SWAP2 SWAP1 MSTORE PUSH3 0x2F4 JUMP JUMPDEST POP POP PUSH1 0x1 PUSH1 0x9 SSTORE POP POP PUSH1 0xA DUP1 SLOAD PUSH2 0x100 PUSH1 0x1 PUSH1 0xA8 SHL SUB NOT AND PUSH21 0x5B8B0E44D4719F8A328470DCCD3746BFC73D6B1400 OR SWAP1 SSTORE POP PUSH3 0x225 DUP3 DUP3 PUSH3 0x304 JUMP JUMPDEST POP POP PUSH3 0x92B JUMP JUMPDEST PUSH1 0x0 SLOAD PUSH1 0x1 PUSH1 0x1 PUSH1 0xA0 SHL SUB DUP3 DUP2 AND SWAP2 AND EQ PUSH3 0x298 JUMPI PUSH1 0x0 DUP1 SLOAD PUSH1 0x40 MLOAD PUSH1 0x1 PUSH1 0x1 PUSH1 0xA0 SHL SUB DUP1 DUP6 AND SWAP4 SWAP3 AND SWAP2 PUSH32 0x8BE0079C531659141344CD1FD0A4F28419497F9722A3DAAFE3B4186F6B6457E0 SWAP2 LOG3 PUSH1 0x0 DUP1 SLOAD PUSH1 0x1 PUSH1 0x1 PUSH1 0xA0 SHL SUB NOT AND PUSH1 0x1 PUSH1 0x1 PUSH1 0xA0 SHL SUB DUP4 AND OR SWAP1 SSTORE JUMPDEST POP JUMP JUMPDEST PUSH1 0x0 DUP3 DUP2 MSTORE PUSH1 0x1 PUSH1 0x20 MSTORE PUSH1 0x40 SWAP1 KECCAK256 PUSH3 0x2B5 DUP3 DUP3 PUSH3 0x814 JUMP JUMPDEST POP DUP2 PUSH32 0xECE574603820D07BC9B91F2A932BAADF4628AABCB8AFBA49776529C14A6104B2 DUP3 PUSH1 0x40 MLOAD PUSH3 0x2E8 SWAP2 SWAP1 PUSH3 0x8E0 JUMP JUMPDEST PUSH1 0x40 MLOAD DUP1 SWAP2 SUB SWAP1 LOG2 POP POP JUMP JUMPDEST PUSH3 0x300 DUP3 DUP3 PUSH3 0x3D9 JUMP JUMPDEST POP POP JUMP JUMPDEST PUSH3 0x30E PUSH3 0x49C JUMP JUMPDEST CALLVALUE ISZERO PUSH3 0x32E JUMPI PUSH1 0x40 MLOAD PUSH4 0xF36BA737 PUSH1 0xE0 SHL DUP2 MSTORE PUSH1 0x4 ADD PUSH1 0x40 MLOAD DUP1 SWAP2 SUB SWAP1 REVERT JUMPDEST DUP1 MLOAD DUP3 MLOAD EQ PUSH3 0x351 JUMPI PUSH1 0x40 MLOAD PUSH4 0x3BCC8979 PUSH1 0xE0 SHL DUP2 MSTORE PUSH1 0x4 ADD PUSH1 0x40 MLOAD DUP1 SWAP2 SUB SWAP1 REVERT JUMPDEST DUP2 MLOAD PUSH1 0x0 SUB PUSH3 0x374 JUMPI PUSH1 0x40 MLOAD PUSH4 0x97DA5F95 PUSH1 0xE0 SHL DUP2 MSTORE PUSH1 0x4 ADD PUSH1 0x40 MLOAD DUP1 SWAP2 SUB SWAP1 REVERT JUMPDEST PUSH1 0x0 JUMPDEST DUP3 MLOAD DUP2 LT ISZERO PUSH3 0x3D4 JUMPI PUSH3 0x3CB DUP4 DUP3 DUP2 MLOAD DUP2 LT PUSH3 0x39A JUMPI PUSH3 0x39A PUSH3 0x915 JUMP JUMPDEST PUSH1 0x20 MUL PUSH1 0x20 ADD ADD MLOAD DUP4 DUP4 DUP2 MLOAD DUP2 LT PUSH3 0x3B7 JUMPI PUSH3 0x3B7 PUSH3 0x915 JUMP JUMPDEST PUSH1 0x20 MUL PUSH1 0x20 ADD ADD MLOAD PUSH3 0x4E0 PUSH1 0x20 SHL PUSH1 0x20 SHR JUMP JUMPDEST PUSH1 0x1 ADD PUSH3 0x377 JUMP JUMPDEST POP POP POP JUMP JUMPDEST PUSH32 0x2145E1D6D074577DC71EF54C3807742B41B053A9352AE6B491331509ACB9750F DUP3 ADD PUSH3 0x41A JUMPI PUSH1 0x40 MLOAD PUSH4 0x85C169BD PUSH1 0xE0 SHL DUP2 MSTORE PUSH1 0x4 ADD PUSH1 0x40 MLOAD DUP1 SWAP2 SUB SWAP1 REVERT JUMPDEST PUSH32 0xD0F59754F88971FE6BC5A6618CC9D5F1E859C58D16B22D1C7B2D3E2B246CD8AA DUP3 ADD PUSH3 0x45B JUMPI PUSH1 0x40 MLOAD PUSH4 0xECEAB67 PUSH1 0xE3 SHL DUP2 MSTORE PUSH1 0x4 ADD PUSH1 0x40 MLOAD DUP1 SWAP2 SUB SWAP1 REVERT JUMPDEST PUSH32 0x1FD9E056A24D14C4ABC642FCC325992A946906D0DBC57DD70278AAF12842024D DUP3 ADD PUSH3 0x29B JUMPI PUSH1 0x40 MLOAD PUSH4 0x4EF6D7FB PUSH1 0xE0 SHL DUP2 MSTORE PUSH1 0x4 ADD PUSH1 0x40 MLOAD DUP1 SWAP2 SUB SWAP1 REVERT JUMPDEST CALLER PUSH3 0x4B0 PUSH1 0x0 SLOAD PUSH1 0x1 PUSH1 0x1 PUSH1 0xA0 SHL SUB AND SWAP1 JUMP JUMPDEST PUSH1 0x1 PUSH1 0x1 PUSH1 0xA0 SHL SUB AND EQ PUSH3 0x4DE JUMPI PUSH1 0x40 MLOAD PUSH4 0xBF1169C5 PUSH1 0xE0 SHL DUP2 MSTORE CALLER PUSH1 0x4 DUP3 ADD MSTORE PUSH1 0x24 ADD PUSH1 0x40 MLOAD DUP1 SWAP2 SUB SWAP1 REVERT JUMPDEST JUMP JUMPDEST PUSH32 0x98A16C9E50E3E99B3E797305C146898D294E5AEC55A47E213CB3611CCF17E73 DUP3 ADD PUSH3 0x521 JUMPI PUSH1 0x40 MLOAD PUSH4 0x1B324005 PUSH1 0xE1 SHL DUP2 MSTORE PUSH1 0x4 ADD PUSH1 0x40 MLOAD DUP1 SWAP2 SUB SWAP1 REVERT JUMPDEST PUSH3 0x300 DUP3 DUP3 PUSH3 0x2F4 JUMP JUMPDEST PUSH4 0x4E487B71 PUSH1 0xE0 SHL PUSH1 0x0 MSTORE PUSH1 0x41 PUSH1 0x4 MSTORE PUSH1 0x24 PUSH1 0x0 REVERT JUMPDEST PUSH1 0x40 MLOAD PUSH1 0x1F DUP3 ADD PUSH1 0x1F NOT AND DUP2 ADD PUSH1 0x1 PUSH1 0x1 PUSH1 0x40 SHL SUB DUP2 GT DUP3 DUP3 LT OR ISZERO PUSH3 0x56E JUMPI PUSH3 0x56E PUSH3 0x52D JUMP JUMPDEST PUSH1 0x40 MSTORE SWAP2 SWAP1 POP JUMP JUMPDEST PUSH1 0x0 PUSH1 0x1 PUSH1 0x1 PUSH1 0x40 SHL SUB DUP3 GT ISZERO PUSH3 0x592 JUMPI PUSH3 0x592 PUSH3 0x52D JUMP JUMPDEST POP PUSH1 0x5 SHL PUSH1 0x20 ADD SWAP1 JUMP JUMPDEST PUSH1 0x0 JUMPDEST DUP4 DUP2 LT ISZERO PUSH3 0x5B9 JUMPI DUP2 DUP2 ADD MLOAD DUP4 DUP3 ADD MSTORE PUSH1 0x20 ADD PUSH3 0x59F JUMP JUMPDEST POP POP PUSH1 0x0 SWAP2 ADD MSTORE JUMP JUMPDEST PUSH1 0x0 PUSH1 0x1F DUP4 PUSH1 0x1F DUP5 ADD SLT PUSH3 0x5D6 JUMPI PUSH1 0x0 DUP1 REVERT JUMPDEST DUP3 MLOAD PUSH1 0x20 PUSH3 0x5EF PUSH3 0x5E9 DUP4 PUSH3 0x576 JUMP JUMPDEST PUSH3 0x543 JUMP JUMPDEST DUP3 DUP2 MSTORE PUSH1 0x5 SWAP3 SWAP1 SWAP3 SHL DUP6 ADD DUP2 ADD SWAP2 DUP2 DUP2 ADD SWAP1 DUP8 DUP5 GT ISZERO PUSH3 0x60F JUMPI PUSH1 0x0 DUP1 REVERT JUMPDEST DUP3 DUP8 ADD JUMPDEST DUP5 DUP2 LT ISZERO PUSH3 0x6B1 JUMPI DUP1 MLOAD PUSH1 0x1 PUSH1 0x1 PUSH1 0x40 SHL SUB DUP1 DUP3 GT ISZERO PUSH3 0x635 JUMPI PUSH1 0x0 DUP1 DUP2 REVERT JUMPDEST DUP2 DUP11 ADD SWAP2 POP DUP11 PUSH1 0x3F DUP4 ADD SLT PUSH3 0x64B JUMPI PUSH1 0x0 DUP1 DUP2 REVERT JUMPDEST DUP6 DUP3 ADD MLOAD PUSH1 0x40 DUP3 DUP3 GT ISZERO PUSH3 0x664 JUMPI PUSH3 0x664 PUSH3 0x52D JUMP JUMPDEST PUSH3 0x677 DUP3 DUP12 ADD PUSH1 0x1F NOT AND DUP10 ADD PUSH3 0x543 JUMP JUMPDEST SWAP3 POP DUP2 DUP4 MSTORE DUP13 DUP2 DUP4 DUP7 ADD ADD GT ISZERO PUSH3 0x68F JUMPI PUSH1 0x0 DUP1 DUP2 REVERT JUMPDEST PUSH3 0x6A0 DUP3 DUP10 DUP6 ADD DUP4 DUP8 ADD PUSH3 0x59C JUMP JUMPDEST POP POP DUP5 MSTORE POP SWAP2 DUP4 ADD SWAP2 DUP4 ADD PUSH3 0x613 JUMP JUMPDEST POP SWAP8 SWAP7 POP POP POP POP POP POP POP JUMP JUMPDEST PUSH1 0x0 DUP1 PUSH1 0x40 DUP4 DUP6 SUB SLT ISZERO PUSH3 0x6D1 JUMPI PUSH1 0x0 DUP1 REVERT JUMPDEST DUP3 MLOAD PUSH1 0x1 PUSH1 0x1 PUSH1 0x40 SHL SUB DUP1 DUP3 GT ISZERO PUSH3 0x6E9 JUMPI PUSH1 0x0 DUP1 REVERT JUMPDEST DUP2 DUP6 ADD SWAP2 POP DUP6 PUSH1 0x1F DUP4 ADD SLT PUSH3 0x6FE JUMPI PUSH1 0x0 DUP1 REVERT JUMPDEST DUP2 MLOAD PUSH1 0x20 PUSH3 0x711 PUSH3 0x5E9 DUP4 PUSH3 0x576 JUMP JUMPDEST DUP3 DUP2 MSTORE PUSH1 0x5 SWAP3 SWAP1 SWAP3 SHL DUP5 ADD DUP2 ADD SWAP2 DUP2 DUP2 ADD SWAP1 DUP10 DUP5 GT ISZERO PUSH3 0x731 JUMPI PUSH1 0x0 DUP1 REVERT JUMPDEST SWAP5 DUP3 ADD SWAP5 JUMPDEST DUP4 DUP7 LT ISZERO PUSH3 0x751 JUMPI DUP6 MLOAD DUP3 MSTORE SWAP5 DUP3 ADD SWAP5 SWAP1 DUP3 ADD SWAP1 PUSH3 0x736 JUMP JUMPDEST SWAP2 DUP9 ADD MLOAD SWAP2 SWAP7 POP SWAP1 SWAP4 POP POP POP DUP1 DUP3 GT ISZERO PUSH3 0x76B JUMPI PUSH1 0x0 DUP1 REVERT JUMPDEST POP PUSH3 0x77A DUP6 DUP3 DUP7 ADD PUSH3 0x5C2 JUMP JUMPDEST SWAP2 POP POP SWAP3 POP SWAP3 SWAP1 POP JUMP JUMPDEST PUSH1 0x1 DUP2 DUP2 SHR SWAP1 DUP3 AND DUP1 PUSH3 0x799 JUMPI PUSH1 0x7F DUP3 AND SWAP2 POP JUMPDEST PUSH1 0x20 DUP3 LT DUP2 SUB PUSH3 0x7BA JUMPI PUSH4 0x4E487B71 PUSH1 0xE0 SHL PUSH1 0x0 MSTORE PUSH1 0x22 PUSH1 0x4 MSTORE PUSH1 0x24 PUSH1 0x0 REVERT JUMPDEST POP SWAP2 SWAP1 POP JUMP JUMPDEST PUSH1 0x1F DUP3 GT ISZERO PUSH3 0x3D4 JUMPI PUSH1 0x0 DUP2 PUSH1 0x0 MSTORE PUSH1 0x20 PUSH1 0x0 KECCAK256 PUSH1 0x1F DUP6 ADD PUSH1 0x5 SHR DUP2 ADD PUSH1 0x20 DUP7 LT ISZERO PUSH3 0x7EB JUMPI POP DUP1 JUMPDEST PUSH1 0x1F DUP6 ADD PUSH1 0x5 SHR DUP3 ADD SWAP2 POP JUMPDEST DUP2 DUP2 LT ISZERO PUSH3 0x80C JUMPI DUP3 DUP2 SSTORE PUSH1 0x1 ADD PUSH3 0x7F7 JUMP JUMPDEST POP POP POP POP POP POP JUMP JUMPDEST DUP2 MLOAD PUSH1 0x1 PUSH1 0x1 PUSH1 0x40 SHL SUB DUP2 GT ISZERO PUSH3 0x830 JUMPI PUSH3 0x830 PUSH3 0x52D JUMP JUMPDEST PUSH3 0x848 DUP2 PUSH3 0x841 DUP5 SLOAD PUSH3 0x784 JUMP JUMPDEST DUP5 PUSH3 0x7C0 JUMP JUMPDEST PUSH1 0x20 DUP1 PUSH1 0x1F DUP4 GT PUSH1 0x1 DUP2 EQ PUSH3 0x880 JUMPI PUSH1 0x0 DUP5 ISZERO PUSH3 0x867 JUMPI POP DUP6 DUP4 ADD MLOAD JUMPDEST PUSH1 0x0 NOT PUSH1 0x3 DUP7 SWAP1 SHL SHR NOT AND PUSH1 0x1 DUP6 SWAP1 SHL OR DUP6 SSTORE PUSH3 0x80C JUMP JUMPDEST PUSH1 0x0 DUP6 DUP2 MSTORE PUSH1 0x20 DUP2 KECCAK256 PUSH1 0x1F NOT DUP7 AND SWAP2 JUMPDEST DUP3 DUP2 LT ISZERO PUSH3 0x8B1 JUMPI DUP9 DUP7 ADD MLOAD DUP3 SSTORE SWAP5 DUP5 ADD SWAP5 PUSH1 0x1 SWAP1 SWAP2 ADD SWAP1 DUP5 ADD PUSH3 0x890 JUMP JUMPDEST POP DUP6 DUP3 LT ISZERO PUSH3 0x8D0 JUMPI DUP8 DUP6 ADD MLOAD PUSH1 0x0 NOT PUSH1 0x3 DUP9 SWAP1 SHL PUSH1 0xF8 AND SHR NOT AND DUP2 SSTORE JUMPDEST POP POP POP POP POP PUSH1 0x1 SWAP1 DUP2 SHL ADD SWAP1 SSTORE POP JUMP JUMPDEST PUSH1 0x20 DUP2 MSTORE PUSH1 0x0 DUP3 MLOAD DUP1 PUSH1 0x20 DUP5 ADD MSTORE PUSH3 0x901 DUP2 PUSH1 0x40 DUP6 ADD PUSH1 0x20 DUP8 ADD PUSH3 0x59C JUMP JUMPDEST PUSH1 0x1F ADD PUSH1 0x1F NOT AND SWAP2 SWAP1 SWAP2 ADD PUSH1 0x40 ADD SWAP3 SWAP2 POP POP JUMP JUMPDEST PUSH4 0x4E487B71 PUSH1 0xE0 SHL PUSH1 0x0 MSTORE PUSH1 0x32 PUSH1 0x4 MSTORE PUSH1 0x24 PUSH1 0x0 REVERT JUMPDEST PUSH2 0x34DF DUP1 PUSH3 0x93B PUSH1 0x0 CODECOPY PUSH1 0x0 RETURN INVALID PUSH1 0x80 PUSH1 0x40 MSTORE PUSH1 0x4 CALLDATASIZE LT PUSH2 0x1AE JUMPI PUSH1 0x0 CALLDATALOAD PUSH1 0xE0 SHR DUP1 PUSH4 0x1FFC9A7 EQ PUSH2 0x24A JUMPI DUP1 PUSH4 0x16E023B3 EQ PUSH2 0x27F JUMPI DUP1 PUSH4 0x18160DDD EQ PUSH2 0x2AC JUMPI DUP1 PUSH4 0x1D26FCE6 EQ PUSH2 0x2CB JUMPI DUP1 PUSH4 0x1F85E3CA EQ PUSH2 0x2F8 JUMPI DUP1 PUSH4 0x217B2270 EQ PUSH2 0x31A JUMPI DUP1 PUSH4 0x24BBD049 EQ PUSH2 0x347 JUMPI DUP1 PUSH4 0x2A3654A4 EQ PUSH2 0x361 JUMPI DUP1 PUSH4 0x32CB6B0C EQ PUSH2 0x381 JUMPI DUP1 PUSH4 0x3CCFD60B EQ PUSH2 0x397 JUMPI DUP1 PUSH4 0x3F879FAF EQ PUSH2 0x3AC JUMPI DUP1 PUSH4 0x49A6078D EQ PUSH2 0x3C1 JUMPI DUP1 PUSH4 0x511B6952 EQ PUSH2 0x3EE JUMPI DUP1 PUSH4 0x54F6127F EQ PUSH2 0x40E JUMPI DUP1 PUSH4 0x55F804B3 EQ PUSH2 0x42E JUMPI DUP1 PUSH4 0x6963D438 EQ PUSH2 0x44E JUMPI DUP1 PUSH4 0x70A08231 EQ PUSH2 0x46E JUMPI DUP1 PUSH4 0x715018A6 EQ PUSH2 0x48E JUMPI DUP1 PUSH4 0x7E87632C EQ PUSH2 0x4A3 JUMPI DUP1 PUSH4 0x7F23690C EQ PUSH2 0x4C3 JUMPI DUP1 PUSH4 0x86A10DDD EQ PUSH2 0x4D6 JUMPI DUP1 PUSH4 0x8D859F3E EQ PUSH2 0x4F6 JUMPI DUP1 PUSH4 0x8DA5CB5B EQ PUSH2 0x512 JUMPI DUP1 PUSH4 0x92A91A3A EQ PUSH2 0x527 JUMPI DUP1 PUSH4 0x95805794 EQ PUSH2 0x554 JUMPI DUP1 PUSH4 0x97902421 EQ PUSH2 0x567 JUMPI DUP1 PUSH4 0xA0712D68 EQ PUSH2 0x57A JUMPI DUP1 PUSH4 0xA3B261F2 EQ PUSH2 0x58D JUMPI DUP1 PUSH4 0xBE9F0E6F EQ PUSH2 0x5BA JUMPI DUP1 PUSH4 0xC60BE179 EQ PUSH2 0x5DA JUMPI DUP1 PUSH4 0xD0530AB0 EQ PUSH2 0x5FA JUMPI DUP1 PUSH4 0xD6C1407C EQ PUSH2 0x610 JUMPI DUP1 PUSH4 0xDB8C9663 EQ PUSH2 0x630 JUMPI DUP1 PUSH4 0xDDA3C4B8 EQ PUSH2 0x650 JUMPI DUP1 PUSH4 0xDEDFF9C6 EQ PUSH2 0x670 JUMPI DUP1 PUSH4 0xE5408EAE EQ PUSH2 0x690 JUMPI DUP1 PUSH4 0xF2FDE38B EQ PUSH2 0x6A5 JUMPI PUSH2 0x209 JUMP JUMPDEST CALLDATASIZE PUSH2 0x209 JUMPI CALLVALUE PUSH1 0x0 SUB PUSH2 0x1F0 JUMPI PUSH1 0x40 MLOAD PUSH4 0xE5099EE3 PUSH1 0xE0 SHL DUP2 MSTORE PUSH1 0x4 ADD PUSH2 0x1E7 SWAP1 PUSH1 0x20 DUP1 DUP3 MSTORE PUSH1 0x4 SWAP1 DUP3 ADD MSTORE PUSH1 0x0 PUSH1 0x40 DUP3 ADD MSTORE PUSH1 0x60 ADD SWAP1 JUMP JUMPDEST PUSH1 0x40 MLOAD DUP1 SWAP2 SUB SWAP1 REVERT JUMPDEST PUSH1 0x40 MLOAD PUSH4 0x30FA4A21 PUSH1 0xE1 SHL DUP2 MSTORE PUSH1 0x4 ADD PUSH1 0x40 MLOAD DUP1 SWAP2 SUB SWAP1 REVERT JUMPDEST PUSH1 0x0 CALLDATASIZE PUSH1 0x60 PUSH1 0x4 DUP3 LT ISZERO PUSH2 0x234 JUMPI DUP3 DUP3 PUSH1 0x40 MLOAD PUSH4 0xE5099EE3 PUSH1 0xE0 SHL DUP2 MSTORE PUSH1 0x4 ADD PUSH2 0x1E7 SWAP3 SWAP2 SWAP1 PUSH2 0x25D3 JUMP JUMPDEST PUSH2 0x23E DUP4 DUP4 PUSH2 0x6C5 JUMP JUMPDEST DUP1 MLOAD SWAP4 POP PUSH1 0x20 ADD SWAP2 POP POP RETURN JUMPDEST CALLVALUE DUP1 ISZERO PUSH2 0x256 JUMPI PUSH1 0x0 DUP1 REVERT JUMPDEST POP PUSH2 0x26A PUSH2 0x265 CALLDATASIZE PUSH1 0x4 PUSH2 0x2602 JUMP JUMPDEST PUSH2 0x7BB JUMP JUMPDEST PUSH1 0x40 MLOAD SWAP1 ISZERO ISZERO DUP2 MSTORE PUSH1 0x20 ADD JUMPDEST PUSH1 0x40 MLOAD DUP1 SWAP2 SUB SWAP1 RETURN JUMPDEST CALLVALUE DUP1 ISZERO PUSH2 0x28B JUMPI PUSH1 0x0 DUP1 REVERT JUMPDEST POP PUSH2 0x29F PUSH2 0x29A CALLDATASIZE PUSH1 0x4 PUSH2 0x262C JUMP JUMPDEST PUSH2 0x7EF JUMP JUMPDEST PUSH1 0x40 MLOAD PUSH2 0x276 SWAP2 SWAP1 PUSH2 0x269E JUMP JUMPDEST CALLVALUE DUP1 ISZERO PUSH2 0x2B8 JUMPI PUSH1 0x0 DUP1 REVERT JUMPDEST POP PUSH1 0x2 SLOAD JUMPDEST PUSH1 0x40 MLOAD SWAP1 DUP2 MSTORE PUSH1 0x20 ADD PUSH2 0x276 JUMP JUMPDEST CALLVALUE DUP1 ISZERO PUSH2 0x2D7 JUMPI PUSH1 0x0 DUP1 REVERT JUMPDEST POP PUSH2 0x2EB PUSH2 0x2E6 CALLDATASIZE PUSH1 0x4 PUSH2 0x2789 JUMP JUMPDEST PUSH2 0x802 JUMP JUMPDEST PUSH1 0x40 MLOAD PUSH2 0x276 SWAP2 SWAP1 PUSH2 0x27EC JUMP JUMPDEST CALLVALUE DUP1 ISZERO PUSH2 0x304 JUMPI PUSH1 0x0 DUP1 REVERT JUMPDEST POP PUSH2 0x318 PUSH2 0x313 CALLDATASIZE PUSH1 0x4 PUSH2 0x2865 JUMP JUMPDEST PUSH2 0x8C7 JUMP JUMPDEST STOP JUMPDEST CALLVALUE DUP1 ISZERO PUSH2 0x326 JUMPI PUSH1 0x0 DUP1 REVERT JUMPDEST POP PUSH2 0x33A PUSH2 0x335 CALLDATASIZE PUSH1 0x4 PUSH2 0x2880 JUMP JUMPDEST PUSH2 0x8E2 JUMP JUMPDEST PUSH1 0x40 MLOAD PUSH2 0x276 SWAP2 SWAP1 PUSH2 0x2899 JUMP JUMPDEST CALLVALUE DUP1 ISZERO PUSH2 0x353 JUMPI PUSH1 0x0 DUP1 REVERT JUMPDEST POP PUSH1 0xA SLOAD PUSH2 0x26A SWAP1 PUSH1 0xFF AND DUP2 JUMP JUMPDEST CALLVALUE DUP1 ISZERO PUSH2 0x36D JUMPI PUSH1 0x0 DUP1 REVERT JUMPDEST POP PUSH2 0x26A PUSH2 0x37C CALLDATASIZE PUSH1 0x4 PUSH2 0x28C4 JUMP JUMPDEST PUSH2 0x91B JUMP JUMPDEST CALLVALUE DUP1 ISZERO PUSH2 0x38D JUMPI PUSH1 0x0 DUP1 REVERT JUMPDEST POP PUSH2 0x2BD PUSH2 0x1AF4 DUP2 JUMP JUMPDEST CALLVALUE DUP1 ISZERO PUSH2 0x3A3 JUMPI PUSH1 0x0 DUP1 REVERT JUMPDEST POP PUSH2 0x318 PUSH2 0x930 JUMP JUMPDEST CALLVALUE DUP1 ISZERO PUSH2 0x3B8 JUMPI PUSH1 0x0 DUP1 REVERT JUMPDEST POP PUSH2 0x2BD PUSH1 0x64 DUP2 JUMP JUMPDEST CALLVALUE DUP1 ISZERO PUSH2 0x3CD JUMPI PUSH1 0x0 DUP1 REVERT JUMPDEST POP PUSH2 0x3E1 PUSH2 0x3DC CALLDATASIZE PUSH1 0x4 PUSH2 0x2880 JUMP JUMPDEST PUSH2 0x944 JUMP JUMPDEST PUSH1 0x40 MLOAD PUSH2 0x276 SWAP2 SWAP1 PUSH2 0x28EE JUMP JUMPDEST CALLVALUE DUP1 ISZERO PUSH2 0x3FA JUMPI PUSH1 0x0 DUP1 REVERT JUMPDEST POP PUSH2 0x318 PUSH2 0x409 CALLDATASIZE PUSH1 0x4 PUSH2 0x29BB JUMP JUMPDEST PUSH2 0x966 JUMP JUMPDEST CALLVALUE DUP1 ISZERO PUSH2 0x41A JUMPI PUSH1 0x0 DUP1 REVERT JUMPDEST POP PUSH2 0x29F PUSH2 0x429 CALLDATASIZE PUSH1 0x4 PUSH2 0x2880 JUMP JUMPDEST PUSH2 0x9A5 JUMP JUMPDEST CALLVALUE DUP1 ISZERO PUSH2 0x43A JUMPI PUSH1 0x0 DUP1 REVERT JUMPDEST POP PUSH2 0x318 PUSH2 0x449 CALLDATASIZE PUSH1 0x4 PUSH2 0x2A33 JUMP JUMPDEST PUSH2 0x9B0 JUMP JUMPDEST CALLVALUE DUP1 ISZERO PUSH2 0x45A JUMPI PUSH1 0x0 DUP1 REVERT JUMPDEST POP PUSH2 0x2EB PUSH2 0x469 CALLDATASIZE PUSH1 0x4 PUSH2 0x2A7B JUMP JUMPDEST PUSH2 0xA09 JUMP JUMPDEST CALLVALUE DUP1 ISZERO PUSH2 0x47A JUMPI PUSH1 0x0 DUP1 REVERT JUMPDEST POP PUSH2 0x2BD PUSH2 0x489 CALLDATASIZE PUSH1 0x4 PUSH2 0x2AEF JUMP JUMPDEST PUSH2 0xB38 JUMP JUMPDEST CALLVALUE DUP1 ISZERO PUSH2 0x49A JUMPI PUSH1 0x0 DUP1 REVERT JUMPDEST POP PUSH2 0x318 PUSH2 0xB59 JUMP JUMPDEST CALLVALUE DUP1 ISZERO PUSH2 0x4AF JUMPI PUSH1 0x0 DUP1 REVERT JUMPDEST POP PUSH2 0x318 PUSH2 0x4BE CALLDATASIZE PUSH1 0x4 PUSH2 0x2C55 JUMP JUMPDEST PUSH2 0xB6B JUMP JUMPDEST PUSH2 0x318 PUSH2 0x4D1 CALLDATASIZE PUSH1 0x4 PUSH2 0x2D19 JUMP JUMPDEST PUSH2 0xC5A JUMP JUMPDEST CALLVALUE DUP1 ISZERO PUSH2 0x4E2 JUMPI PUSH1 0x0 DUP1 REVERT JUMPDEST POP PUSH2 0x318 PUSH2 0x4F1 CALLDATASIZE PUSH1 0x4 PUSH2 0x2D55 JUMP JUMPDEST PUSH2 0xC8F JUMP JUMPDEST CALLVALUE DUP1 ISZERO PUSH2 0x502 JUMPI PUSH1 0x0 DUP1 REVERT JUMPDEST POP PUSH2 0x2BD PUSH8 0x3A4965BF58A40000 DUP2 JUMP JUMPDEST CALLVALUE DUP1 ISZERO PUSH2 0x51E JUMPI PUSH1 0x0 DUP1 REVERT JUMPDEST POP PUSH2 0x33A PUSH2 0xDE9 JUMP JUMPDEST CALLVALUE DUP1 ISZERO PUSH2 0x533 JUMPI PUSH1 0x0 DUP1 REVERT JUMPDEST POP PUSH2 0x2BD PUSH2 0x542 CALLDATASIZE PUSH1 0x4 PUSH2 0x2880 JUMP JUMPDEST PUSH1 0x0 SWAP1 DUP2 MSTORE PUSH1 0x7 PUSH1 0x20 MSTORE PUSH1 0x40 SWAP1 KECCAK256 SLOAD SWAP1 JUMP JUMPDEST PUSH2 0x318 PUSH2 0x562 CALLDATASIZE PUSH1 0x4 PUSH2 0x2880 JUMP JUMPDEST PUSH2 0xDF8 JUMP JUMPDEST PUSH2 0x318 PUSH2 0x575 CALLDATASIZE PUSH1 0x4 PUSH2 0x2DAB JUMP JUMPDEST PUSH2 0xF76 JUMP JUMPDEST PUSH2 0x318 PUSH2 0x588 CALLDATASIZE PUSH1 0x4 PUSH2 0x2880 JUMP JUMPDEST PUSH2 0x1036 JUMP JUMPDEST CALLVALUE DUP1 ISZERO PUSH2 0x599 JUMPI PUSH1 0x0 DUP1 REVERT JUMPDEST POP PUSH2 0x5AD PUSH2 0x5A8 CALLDATASIZE PUSH1 0x4 PUSH2 0x2AEF JUMP JUMPDEST PUSH2 0x1136 JUMP JUMPDEST PUSH1 0x40 MLOAD PUSH2 0x276 SWAP2 SWAP1 PUSH2 0x2E04 JUMP JUMPDEST CALLVALUE DUP1 ISZERO PUSH2 0x5C6 JUMPI PUSH1 0x0 DUP1 REVERT JUMPDEST POP PUSH2 0x318 PUSH2 0x5D5 CALLDATASIZE PUSH1 0x4 PUSH2 0x2E3C JUMP JUMPDEST PUSH2 0x115A JUMP JUMPDEST CALLVALUE DUP1 ISZERO PUSH2 0x5E6 JUMPI PUSH1 0x0 DUP1 REVERT JUMPDEST POP PUSH2 0x318 PUSH2 0x5F5 CALLDATASIZE PUSH1 0x4 PUSH2 0x2DAB JUMP JUMPDEST PUSH2 0x1225 JUMP JUMPDEST CALLVALUE DUP1 ISZERO PUSH2 0x606 JUMPI PUSH1 0x0 DUP1 REVERT JUMPDEST POP PUSH2 0x2BD PUSH2 0x1B39 DUP2 JUMP JUMPDEST CALLVALUE DUP1 ISZERO PUSH2 0x61C JUMPI PUSH1 0x0 DUP1 REVERT JUMPDEST POP PUSH2 0x318 PUSH2 0x62B CALLDATASIZE PUSH1 0x4 PUSH2 0x2EB9 JUMP JUMPDEST PUSH2 0x12D2 JUMP JUMPDEST CALLVALUE DUP1 ISZERO PUSH2 0x63C JUMPI PUSH1 0x0 DUP1 REVERT JUMPDEST POP PUSH2 0x318 PUSH2 0x64B CALLDATASIZE PUSH1 0x4 PUSH2 0x2EF2 JUMP JUMPDEST PUSH2 0x12E5 JUMP JUMPDEST CALLVALUE DUP1 ISZERO PUSH2 0x65C JUMPI PUSH1 0x0 DUP1 REVERT JUMPDEST POP PUSH2 0x318 PUSH2 0x66B CALLDATASIZE PUSH1 0x4 PUSH2 0x2AEF JUMP JUMPDEST PUSH2 0x13A7 JUMP JUMPDEST CALLVALUE DUP1 ISZERO PUSH2 0x67C JUMPI PUSH1 0x0 DUP1 REVERT JUMPDEST POP PUSH2 0x2EB PUSH2 0x68B CALLDATASIZE PUSH1 0x4 PUSH2 0x2F59 JUMP JUMPDEST PUSH2 0x144C JUMP JUMPDEST CALLVALUE DUP1 ISZERO PUSH2 0x69C JUMPI PUSH1 0x0 DUP1 REVERT JUMPDEST POP PUSH2 0x2BD PUSH1 0xA9 DUP2 JUMP JUMPDEST CALLVALUE DUP1 ISZERO PUSH2 0x6B1 JUMPI PUSH1 0x0 DUP1 REVERT JUMPDEST POP PUSH2 0x318 PUSH2 0x6C0 CALLDATASIZE PUSH1 0x4 PUSH2 0x2AEF JUMP JUMPDEST PUSH2 0x14F6 JUMP JUMPDEST PUSH1 0x60 PUSH1 0x0 PUSH2 0x6DE PUSH1 0x0 CALLDATALOAD PUSH1 0x1 PUSH1 0x1 PUSH1 0xE0 SHL SUB NOT AND PUSH2 0x152E JUMP JUMPDEST POP SWAP1 POP PUSH1 0x1 PUSH1 0x1 PUSH1 0xA0 SHL SUB DUP2 AND PUSH2 0x716 JUMPI PUSH1 0x0 CALLDATALOAD PUSH1 0x1 PUSH1 0x1 PUSH1 0xE0 SHL SUB NOT AND PUSH1 0x40 MLOAD PUSH4 0xBB370B2B PUSH1 0xE0 SHL DUP2 MSTORE PUSH1 0x4 ADD PUSH2 0x1E7 SWAP2 SWAP1 PUSH2 0x2F8D JUMP JUMPDEST PUSH1 0x0 DUP1 DUP3 PUSH1 0x1 PUSH1 0x1 PUSH1 0xA0 SHL SUB AND CALLVALUE DUP8 DUP8 CALLER CALLVALUE PUSH1 0x40 MLOAD PUSH1 0x20 ADD PUSH2 0x73B SWAP5 SWAP4 SWAP3 SWAP2 SWAP1 PUSH2 0x2FA2 JUMP JUMPDEST PUSH1 0x40 DUP1 MLOAD PUSH1 0x1F NOT DUP2 DUP5 SUB ADD DUP2 MSTORE SWAP1 DUP3 SWAP1 MSTORE PUSH2 0x755 SWAP2 PUSH2 0x2FCD JUMP JUMPDEST PUSH1 0x0 PUSH1 0x40 MLOAD DUP1 DUP4 SUB DUP2 DUP6 DUP8 GAS CALL SWAP3 POP POP POP RETURNDATASIZE DUP1 PUSH1 0x0 DUP2 EQ PUSH2 0x792 JUMPI PUSH1 0x40 MLOAD SWAP2 POP PUSH1 0x1F NOT PUSH1 0x3F RETURNDATASIZE ADD AND DUP3 ADD PUSH1 0x40 MSTORE RETURNDATASIZE DUP3 MSTORE RETURNDATASIZE PUSH1 0x0 PUSH1 0x20 DUP5 ADD RETURNDATACOPY PUSH2 0x797 JUMP JUMPDEST PUSH1 0x60 SWAP2 POP JUMPDEST POP SWAP2 POP SWAP2 POP DUP2 ISZERO PUSH2 0x7AC JUMPI SWAP3 POP PUSH2 0x7B5 SWAP2 POP POP JUMP JUMPDEST DUP1 MLOAD DUP1 PUSH1 0x20 DUP4 ADD REVERT JUMPDEST SWAP3 SWAP2 POP POP JUMP JUMPDEST PUSH1 0x0 PUSH1 0x1 PUSH1 0x1 PUSH1 0xE0 SHL SUB NOT DUP3 AND PUSH4 0x1D138B83 PUSH1 0xE1 SHL EQ DUP1 PUSH2 0x7E0 JUMPI POP PUSH2 0x7E0 DUP3 PUSH2 0x15AC JUMP JUMPDEST DUP1 PUSH2 0x7B5 JUMPI POP PUSH2 0x7B5 DUP3 PUSH2 0x15D1 JUMP JUMPDEST PUSH1 0x60 PUSH2 0x7FB DUP4 DUP4 PUSH2 0x1608 JUMP JUMPDEST SWAP4 SWAP3 POP POP POP JUMP JUMPDEST PUSH1 0x60 DUP3 MLOAD PUSH1 0x1 PUSH1 0x1 PUSH1 0x40 SHL SUB DUP2 GT ISZERO PUSH2 0x81D JUMPI PUSH2 0x81D PUSH2 0x26B1 JUMP JUMPDEST PUSH1 0x40 MLOAD SWAP1 DUP1 DUP3 MSTORE DUP1 PUSH1 0x20 MUL PUSH1 0x20 ADD DUP3 ADD PUSH1 0x40 MSTORE DUP1 ISZERO PUSH2 0x850 JUMPI DUP2 PUSH1 0x20 ADD JUMPDEST PUSH1 0x60 DUP2 MSTORE PUSH1 0x20 ADD SWAP1 PUSH1 0x1 SWAP1 SUB SWAP1 DUP2 PUSH2 0x83B JUMPI SWAP1 POP JUMPDEST POP SWAP1 POP PUSH1 0x0 JUMPDEST DUP4 MLOAD DUP2 LT ISZERO PUSH2 0x8C0 JUMPI PUSH2 0x89B DUP5 DUP3 DUP2 MLOAD DUP2 LT PUSH2 0x874 JUMPI PUSH2 0x874 PUSH2 0x2FE9 JUMP JUMPDEST PUSH1 0x20 MUL PUSH1 0x20 ADD ADD MLOAD DUP5 DUP4 DUP2 MLOAD DUP2 LT PUSH2 0x88E JUMPI PUSH2 0x88E PUSH2 0x2FE9 JUMP JUMPDEST PUSH1 0x20 MUL PUSH1 0x20 ADD ADD MLOAD PUSH2 0x1608 JUMP JUMPDEST DUP3 DUP3 DUP2 MLOAD DUP2 LT PUSH2 0x8AD JUMPI PUSH2 0x8AD PUSH2 0x2FE9 JUMP JUMPDEST PUSH1 0x20 SWAP1 DUP2 MUL SWAP2 SWAP1 SWAP2 ADD ADD MSTORE PUSH1 0x1 ADD PUSH2 0x856 JUMP JUMPDEST POP SWAP3 SWAP2 POP POP JUMP JUMPDEST PUSH2 0x8CF PUSH2 0x16DF JUMP JUMPDEST PUSH1 0xA DUP1 SLOAD PUSH1 0xFF NOT AND SWAP2 ISZERO ISZERO SWAP2 SWAP1 SWAP2 OR SWAP1 SSTORE JUMP JUMPDEST PUSH1 0x0 DUP2 DUP2 MSTORE PUSH1 0x3 PUSH1 0x20 MSTORE PUSH1 0x40 DUP2 KECCAK256 SLOAD PUSH1 0x1 PUSH1 0x1 PUSH1 0xA0 SHL SUB AND DUP1 PUSH2 0x7B5 JUMPI PUSH1 0x40 MLOAD PUSH4 0x5747CD1B PUSH1 0xE1 SHL DUP2 MSTORE PUSH1 0x4 DUP2 ADD DUP5 SWAP1 MSTORE PUSH1 0x24 ADD PUSH2 0x1E7 JUMP JUMPDEST PUSH1 0x0 PUSH2 0x926 DUP3 PUSH2 0x1711 JUMP JUMPDEST PUSH2 0x7FB DUP4 DUP4 PUSH2 0x173A JUMP JUMPDEST PUSH2 0x938 PUSH2 0x16DF JUMP JUMPDEST PUSH2 0x942 CALLER SELFBALANCE PUSH2 0x1777 JUMP JUMPDEST JUMP JUMPDEST PUSH1 0x60 PUSH2 0x94F DUP3 PUSH2 0x1711 JUMP JUMPDEST PUSH1 0x0 DUP3 DUP2 MSTORE PUSH1 0x5 PUSH1 0x20 MSTORE PUSH1 0x40 SWAP1 KECCAK256 PUSH2 0x7B5 SWAP1 PUSH2 0x180E JUMP JUMPDEST PUSH2 0x970 CALLER DUP5 PUSH2 0x173A JUMP JUMPDEST PUSH2 0x991 JUMPI DUP3 CALLER PUSH1 0x40 MLOAD PUSH4 0x1294D2A9 PUSH1 0xE0 SHL DUP2 MSTORE PUSH1 0x4 ADD PUSH2 0x1E7 SWAP3 SWAP2 SWAP1 PUSH2 0x2FFF JUMP JUMPDEST PUSH2 0x99E DUP6 DUP6 DUP6 DUP6 DUP6 PUSH2 0x181B JUMP JUMPDEST POP POP POP POP POP JUMP JUMPDEST PUSH1 0x60 PUSH2 0x7B5 DUP3 PUSH2 0x19BD JUMP JUMPDEST PUSH2 0x9B8 PUSH2 0x16DF JUMP JUMPDEST PUSH1 0x40 MLOAD PUSH2 0xA06 SWAP1 PUSH32 0x1A7628600C3BAC7101F53697F48DF381DDC36B9015E7D7C9C5633D1252AA2843 SWAP1 PUSH2 0x9F2 SWAP1 PUSH1 0x0 SWAP1 DUP6 SWAP1 PUSH1 0x20 ADD PUSH2 0x3016 JUMP JUMPDEST PUSH1 0x40 MLOAD PUSH1 0x20 DUP2 DUP4 SUB SUB DUP2 MSTORE SWAP1 PUSH1 0x40 MSTORE PUSH2 0x1A5F JUMP JUMPDEST POP JUMP JUMPDEST PUSH1 0x60 DUP2 PUSH1 0x1 PUSH1 0x1 PUSH1 0x40 SHL SUB DUP2 GT ISZERO PUSH2 0xA23 JUMPI PUSH2 0xA23 PUSH2 0x26B1 JUMP JUMPDEST PUSH1 0x40 MLOAD SWAP1 DUP1 DUP3 MSTORE DUP1 PUSH1 0x20 MUL PUSH1 0x20 ADD DUP3 ADD PUSH1 0x40 MSTORE DUP1 ISZERO PUSH2 0xA56 JUMPI DUP2 PUSH1 0x20 ADD JUMPDEST PUSH1 0x60 DUP2 MSTORE PUSH1 0x20 ADD SWAP1 PUSH1 0x1 SWAP1 SUB SWAP1 DUP2 PUSH2 0xA41 JUMPI SWAP1 POP JUMPDEST POP SWAP1 POP PUSH1 0x0 JUMPDEST DUP3 DUP2 LT ISZERO PUSH2 0x8C0 JUMPI PUSH1 0x0 DUP1 ADDRESS DUP7 DUP7 DUP6 DUP2 DUP2 LT PUSH2 0xA7A JUMPI PUSH2 0xA7A PUSH2 0x2FE9 JUMP JUMPDEST SWAP1 POP PUSH1 0x20 MUL DUP2 ADD SWAP1 PUSH2 0xA8C SWAP2 SWAP1 PUSH2 0x3047 JUMP JUMPDEST PUSH1 0x40 MLOAD PUSH2 0xA9A SWAP3 SWAP2 SWAP1 PUSH2 0x3094 JUMP JUMPDEST PUSH1 0x0 PUSH1 0x40 MLOAD DUP1 DUP4 SUB DUP2 DUP6 GAS DELEGATECALL SWAP2 POP POP RETURNDATASIZE DUP1 PUSH1 0x0 DUP2 EQ PUSH2 0xAD5 JUMPI PUSH1 0x40 MLOAD SWAP2 POP PUSH1 0x1F NOT PUSH1 0x3F RETURNDATASIZE ADD AND DUP3 ADD PUSH1 0x40 MSTORE RETURNDATASIZE DUP3 MSTORE RETURNDATASIZE PUSH1 0x0 PUSH1 0x20 DUP5 ADD RETURNDATACOPY PUSH2 0xADA JUMP JUMPDEST PUSH1 0x60 SWAP2 POP JUMPDEST POP SWAP2 POP SWAP2 POP DUP2 PUSH2 0xB10 JUMPI DUP1 MLOAD ISZERO PUSH2 0xAF4 JUMPI DUP1 MLOAD DUP1 DUP3 PUSH1 0x20 ADD REVERT JUMPDEST PUSH1 0x40 MLOAD PUSH4 0x234EB819 PUSH1 0xE0 SHL DUP2 MSTORE PUSH1 0x4 DUP2 ADD DUP5 SWAP1 MSTORE PUSH1 0x24 ADD PUSH2 0x1E7 JUMP JUMPDEST DUP1 DUP5 DUP5 DUP2 MLOAD DUP2 LT PUSH2 0xB23 JUMPI PUSH2 0xB23 PUSH2 0x2FE9 JUMP JUMPDEST PUSH1 0x20 SWAP1 DUP2 MUL SWAP2 SWAP1 SWAP2 ADD ADD MSTORE POP POP PUSH1 0x1 ADD PUSH2 0xA5C JUMP JUMPDEST PUSH1 0x1 PUSH1 0x1 PUSH1 0xA0 SHL SUB DUP2 AND PUSH1 0x0 SWAP1 DUP2 MSTORE PUSH1 0x4 PUSH1 0x20 MSTORE PUSH1 0x40 DUP2 KECCAK256 PUSH2 0x7B5 SWAP1 PUSH2 0x1AA9 JUMP JUMPDEST PUSH2 0xB61 PUSH2 0x16DF JUMP JUMPDEST PUSH2 0x942 PUSH1 0x0 PUSH2 0x1AB3 JUMP JUMPDEST DUP5 MLOAD DUP5 MLOAD DUP2 EQ ISZERO DUP1 PUSH2 0xB7E JUMPI POP DUP4 MLOAD DUP2 EQ ISZERO JUMPDEST DUP1 PUSH2 0xB8A JUMPI POP DUP3 MLOAD DUP2 EQ ISZERO JUMPDEST DUP1 PUSH2 0xB96 JUMPI POP DUP2 MLOAD DUP2 EQ ISZERO JUMPDEST ISZERO PUSH2 0xBB4 JUMPI PUSH1 0x40 MLOAD PUSH4 0x93A83119 PUSH1 0xE0 SHL DUP2 MSTORE PUSH1 0x4 ADD PUSH1 0x40 MLOAD DUP1 SWAP2 SUB SWAP1 REVERT JUMPDEST PUSH1 0x0 JUMPDEST DUP2 DUP2 LT ISZERO PUSH2 0xC51 JUMPI PUSH2 0xC49 DUP8 DUP3 DUP2 MLOAD DUP2 LT PUSH2 0xBD4 JUMPI PUSH2 0xBD4 PUSH2 0x2FE9 JUMP JUMPDEST PUSH1 0x20 MUL PUSH1 0x20 ADD ADD MLOAD DUP8 DUP4 DUP2 MLOAD DUP2 LT PUSH2 0xBEE JUMPI PUSH2 0xBEE PUSH2 0x2FE9 JUMP JUMPDEST PUSH1 0x20 MUL PUSH1 0x20 ADD ADD MLOAD DUP8 DUP5 DUP2 MLOAD DUP2 LT PUSH2 0xC08 JUMPI PUSH2 0xC08 PUSH2 0x2FE9 JUMP JUMPDEST PUSH1 0x20 MUL PUSH1 0x20 ADD ADD MLOAD DUP8 DUP6 DUP2 MLOAD DUP2 LT PUSH2 0xC22 JUMPI PUSH2 0xC22 PUSH2 0x2FE9 JUMP JUMPDEST PUSH1 0x20 MUL PUSH1 0x20 ADD ADD MLOAD DUP8 DUP7 DUP2 MLOAD DUP2 LT PUSH2 0xC3C JUMPI PUSH2 0xC3C PUSH2 0x2FE9 JUMP JUMPDEST PUSH1 0x20 MUL PUSH1 0x20 ADD ADD MLOAD PUSH2 0x966 JUMP JUMPDEST PUSH1 0x1 ADD PUSH2 0xBB7 JUMP JUMPDEST POP POP POP POP POP POP POP JUMP JUMPDEST PUSH2 0xC62 PUSH2 0x16DF JUMP JUMPDEST CALLVALUE ISZERO PUSH2 0xC81 JUMPI PUSH1 0x40 MLOAD PUSH4 0xF36BA737 PUSH1 0xE0 SHL DUP2 MSTORE PUSH1 0x4 ADD PUSH1 0x40 MLOAD DUP1 SWAP2 SUB SWAP1 REVERT JUMPDEST PUSH2 0xC8B DUP3 DUP3 PUSH2 0x1A5F JUMP JUMPDEST POP POP JUMP JUMPDEST PUSH1 0x0 PUSH2 0xC9A DUP4 PUSH2 0x8E2 JUMP JUMPDEST SWAP1 POP PUSH1 0x1 PUSH1 0x1 PUSH1 0xA0 SHL SUB DUP2 AND CALLER EQ PUSH2 0xCCB JUMPI DUP1 DUP4 CALLER PUSH1 0x40 MLOAD PUSH4 0x2D938F51 PUSH1 0xE1 SHL DUP2 MSTORE PUSH1 0x4 ADD PUSH2 0x1E7 SWAP4 SWAP3 SWAP2 SWAP1 PUSH2 0x30A4 JUMP JUMPDEST PUSH1 0x1 PUSH1 0x1 PUSH1 0xA0 SHL SUB DUP5 AND PUSH2 0xCF2 JUMPI PUSH1 0x40 MLOAD PUSH4 0x9577B8B3 PUSH1 0xE0 SHL DUP2 MSTORE PUSH1 0x4 ADD PUSH1 0x40 MLOAD DUP1 SWAP2 SUB SWAP1 REVERT JUMPDEST DUP4 PUSH1 0x1 PUSH1 0x1 PUSH1 0xA0 SHL SUB AND DUP2 PUSH1 0x1 PUSH1 0x1 PUSH1 0xA0 SHL SUB AND SUB PUSH2 0xD24 JUMPI PUSH1 0x40 MLOAD PUSH4 0x44FED6B1 PUSH1 0xE1 SHL DUP2 MSTORE PUSH1 0x4 ADD PUSH1 0x40 MLOAD DUP1 SWAP2 SUB SWAP1 REVERT JUMPDEST PUSH1 0x0 DUP4 DUP2 MSTORE PUSH1 0x5 PUSH1 0x20 MSTORE PUSH1 0x40 DUP2 KECCAK256 PUSH2 0xD3C SWAP1 DUP7 PUSH2 0x1B2C JUMP JUMPDEST SWAP1 POP DUP1 PUSH2 0xD60 JUMPI DUP5 DUP5 PUSH1 0x40 MLOAD PUSH4 0x14EC4D6D PUSH1 0xE3 SHL DUP2 MSTORE PUSH1 0x4 ADD PUSH2 0x1E7 SWAP3 SWAP2 SWAP1 PUSH2 0x30C7 JUMP JUMPDEST DUP4 DUP3 PUSH1 0x1 PUSH1 0x1 PUSH1 0xA0 SHL SUB AND DUP7 PUSH1 0x1 PUSH1 0x1 PUSH1 0xA0 SHL SUB AND PUSH32 0x1B1B58AA2EC0CEC2228B2D37124556D41F5A1F7B12F089171F896CC236671215 DUP7 PUSH1 0x40 MLOAD PUSH2 0xDA4 SWAP2 SWAP1 PUSH2 0x269E JUMP JUMPDEST PUSH1 0x40 MLOAD DUP1 SWAP2 SUB SWAP1 LOG4 PUSH1 0x0 CALLER DUP6 PUSH1 0x1 DUP7 PUSH1 0x40 MLOAD PUSH1 0x20 ADD PUSH2 0xDC6 SWAP5 SWAP4 SWAP3 SWAP2 SWAP1 PUSH2 0x30E0 JUMP JUMPDEST PUSH1 0x40 MLOAD PUSH1 0x20 DUP2 DUP4 SUB SUB DUP2 MSTORE SWAP1 PUSH1 0x40 MSTORE SWAP1 POP PUSH2 0xDE1 DUP7 DUP3 PUSH2 0x1B41 JUMP JUMPDEST POP POP POP POP POP POP JUMP JUMPDEST PUSH1 0x0 SLOAD PUSH1 0x1 PUSH1 0x1 PUSH1 0xA0 SHL SUB AND SWAP1 JUMP JUMPDEST PUSH2 0xE00 PUSH2 0x1B6C JUMP JUMPDEST PUSH1 0xA SLOAD PUSH1 0xFF AND PUSH2 0xE22 JUMPI PUSH1 0x40 MLOAD PUSH3 0x461BCD PUSH1 0xE5 SHL DUP2 MSTORE PUSH1 0x4 ADD PUSH2 0x1E7 SWAP1 PUSH2 0x3119 JUMP JUMPDEST PUSH2 0x1AF4 DUP2 PUSH1 0xB SLOAD PUSH2 0xE33 SWAP2 SWAP1 PUSH2 0x315F JUMP JUMPDEST GT ISZERO PUSH2 0xE54 JUMPI PUSH1 0x40 MLOAD PUSH3 0x8EDF19 PUSH1 0xE7 SHL DUP2 MSTORE PUSH1 0x4 DUP2 ADD DUP3 SWAP1 MSTORE PUSH1 0x24 ADD PUSH2 0x1E7 JUMP JUMPDEST PUSH1 0x64 DUP2 GT ISZERO PUSH2 0xE78 JUMPI PUSH1 0x40 MLOAD PUSH3 0x8EDF19 PUSH1 0xE7 SHL DUP2 MSTORE PUSH1 0x4 DUP2 ADD DUP3 SWAP1 MSTORE PUSH1 0x24 ADD PUSH2 0x1E7 JUMP JUMPDEST PUSH1 0xA SLOAD PUSH2 0x100 SWAP1 DIV PUSH1 0x1 PUSH1 0x1 PUSH1 0xA0 SHL SUB AND PUSH4 0x760D9BBA CALLER PUSH2 0xE97 PUSH2 0xDE9 JUMP JUMPDEST PUSH2 0xEA3 DUP6 PUSH2 0x1B39 PUSH2 0x3172 JUMP JUMPDEST PUSH1 0x40 MLOAD PUSH1 0x1 PUSH1 0x1 PUSH1 0xE0 SHL SUB NOT PUSH1 0xE0 DUP7 SWAP1 SHL AND DUP2 MSTORE PUSH1 0x1 PUSH1 0x1 PUSH1 0xA0 SHL SUB SWAP4 DUP5 AND PUSH1 0x4 DUP3 ADD MSTORE SWAP3 SWAP1 SWAP2 AND PUSH1 0x24 DUP4 ADD MSTORE PUSH1 0x44 DUP3 ADD MSTORE PUSH1 0x0 PUSH1 0x64 DUP3 ADD DUP2 SWAP1 MSTORE PUSH1 0xA0 PUSH1 0x84 DUP4 ADD MSTORE PUSH1 0xA4 DUP3 ADD MSTORE PUSH1 0xC4 ADD PUSH1 0x0 PUSH1 0x40 MLOAD DUP1 DUP4 SUB DUP2 PUSH1 0x0 DUP8 DUP1 EXTCODESIZE ISZERO DUP1 ISZERO PUSH2 0xF07 JUMPI PUSH1 0x0 DUP1 REVERT JUMPDEST POP GAS CALL ISZERO DUP1 ISZERO PUSH2 0xF1B JUMPI RETURNDATASIZE PUSH1 0x0 DUP1 RETURNDATACOPY RETURNDATASIZE PUSH1 0x0 REVERT JUMPDEST POP POP POP POP PUSH1 0x0 JUMPDEST DUP2 DUP2 LT ISZERO PUSH2 0xF6B JUMPI PUSH1 0x0 PUSH1 0xB PUSH1 0x0 DUP2 SLOAD PUSH2 0xF3B SWAP1 PUSH2 0x3189 JUMP JUMPDEST SWAP2 SWAP1 POP DUP2 SWAP1 SSTORE SWAP1 POP PUSH2 0xF62 CALLER DUP3 PUSH1 0x0 SHL PUSH1 0x0 PUSH1 0x40 MLOAD DUP1 PUSH1 0x20 ADD PUSH1 0x40 MSTORE DUP1 PUSH1 0x0 DUP2 MSTORE POP PUSH2 0x1B96 JUMP JUMPDEST POP PUSH1 0x1 ADD PUSH2 0xF22 JUMP JUMPDEST POP PUSH2 0xA06 PUSH1 0x1 PUSH1 0x9 SSTORE JUMP JUMPDEST PUSH2 0xF7E PUSH2 0x16DF JUMP JUMPDEST CALLVALUE ISZERO PUSH2 0xF9D JUMPI PUSH1 0x40 MLOAD PUSH4 0xF36BA737 PUSH1 0xE0 SHL DUP2 MSTORE PUSH1 0x4 ADD PUSH1 0x40 MLOAD DUP1 SWAP2 SUB SWAP1 REVERT JUMPDEST DUP1 MLOAD DUP3 MLOAD EQ PUSH2 0xFBF JUMPI PUSH1 0x40 MLOAD PUSH4 0x3BCC8979 PUSH1 0xE0 SHL DUP2 MSTORE PUSH1 0x4 ADD PUSH1 0x40 MLOAD DUP1 SWAP2 SUB SWAP1 REVERT JUMPDEST DUP2 MLOAD PUSH1 0x0 SUB PUSH2 0xFE1 JUMPI PUSH1 0x40 MLOAD PUSH4 0x97DA5F95 PUSH1 0xE0 SHL DUP2 MSTORE PUSH1 0x4 ADD PUSH1 0x40 MLOAD DUP1 SWAP2 SUB SWAP1 REVERT JUMPDEST PUSH1 0x0 JUMPDEST DUP3 MLOAD DUP2 LT ISZERO PUSH2 0x1031 JUMPI PUSH2 0x1029 DUP4 DUP3 DUP2 MLOAD DUP2 LT PUSH2 0x1002 JUMPI PUSH2 0x1002 PUSH2 0x2FE9 JUMP JUMPDEST PUSH1 0x20 MUL PUSH1 0x20 ADD ADD MLOAD DUP4 DUP4 DUP2 MLOAD DUP2 LT PUSH2 0x101C JUMPI PUSH2 0x101C PUSH2 0x2FE9 JUMP JUMPDEST PUSH1 0x20 MUL PUSH1 0x20 ADD ADD MLOAD PUSH2 0x1A5F JUMP JUMPDEST PUSH1 0x1 ADD PUSH2 0xFE4 JUMP JUMPDEST POP POP POP JUMP JUMPDEST PUSH2 0x103E PUSH2 0x1B6C JUMP JUMPDEST PUSH1 0xA SLOAD PUSH1 0xFF AND PUSH2 0x1060 JUMPI PUSH1 0x40 MLOAD PUSH3 0x461BCD PUSH1 0xE5 SHL DUP2 MSTORE PUSH1 0x4 ADD PUSH2 0x1E7 SWAP1 PUSH2 0x3119 JUMP JUMPDEST PUSH2 0x1AF4 DUP2 PUSH1 0xB SLOAD PUSH2 0x1071 SWAP2 SWAP1 PUSH2 0x315F JUMP JUMPDEST GT ISZERO PUSH2 0x1092 JUMPI PUSH1 0x40 MLOAD PUSH3 0x8EDF19 PUSH1 0xE7 SHL DUP2 MSTORE PUSH1 0x4 DUP2 ADD DUP3 SWAP1 MSTORE PUSH1 0x24 ADD PUSH2 0x1E7 JUMP JUMPDEST PUSH1 0x64 DUP2 GT ISZERO PUSH2 0x10B6 JUMPI PUSH1 0x40 MLOAD PUSH3 0x8EDF19 PUSH1 0xE7 SHL DUP2 MSTORE PUSH1 0x4 DUP2 ADD DUP3 SWAP1 MSTORE PUSH1 0x24 ADD PUSH2 0x1E7 JUMP JUMPDEST PUSH2 0x10C8 DUP2 PUSH8 0x3A4965BF58A40000 PUSH2 0x3172 JUMP JUMPDEST CALLVALUE EQ PUSH2 0x10EA JUMPI PUSH1 0x40 MLOAD PUSH4 0x5E90F773 PUSH1 0xE1 SHL DUP2 MSTORE PUSH1 0x4 DUP2 ADD DUP3 SWAP1 MSTORE PUSH1 0x24 ADD PUSH2 0x1E7 JUMP JUMPDEST PUSH1 0x0 JUMPDEST DUP2 DUP2 LT ISZERO PUSH2 0xF6B JUMPI PUSH1 0x0 PUSH1 0xB PUSH1 0x0 DUP2 SLOAD PUSH2 0x1106 SWAP1 PUSH2 0x3189 JUMP JUMPDEST SWAP2 SWAP1 POP DUP2 SWAP1 SSTORE SWAP1 POP PUSH2 0x112D CALLER DUP3 PUSH1 0x0 SHL PUSH1 0x0 PUSH1 0x40 MLOAD DUP1 PUSH1 0x20 ADD PUSH1 0x40 MSTORE DUP1 PUSH1 0x0 DUP2 MSTORE POP PUSH2 0x1B96 JUMP JUMPDEST POP PUSH1 0x1 ADD PUSH2 0x10ED JUMP JUMPDEST PUSH1 0x1 PUSH1 0x1 PUSH1 0xA0 SHL SUB DUP2 AND PUSH1 0x0 SWAP1 DUP2 MSTORE PUSH1 0x4 PUSH1 0x20 MSTORE PUSH1 0x40 SWAP1 KECCAK256 PUSH1 0x60 SWAP1 PUSH2 0x7B5 SWAP1 PUSH2 0x180E JUMP JUMPDEST PUSH2 0x1162 PUSH2 0x16DF JUMP JUMPDEST DUP2 MLOAD DUP4 MLOAD EQ ISZERO DUP1 PUSH2 0x1175 JUMPI POP DUP1 MLOAD DUP3 MLOAD EQ ISZERO JUMPDEST ISZERO PUSH2 0x1193 JUMPI PUSH1 0x40 MLOAD PUSH4 0x17D38EFF PUSH1 0xE1 SHL DUP2 MSTORE PUSH1 0x4 ADD PUSH1 0x40 MLOAD DUP1 SWAP2 SUB SWAP1 REVERT JUMPDEST DUP3 MLOAD PUSH1 0x0 SUB PUSH2 0x11B5 JUMPI PUSH1 0x40 MLOAD PUSH4 0x80C98305 PUSH1 0xE0 SHL DUP2 MSTORE PUSH1 0x4 ADD PUSH1 0x40 MLOAD DUP1 SWAP2 SUB SWAP1 REVERT JUMPDEST PUSH1 0x0 JUMPDEST DUP4 MLOAD DUP2 LT ISZERO PUSH2 0x121F JUMPI PUSH2 0x1217 DUP5 DUP3 DUP2 MLOAD DUP2 LT PUSH2 0x11D6 JUMPI PUSH2 0x11D6 PUSH2 0x2FE9 JUMP JUMPDEST PUSH1 0x20 MUL PUSH1 0x20 ADD ADD MLOAD DUP5 DUP4 DUP2 MLOAD DUP2 LT PUSH2 0x11F0 JUMPI PUSH2 0x11F0 PUSH2 0x2FE9 JUMP JUMPDEST PUSH1 0x20 MUL PUSH1 0x20 ADD ADD MLOAD DUP5 DUP5 DUP2 MLOAD DUP2 LT PUSH2 0x120A JUMPI PUSH2 0x120A PUSH2 0x2FE9 JUMP JUMPDEST PUSH1 0x20 MUL PUSH1 0x20 ADD ADD MLOAD PUSH2 0x1CB9 JUMP JUMPDEST PUSH1 0x1 ADD PUSH2 0x11B8 JUMP JUMPDEST POP POP POP POP JUMP JUMPDEST PUSH1 0x0 JUMPDEST DUP3 MLOAD DUP2 LT ISZERO PUSH2 0x1031 JUMPI PUSH2 0x1254 CALLER DUP5 DUP4 DUP2 MLOAD DUP2 LT PUSH2 0x1247 JUMPI PUSH2 0x1247 PUSH2 0x2FE9 JUMP JUMPDEST PUSH1 0x20 MUL PUSH1 0x20 ADD ADD MLOAD PUSH2 0x173A JUMP JUMPDEST PUSH2 0x128E JUMPI DUP3 DUP2 DUP2 MLOAD DUP2 LT PUSH2 0x126A JUMPI PUSH2 0x126A PUSH2 0x2FE9 JUMP JUMPDEST PUSH1 0x20 MUL PUSH1 0x20 ADD ADD MLOAD CALLER PUSH1 0x40 MLOAD PUSH4 0x1294D2A9 PUSH1 0xE0 SHL DUP2 MSTORE PUSH1 0x4 ADD PUSH2 0x1E7 SWAP3 SWAP2 SWAP1 PUSH2 0x2FFF JUMP JUMPDEST PUSH2 0x12CA DUP4 DUP3 DUP2 MLOAD DUP2 LT PUSH2 0x12A3 JUMPI PUSH2 0x12A3 PUSH2 0x2FE9 JUMP JUMPDEST PUSH1 0x20 MUL PUSH1 0x20 ADD ADD MLOAD DUP4 DUP4 DUP2 MLOAD DUP2 LT PUSH2 0x12BD JUMPI PUSH2 0x12BD PUSH2 0x2FE9 JUMP JUMPDEST PUSH1 0x20 MUL PUSH1 0x20 ADD ADD MLOAD PUSH2 0x1D49 JUMP JUMPDEST PUSH1 0x1 ADD PUSH2 0x1228 JUMP JUMPDEST PUSH2 0x12DA PUSH2 0x16DF JUMP JUMPDEST PUSH2 0x1031 DUP4 DUP4 DUP4 PUSH2 0x1CB9 JUMP JUMPDEST PUSH1 0x0 PUSH2 0x12F0 DUP5 PUSH2 0x8E2 JUMP JUMPDEST SWAP1 POP PUSH1 0x1 PUSH1 0x1 PUSH1 0xA0 SHL SUB DUP2 AND CALLER EQ PUSH2 0x1321 JUMPI DUP1 DUP5 CALLER PUSH1 0x40 MLOAD PUSH4 0x2D938F51 PUSH1 0xE1 SHL DUP2 MSTORE PUSH1 0x4 ADD PUSH2 0x1E7 SWAP4 SWAP3 SWAP2 SWAP1 PUSH2 0x30A4 JUMP JUMPDEST PUSH1 0x1 PUSH1 0x1 PUSH1 0xA0 SHL SUB DUP6 AND PUSH2 0x1348 JUMPI PUSH1 0x40 MLOAD PUSH4 0x9577B8B3 PUSH1 0xE0 SHL DUP2 MSTORE PUSH1 0x4 ADD PUSH1 0x40 MLOAD DUP1 SWAP2 SUB SWAP1 REVERT JUMPDEST DUP5 PUSH1 0x1 PUSH1 0x1 PUSH1 0xA0 SHL SUB AND DUP2 PUSH1 0x1 PUSH1 0x1 PUSH1 0xA0 SHL SUB AND SUB PUSH2 0x137A JUMPI PUSH1 0x40 MLOAD PUSH4 0x44FED6B1 PUSH1 0xE1 SHL DUP2 MSTORE PUSH1 0x4 ADD PUSH1 0x40 MLOAD DUP1 SWAP2 SUB SWAP1 REVERT JUMPDEST PUSH2 0x1387 DUP6 DUP3 DUP7 DUP7 DUP7 PUSH2 0x1E38 JUMP JUMPDEST DUP3 ISZERO PUSH2 0x99E JUMPI PUSH1 0x0 CALLER DUP6 PUSH1 0x0 DUP6 PUSH1 0x40 MLOAD PUSH1 0x20 ADD PUSH2 0xDC6 SWAP5 SWAP4 SWAP3 SWAP2 SWAP1 PUSH2 0x30E0 JUMP JUMPDEST PUSH2 0x13AF PUSH2 0x16DF JUMP JUMPDEST PUSH1 0xA9 PUSH1 0xB SLOAD LT PUSH2 0x13FF JUMPI PUSH1 0x40 MLOAD PUSH3 0x461BCD PUSH1 0xE5 SHL DUP2 MSTORE PUSH1 0x20 PUSH1 0x4 DUP3 ADD MSTORE PUSH1 0x1B PUSH1 0x24 DUP3 ADD MSTORE PUSH27 0x1519585B481C995CD95C9D9948185B1C9958591E481B5A5B9D1959 PUSH1 0x2A SHL PUSH1 0x44 DUP3 ADD MSTORE PUSH1 0x64 ADD PUSH2 0x1E7 JUMP JUMPDEST PUSH1 0x0 JUMPDEST PUSH1 0xA9 DUP2 LT ISZERO PUSH2 0xC8B JUMPI PUSH1 0x0 PUSH1 0xB PUSH1 0x0 DUP2 SLOAD PUSH2 0x141C SWAP1 PUSH2 0x3189 JUMP JUMPDEST SWAP2 SWAP1 POP DUP2 SWAP1 SSTORE SWAP1 POP PUSH2 0x1443 DUP4 DUP3 PUSH1 0x0 SHL PUSH1 0x0 PUSH1 0x40 MLOAD DUP1 PUSH1 0x20 ADD PUSH1 0x40 MSTORE DUP1 PUSH1 0x0 DUP2 MSTORE POP PUSH2 0x1B96 JUMP JUMPDEST POP PUSH1 0x1 ADD PUSH2 0x1402 JUMP JUMPDEST PUSH1 0x60 DUP2 MLOAD PUSH1 0x1 PUSH1 0x1 PUSH1 0x40 SHL SUB DUP2 GT ISZERO PUSH2 0x1467 JUMPI PUSH2 0x1467 PUSH2 0x26B1 JUMP JUMPDEST PUSH1 0x40 MLOAD SWAP1 DUP1 DUP3 MSTORE DUP1 PUSH1 0x20 MUL PUSH1 0x20 ADD DUP3 ADD PUSH1 0x40 MSTORE DUP1 ISZERO PUSH2 0x149A JUMPI DUP2 PUSH1 0x20 ADD JUMPDEST PUSH1 0x60 DUP2 MSTORE PUSH1 0x20 ADD SWAP1 PUSH1 0x1 SWAP1 SUB SWAP1 DUP2 PUSH2 0x1485 JUMPI SWAP1 POP JUMPDEST POP SWAP1 POP PUSH1 0x0 JUMPDEST DUP3 MLOAD DUP2 LT ISZERO PUSH2 0x14F0 JUMPI PUSH2 0x14CB DUP4 DUP3 DUP2 MLOAD DUP2 LT PUSH2 0x14BE JUMPI PUSH2 0x14BE PUSH2 0x2FE9 JUMP JUMPDEST PUSH1 0x20 MUL PUSH1 0x20 ADD ADD MLOAD PUSH2 0x19BD JUMP JUMPDEST DUP3 DUP3 DUP2 MLOAD DUP2 LT PUSH2 0x14DD JUMPI PUSH2 0x14DD PUSH2 0x2FE9 JUMP JUMPDEST PUSH1 0x20 SWAP1 DUP2 MUL SWAP2 SWAP1 SWAP2 ADD ADD MSTORE PUSH1 0x1 ADD PUSH2 0x14A0 JUMP JUMPDEST POP SWAP2 SWAP1 POP JUMP JUMPDEST PUSH2 0x14FE PUSH2 0x16DF JUMP JUMPDEST PUSH1 0x1 PUSH1 0x1 PUSH1 0xA0 SHL SUB DUP2 AND PUSH2 0x1525 JUMPI PUSH1 0x40 MLOAD PUSH4 0x6B620DB PUSH1 0xE2 SHL DUP2 MSTORE PUSH1 0x4 ADD PUSH1 0x40 MLOAD DUP1 SWAP2 SUB SWAP1 REVERT JUMPDEST PUSH2 0xA06 DUP2 PUSH2 0x1AB3 JUMP JUMPDEST PUSH1 0x0 DUP1 DUP1 PUSH2 0x1553 PUSH10 0x6773C5A04A6D4300884B PUSH1 0xB1 SHL PUSH1 0x1 PUSH1 0x1 PUSH1 0xE0 SHL SUB NOT DUP7 AND PUSH2 0x1ECA JUMP JUMPDEST SWAP1 POP PUSH1 0x0 PUSH2 0x1560 DUP3 PUSH2 0x19BD JUMP JUMPDEST SWAP1 POP DUP1 MLOAD PUSH1 0x14 EQ ISZERO DUP1 ISZERO PUSH2 0x1574 JUMPI POP DUP1 MLOAD ISZERO ISZERO JUMPDEST ISZERO PUSH2 0x1594 JUMPI DUP1 PUSH1 0x40 MLOAD PUSH4 0x42BFE79F PUSH1 0xE0 SHL DUP2 MSTORE PUSH1 0x4 ADD PUSH2 0x1E7 SWAP2 SWAP1 PUSH2 0x269E JUMP JUMPDEST PUSH2 0x159D DUP2 PUSH2 0x31A2 JUMP JUMPDEST PUSH1 0x60 SHR SWAP6 PUSH1 0x1 SWAP6 POP SWAP4 POP POP POP POP JUMP JUMPDEST PUSH1 0x0 PUSH1 0x1 PUSH1 0x1 PUSH1 0xE0 SHL SUB NOT DUP3 AND PUSH4 0xA918FA6B PUSH1 0xE0 SHL EQ DUP1 PUSH2 0x7B5 JUMPI POP PUSH2 0x7B5 DUP3 PUSH2 0x1F1E JUMP JUMPDEST PUSH1 0x0 DUP1 PUSH2 0x15E4 PUSH4 0x1FFC9A7 PUSH1 0xE0 SHL PUSH2 0x152E JUMP JUMPDEST POP SWAP1 POP PUSH1 0x1 PUSH1 0x1 PUSH1 0xA0 SHL SUB DUP2 AND PUSH2 0x15FE JUMPI POP PUSH1 0x0 SWAP3 SWAP2 POP POP JUMP JUMPDEST PUSH2 0x7FB DUP2 DUP5 PUSH2 0x1F53 JUMP JUMPDEST PUSH1 0x60 PUSH1 0x1 PUSH1 0x0 DUP5 DUP5 PUSH1 0x40 MLOAD PUSH1 0x20 ADD PUSH2 0x162A SWAP3 SWAP2 SWAP1 SWAP2 DUP3 MSTORE PUSH1 0x20 DUP3 ADD MSTORE PUSH1 0x40 ADD SWAP1 JUMP JUMPDEST PUSH1 0x40 MLOAD PUSH1 0x20 DUP2 DUP4 SUB SUB DUP2 MSTORE SWAP1 PUSH1 0x40 MSTORE DUP1 MLOAD SWAP1 PUSH1 0x20 ADD KECCAK256 DUP2 MSTORE PUSH1 0x20 ADD SWAP1 DUP2 MSTORE PUSH1 0x20 ADD PUSH1 0x0 KECCAK256 DUP1 SLOAD PUSH2 0x1659 SWAP1 PUSH2 0x31D9 JUMP JUMPDEST DUP1 PUSH1 0x1F ADD PUSH1 0x20 DUP1 SWAP2 DIV MUL PUSH1 0x20 ADD PUSH1 0x40 MLOAD SWAP1 DUP2 ADD PUSH1 0x40 MSTORE DUP1 SWAP3 SWAP2 SWAP1 DUP2 DUP2 MSTORE PUSH1 0x20 ADD DUP3 DUP1 SLOAD PUSH2 0x1685 SWAP1 PUSH2 0x31D9 JUMP JUMPDEST DUP1 ISZERO PUSH2 0x16D2 JUMPI DUP1 PUSH1 0x1F LT PUSH2 0x16A7 JUMPI PUSH2 0x100 DUP1 DUP4 SLOAD DIV MUL DUP4 MSTORE SWAP2 PUSH1 0x20 ADD SWAP2 PUSH2 0x16D2 JUMP JUMPDEST DUP3 ADD SWAP2 SWAP1 PUSH1 0x0 MSTORE PUSH1 0x20 PUSH1 0x0 KECCAK256 SWAP1 JUMPDEST DUP2 SLOAD DUP2 MSTORE SWAP1 PUSH1 0x1 ADD SWAP1 PUSH1 0x20 ADD DUP1 DUP4 GT PUSH2 0x16B5 JUMPI DUP3 SWAP1 SUB PUSH1 0x1F AND DUP3 ADD SWAP2 JUMPDEST POP POP POP POP POP SWAP1 POP SWAP3 SWAP2 POP POP JUMP JUMPDEST CALLER PUSH2 0x16E8 PUSH2 0xDE9 JUMP JUMPDEST PUSH1 0x1 PUSH1 0x1 PUSH1 0xA0 SHL SUB AND EQ PUSH2 0x942 JUMPI CALLER PUSH1 0x40 MLOAD PUSH4 0xBF1169C5 PUSH1 0xE0 SHL DUP2 MSTORE PUSH1 0x4 ADD PUSH2 0x1E7 SWAP2 SWAP1 PUSH2 0x2899 JUMP JUMPDEST PUSH2 0x171A DUP2 PUSH2 0x1FD6 JUMP JUMPDEST PUSH2 0xA06 JUMPI PUSH1 0x40 MLOAD PUSH4 0x5747CD1B PUSH1 0xE1 SHL DUP2 MSTORE PUSH1 0x4 DUP2 ADD DUP3 SWAP1 MSTORE PUSH1 0x24 ADD PUSH2 0x1E7 JUMP JUMPDEST PUSH1 0x0 PUSH2 0x1745 DUP3 PUSH2 0x8E2 JUMP JUMPDEST PUSH1 0x1 PUSH1 0x1 PUSH1 0xA0 SHL SUB AND DUP4 PUSH1 0x1 PUSH1 0x1 PUSH1 0xA0 SHL SUB AND EQ DUP1 PUSH2 0x7FB JUMPI POP PUSH1 0x0 DUP3 DUP2 MSTORE PUSH1 0x5 PUSH1 0x20 MSTORE PUSH1 0x40 SWAP1 KECCAK256 PUSH2 0x7FB SWAP1 DUP5 PUSH2 0x1FF3 JUMP JUMPDEST DUP1 SELFBALANCE LT ISZERO PUSH2 0x179A JUMPI ADDRESS PUSH1 0x40 MLOAD PUSH4 0xCD786059 PUSH1 0xE0 SHL DUP2 MSTORE PUSH1 0x4 ADD PUSH2 0x1E7 SWAP2 SWAP1 PUSH2 0x2899 JUMP JUMPDEST PUSH1 0x0 DUP3 PUSH1 0x1 PUSH1 0x1 PUSH1 0xA0 SHL SUB AND DUP3 PUSH1 0x40 MLOAD PUSH1 0x0 PUSH1 0x40 MLOAD DUP1 DUP4 SUB DUP2 DUP6 DUP8 GAS CALL SWAP3 POP POP POP RETURNDATASIZE DUP1 PUSH1 0x0 DUP2 EQ PUSH2 0x17E7 JUMPI PUSH1 0x40 MLOAD SWAP2 POP PUSH1 0x1F NOT PUSH1 0x3F RETURNDATASIZE ADD AND DUP3 ADD PUSH1 0x40 MSTORE RETURNDATASIZE DUP3 MSTORE RETURNDATASIZE PUSH1 0x0 PUSH1 0x20 DUP5 ADD RETURNDATACOPY PUSH2 0x17EC JUMP JUMPDEST PUSH1 0x60 SWAP2 POP JUMPDEST POP POP SWAP1 POP DUP1 PUSH2 0x1031 JUMPI PUSH1 0x40 MLOAD PUSH4 0xA12F521 PUSH1 0xE1 SHL DUP2 MSTORE PUSH1 0x4 ADD PUSH1 0x40 MLOAD DUP1 SWAP2 SUB SWAP1 REVERT JUMPDEST PUSH1 0x60 PUSH1 0x0 PUSH2 0x7FB DUP4 PUSH2 0x2008 JUMP JUMPDEST DUP4 PUSH1 0x1 PUSH1 0x1 PUSH1 0xA0 SHL SUB AND DUP6 PUSH1 0x1 PUSH1 0x1 PUSH1 0xA0 SHL SUB AND SUB PUSH2 0x184D JUMPI PUSH1 0x40 MLOAD PUSH4 0x5D67D6C1 PUSH1 0xE0 SHL DUP2 MSTORE PUSH1 0x4 ADD PUSH1 0x40 MLOAD DUP1 SWAP2 SUB SWAP1 REVERT JUMPDEST PUSH1 0x0 PUSH2 0x1858 DUP5 PUSH2 0x8E2 JUMP JUMPDEST SWAP1 POP DUP6 PUSH1 0x1 PUSH1 0x1 PUSH1 0xA0 SHL SUB AND DUP2 PUSH1 0x1 PUSH1 0x1 PUSH1 0xA0 SHL SUB AND EQ PUSH2 0x1892 JUMPI DUP1 DUP5 DUP8 PUSH1 0x40 MLOAD PUSH4 0x2D938F51 PUSH1 0xE1 SHL DUP2 MSTORE PUSH1 0x4 ADD PUSH2 0x1E7 SWAP4 SWAP3 SWAP2 SWAP1 PUSH2 0x30A4 JUMP JUMPDEST PUSH1 0x1 PUSH1 0x1 PUSH1 0xA0 SHL SUB DUP6 AND PUSH2 0x18B9 JUMPI PUSH1 0x40 MLOAD PUSH4 0x24ECEF4D PUSH1 0xE0 SHL DUP2 MSTORE PUSH1 0x4 ADD PUSH1 0x40 MLOAD DUP1 SWAP2 SUB SWAP1 REVERT JUMPDEST PUSH2 0x18C5 DUP7 DUP7 DUP7 DUP6 PUSH2 0x2063 JUMP JUMPDEST PUSH2 0x18CE DUP5 PUSH2 0x8E2 JUMP JUMPDEST SWAP1 POP PUSH2 0x18DA DUP7 DUP6 PUSH2 0x206F JUMP JUMPDEST PUSH1 0x1 PUSH1 0x1 PUSH1 0xA0 SHL SUB DUP7 AND PUSH1 0x0 SWAP1 DUP2 MSTORE PUSH1 0x4 PUSH1 0x20 MSTORE PUSH1 0x40 SWAP1 KECCAK256 PUSH2 0x18FC SWAP1 DUP6 PUSH2 0x20C7 JUMP JUMPDEST POP PUSH1 0x1 PUSH1 0x1 PUSH1 0xA0 SHL SUB DUP6 AND PUSH1 0x0 SWAP1 DUP2 MSTORE PUSH1 0x4 PUSH1 0x20 MSTORE PUSH1 0x40 SWAP1 KECCAK256 PUSH2 0x191F SWAP1 DUP6 PUSH2 0x20D3 JUMP JUMPDEST POP PUSH1 0x0 DUP5 DUP2 MSTORE PUSH1 0x3 PUSH1 0x20 MSTORE PUSH1 0x40 SWAP1 DUP2 SWAP1 KECCAK256 DUP1 SLOAD PUSH1 0x1 PUSH1 0x1 PUSH1 0xA0 SHL SUB NOT AND PUSH1 0x1 PUSH1 0x1 PUSH1 0xA0 SHL SUB DUP9 DUP2 AND SWAP2 DUP3 OR SWAP1 SWAP3 SSTORE SWAP2 MLOAD DUP7 SWAP3 SWAP2 DUP10 AND SWAP1 PUSH1 0x0 DUP1 MLOAD PUSH1 0x20 PUSH2 0x348A DUP4 CODECOPY DUP2 MLOAD SWAP2 MSTORE SWAP1 PUSH2 0x1974 SWAP1 CALLER SWAP1 DUP10 SWAP1 DUP10 SWAP1 PUSH2 0x320D JUMP JUMPDEST PUSH1 0x40 MLOAD DUP1 SWAP2 SUB SWAP1 LOG4 PUSH1 0x0 CALLER DUP8 DUP8 DUP8 DUP7 PUSH1 0x40 MLOAD PUSH1 0x20 ADD PUSH2 0x1997 SWAP6 SWAP5 SWAP4 SWAP3 SWAP2 SWAP1 PUSH2 0x3242 JUMP JUMPDEST PUSH1 0x40 MLOAD PUSH1 0x20 DUP2 DUP4 SUB SUB DUP2 MSTORE SWAP1 PUSH1 0x40 MSTORE SWAP1 POP PUSH2 0x19B2 DUP8 DUP3 PUSH2 0x20DF JUMP JUMPDEST PUSH2 0xC51 DUP7 DUP6 DUP4 PUSH2 0x210A JUMP JUMPDEST PUSH1 0x0 DUP2 DUP2 MSTORE PUSH1 0x1 PUSH1 0x20 MSTORE PUSH1 0x40 SWAP1 KECCAK256 DUP1 SLOAD PUSH1 0x60 SWAP2 SWAP1 PUSH2 0x19DA SWAP1 PUSH2 0x31D9 JUMP JUMPDEST DUP1 PUSH1 0x1F ADD PUSH1 0x20 DUP1 SWAP2 DIV MUL PUSH1 0x20 ADD PUSH1 0x40 MLOAD SWAP1 DUP2 ADD PUSH1 0x40 MSTORE DUP1 SWAP3 SWAP2 SWAP1 DUP2 DUP2 MSTORE PUSH1 0x20 ADD DUP3 DUP1 SLOAD PUSH2 0x1A06 SWAP1 PUSH2 0x31D9 JUMP JUMPDEST DUP1 ISZERO PUSH2 0x1A53 JUMPI DUP1 PUSH1 0x1F LT PUSH2 0x1A28 JUMPI PUSH2 0x100 DUP1 DUP4 SLOAD DIV MUL DUP4 MSTORE SWAP2 PUSH1 0x20 ADD SWAP2 PUSH2 0x1A53 JUMP JUMPDEST DUP3 ADD SWAP2 SWAP1 PUSH1 0x0 MSTORE PUSH1 0x20 PUSH1 0x0 KECCAK256 SWAP1 JUMPDEST DUP2 SLOAD DUP2 MSTORE SWAP1 PUSH1 0x1 ADD SWAP1 PUSH1 0x20 ADD DUP1 DUP4 GT PUSH2 0x1A36 JUMPI DUP3 SWAP1 SUB PUSH1 0x1F AND DUP3 ADD SWAP2 JUMPDEST POP POP POP POP POP SWAP1 POP SWAP2 SWAP1 POP JUMP JUMPDEST PUSH32 0x98A16C9E50E3E99B3E797305C146898D294E5AEC55A47E213CB3611CCF17E73 DUP3 ADD PUSH2 0x1A9F JUMPI PUSH1 0x40 MLOAD PUSH4 0x1B324005 PUSH1 0xE1 SHL DUP2 MSTORE PUSH1 0x4 ADD PUSH1 0x40 MLOAD DUP1 SWAP2 SUB SWAP1 REVERT JUMPDEST PUSH2 0xC8B DUP3 DUP3 PUSH2 0x2200 JUMP JUMPDEST PUSH1 0x0 PUSH2 0x7B5 DUP3 SLOAD SWAP1 JUMP JUMPDEST PUSH2 0x1ABB PUSH2 0xDE9 JUMP JUMPDEST PUSH1 0x1 PUSH1 0x1 PUSH1 0xA0 SHL SUB AND DUP2 PUSH1 0x1 PUSH1 0x1 PUSH1 0xA0 SHL SUB AND EQ PUSH2 0xA06 JUMPI PUSH1 0x0 DUP1 SLOAD PUSH1 0x40 MLOAD PUSH1 0x1 PUSH1 0x1 PUSH1 0xA0 SHL SUB DUP1 DUP6 AND SWAP4 SWAP3 AND SWAP2 PUSH32 0x8BE0079C531659141344CD1FD0A4F28419497F9722A3DAAFE3B4186F6B6457E0 SWAP2 LOG3 PUSH1 0x0 DUP1 SLOAD PUSH1 0x1 PUSH1 0x1 PUSH1 0xA0 SHL SUB DUP4 AND PUSH1 0x1 PUSH1 0x1 PUSH1 0xA0 SHL SUB NOT SWAP1 SWAP2 AND OR SWAP1 SSTORE POP JUMP JUMPDEST PUSH1 0x0 PUSH2 0x7FB DUP4 PUSH1 0x1 PUSH1 0x1 PUSH1 0xA0 SHL SUB DUP5 AND PUSH2 0x220A JUMP JUMPDEST PUSH2 0xC8B DUP3 PUSH32 0x8A1C15A8799F71B547E08E2BCB2E85257E81B0A07EEE2CE6712549EEF1F00970 DUP4 PUSH2 0x2254 JUMP JUMPDEST PUSH1 0x2 PUSH1 0x9 SLOAD SUB PUSH2 0x1B8F JUMPI PUSH1 0x40 MLOAD PUSH4 0x3EE5AEB5 PUSH1 0xE0 SHL DUP2 MSTORE PUSH1 0x4 ADD PUSH1 0x40 MLOAD DUP1 SWAP2 SUB SWAP1 REVERT JUMPDEST PUSH1 0x2 PUSH1 0x9 SSTORE JUMP JUMPDEST PUSH1 0x1 PUSH1 0x1 PUSH1 0xA0 SHL SUB DUP5 AND PUSH2 0x1BBD JUMPI PUSH1 0x40 MLOAD PUSH4 0x24ECEF4D PUSH1 0xE0 SHL DUP2 MSTORE PUSH1 0x4 ADD PUSH1 0x40 MLOAD DUP1 SWAP2 SUB SWAP1 REVERT JUMPDEST PUSH2 0x1BCA PUSH1 0x0 DUP6 DUP6 DUP5 PUSH2 0x2063 JUMP JUMPDEST PUSH2 0x1BD3 DUP4 PUSH2 0x1FD6 JUMP JUMPDEST ISZERO PUSH2 0x1BF4 JUMPI PUSH1 0x40 MLOAD PUSH4 0x34C7B511 PUSH1 0xE0 SHL DUP2 MSTORE PUSH1 0x4 DUP2 ADD DUP5 SWAP1 MSTORE PUSH1 0x24 ADD PUSH2 0x1E7 JUMP JUMPDEST PUSH1 0x2 PUSH1 0x0 DUP2 SLOAD PUSH2 0x1C03 SWAP1 PUSH2 0x3189 JUMP JUMPDEST SWAP1 SWAP2 SSTORE POP PUSH1 0x1 PUSH1 0x1 PUSH1 0xA0 SHL SUB DUP5 AND PUSH1 0x0 SWAP1 DUP2 MSTORE PUSH1 0x4 PUSH1 0x20 MSTORE PUSH1 0x40 SWAP1 KECCAK256 PUSH2 0x1C29 SWAP1 DUP5 PUSH2 0x20D3 JUMP JUMPDEST POP PUSH1 0x0 DUP4 DUP2 MSTORE PUSH1 0x3 PUSH1 0x20 MSTORE PUSH1 0x40 DUP1 DUP3 KECCAK256 DUP1 SLOAD PUSH1 0x1 PUSH1 0x1 PUSH1 0xA0 SHL SUB NOT AND PUSH1 0x1 PUSH1 0x1 PUSH1 0xA0 SHL SUB DUP9 AND SWAP1 DUP2 OR SWAP1 SWAP2 SSTORE SWAP1 MLOAD DUP6 SWAP3 SWAP1 PUSH1 0x0 DUP1 MLOAD PUSH1 0x20 PUSH2 0x348A DUP4 CODECOPY DUP2 MLOAD SWAP2 MSTORE SWAP1 PUSH2 0x1C79 SWAP1 CALLER SWAP1 DUP9 SWAP1 DUP9 SWAP1 PUSH2 0x320D JUMP JUMPDEST PUSH1 0x40 MLOAD DUP1 SWAP2 SUB SWAP1 LOG4 PUSH1 0x0 CALLER PUSH1 0x0 DUP7 DUP7 DUP6 PUSH1 0x40 MLOAD PUSH1 0x20 ADD PUSH2 0x1C9D SWAP6 SWAP5 SWAP4 SWAP3 SWAP2 SWAP1 PUSH2 0x3242 JUMP JUMPDEST PUSH1 0x40 MLOAD PUSH1 0x20 DUP2 DUP4 SUB SUB DUP2 MSTORE SWAP1 PUSH1 0x40 MSTORE SWAP1 POP PUSH2 0x99E DUP6 DUP5 DUP4 PUSH2 0x210A JUMP JUMPDEST DUP1 PUSH1 0x1 PUSH1 0x0 DUP6 DUP6 PUSH1 0x40 MLOAD PUSH1 0x20 ADD PUSH2 0x1CDA SWAP3 SWAP2 SWAP1 SWAP2 DUP3 MSTORE PUSH1 0x20 DUP3 ADD MSTORE PUSH1 0x40 ADD SWAP1 JUMP JUMPDEST PUSH1 0x40 MLOAD PUSH1 0x20 DUP2 DUP4 SUB SUB DUP2 MSTORE SWAP1 PUSH1 0x40 MSTORE DUP1 MLOAD SWAP1 PUSH1 0x20 ADD KECCAK256 DUP2 MSTORE PUSH1 0x20 ADD SWAP1 DUP2 MSTORE PUSH1 0x20 ADD PUSH1 0x0 KECCAK256 SWAP1 DUP2 PUSH2 0x1D0A SWAP2 SWAP1 PUSH2 0x32C5 JUMP JUMPDEST POP DUP2 DUP4 PUSH32 0xA6E4251F855F750545FE414F120DB91C76B88DEF14D120969E5BB2D3F05DEBBB DUP4 PUSH1 0x40 MLOAD PUSH2 0x1D3C SWAP2 SWAP1 PUSH2 0x269E JUMP JUMPDEST PUSH1 0x40 MLOAD DUP1 SWAP2 SUB SWAP1 LOG3 POP POP POP JUMP JUMPDEST PUSH1 0x0 PUSH2 0x1D54 DUP4 PUSH2 0x8E2 JUMP JUMPDEST SWAP1 POP PUSH2 0x1D63 DUP2 PUSH1 0x0 DUP6 DUP6 PUSH2 0x2063 JUMP JUMPDEST PUSH2 0x1D6C DUP4 PUSH2 0x8E2 JUMP JUMPDEST SWAP1 POP PUSH1 0x2 PUSH1 0x0 DUP2 SLOAD PUSH2 0x1D7D SWAP1 PUSH2 0x3384 JUMP JUMPDEST SWAP1 SWAP2 SSTORE POP PUSH2 0x1D8B DUP2 DUP5 PUSH2 0x206F JUMP JUMPDEST PUSH1 0x1 PUSH1 0x1 PUSH1 0xA0 SHL SUB DUP2 AND PUSH1 0x0 SWAP1 DUP2 MSTORE PUSH1 0x4 PUSH1 0x20 MSTORE PUSH1 0x40 SWAP1 KECCAK256 PUSH2 0x1DAD SWAP1 DUP5 PUSH2 0x20C7 JUMP JUMPDEST POP PUSH1 0x0 DUP4 DUP2 MSTORE PUSH1 0x3 PUSH1 0x20 MSTORE PUSH1 0x40 DUP1 DUP3 KECCAK256 DUP1 SLOAD PUSH1 0x1 PUSH1 0x1 PUSH1 0xA0 SHL SUB NOT AND SWAP1 SSTORE MLOAD DUP5 SWAP2 SWAP1 PUSH1 0x1 PUSH1 0x1 PUSH1 0xA0 SHL SUB DUP5 AND SWAP1 PUSH1 0x0 DUP1 MLOAD PUSH1 0x20 PUSH2 0x348A DUP4 CODECOPY DUP2 MLOAD SWAP2 MSTORE SWAP1 PUSH2 0x1DF9 SWAP1 CALLER SWAP1 DUP6 SWAP1 DUP10 SWAP1 PUSH2 0x320D JUMP JUMPDEST PUSH1 0x40 MLOAD DUP1 SWAP2 SUB SWAP1 LOG4 PUSH1 0x0 CALLER DUP3 PUSH1 0x0 DUP7 DUP7 PUSH1 0x40 MLOAD PUSH1 0x20 ADD PUSH2 0x1E1D SWAP6 SWAP5 SWAP4 SWAP3 SWAP2 SWAP1 PUSH2 0x3242 JUMP JUMPDEST PUSH1 0x40 MLOAD PUSH1 0x20 DUP2 DUP4 SUB SUB DUP2 MSTORE SWAP1 PUSH1 0x40 MSTORE SWAP1 POP PUSH2 0x121F DUP3 DUP3 PUSH2 0x20DF JUMP JUMPDEST PUSH1 0x0 DUP4 DUP2 MSTORE PUSH1 0x5 PUSH1 0x20 MSTORE PUSH1 0x40 DUP2 KECCAK256 PUSH2 0x1E50 SWAP1 DUP8 PUSH2 0x22A1 JUMP JUMPDEST SWAP1 POP DUP1 PUSH2 0x1E74 JUMPI DUP6 DUP5 PUSH1 0x40 MLOAD PUSH4 0x12A8C6A3 PUSH1 0xE2 SHL DUP2 MSTORE PUSH1 0x4 ADD PUSH2 0x1E7 SWAP3 SWAP2 SWAP1 PUSH2 0x30C7 JUMP JUMPDEST DUP4 DUP6 PUSH1 0x1 PUSH1 0x1 PUSH1 0xA0 SHL SUB AND DUP8 PUSH1 0x1 PUSH1 0x1 PUSH1 0xA0 SHL SUB AND PUSH32 0xC78CD419D6136F9F1C1C6AEC1D3FAE098CFFAF8BC86314A8F2685E32FE574E3C DUP7 DUP7 PUSH1 0x40 MLOAD PUSH2 0x1EBA SWAP3 SWAP2 SWAP1 PUSH2 0x339B JUMP JUMPDEST PUSH1 0x40 MLOAD DUP1 SWAP2 SUB SWAP1 LOG4 POP POP POP POP POP POP JUMP JUMPDEST PUSH1 0x40 DUP1 MLOAD PUSH1 0x1 PUSH1 0x1 PUSH1 0xB0 SHL SUB NOT DUP5 AND PUSH1 0x20 DUP3 ADD MSTORE PUSH1 0x0 PUSH1 0x2A DUP3 ADD DUP2 SWAP1 MSTORE PUSH1 0x1 PUSH1 0x1 PUSH1 0x60 SHL SUB NOT DUP5 AND PUSH1 0x2C DUP4 ADD MSTORE SWAP2 DUP3 SWAP2 ADD PUSH1 0x40 MLOAD PUSH1 0x20 DUP2 DUP4 SUB SUB DUP2 MSTORE SWAP1 PUSH1 0x40 MSTORE SWAP1 POP DUP1 PUSH2 0x1F16 SWAP1 PUSH2 0x33B6 JUMP JUMPDEST SWAP5 SWAP4 POP POP POP POP JUMP JUMPDEST PUSH1 0x0 PUSH1 0x1 PUSH1 0x1 PUSH1 0xE0 SHL SUB NOT DUP3 AND PUSH4 0x18A6A9A5 PUSH1 0xE2 SHL EQ DUP1 PUSH2 0x7B5 JUMPI POP PUSH4 0x1FFC9A7 PUSH1 0xE0 SHL PUSH1 0x1 PUSH1 0x1 PUSH1 0xE0 SHL SUB NOT DUP4 AND EQ PUSH2 0x7B5 JUMP JUMPDEST PUSH1 0x0 DUP1 DUP3 PUSH1 0x40 MLOAD PUSH1 0x24 ADD PUSH2 0x1F67 SWAP2 SWAP1 PUSH2 0x2F8D JUMP JUMPDEST PUSH1 0x40 DUP1 MLOAD PUSH1 0x1F NOT DUP2 DUP5 SUB ADD DUP2 MSTORE SWAP2 SWAP1 MSTORE PUSH1 0x20 DUP1 DUP3 ADD DUP1 MLOAD PUSH1 0x1 PUSH1 0x1 PUSH1 0xE0 SHL SUB AND PUSH4 0x1FFC9A7 PUSH1 0xE0 SHL OR DUP2 MSTORE DUP3 MLOAD SWAP3 SWAP4 POP PUSH1 0x0 SWAP3 DUP4 SWAP3 DUP4 SWAP3 SWAP1 SWAP2 DUP4 SWAP2 DUP11 PUSH2 0x7530 STATICCALL SWAP3 POP RETURNDATASIZE SWAP2 POP PUSH1 0x0 MLOAD SWAP1 POP DUP3 DUP1 ISZERO PUSH2 0x1FBF JUMPI POP PUSH1 0x20 DUP3 LT ISZERO JUMPDEST DUP1 ISZERO PUSH2 0x1FCB JUMPI POP PUSH1 0x0 DUP2 GT JUMPDEST SWAP8 SWAP7 POP POP POP POP POP POP POP JUMP JUMPDEST PUSH1 0x0 SWAP1 DUP2 MSTORE PUSH1 0x3 PUSH1 0x20 MSTORE PUSH1 0x40 SWAP1 KECCAK256 SLOAD PUSH1 0x1 PUSH1 0x1 PUSH1 0xA0 SHL SUB AND ISZERO ISZERO SWAP1 JUMP JUMPDEST PUSH1 0x0 PUSH2 0x7FB DUP4 PUSH1 0x1 PUSH1 0x1 PUSH1 0xA0 SHL SUB DUP5 AND PUSH2 0x22B6 JUMP JUMPDEST PUSH1 0x60 DUP2 PUSH1 0x0 ADD DUP1 SLOAD DUP1 PUSH1 0x20 MUL PUSH1 0x20 ADD PUSH1 0x40 MLOAD SWAP1 DUP2 ADD PUSH1 0x40 MSTORE DUP1 SWAP3 SWAP2 SWAP1 DUP2 DUP2 MSTORE PUSH1 0x20 ADD DUP3 DUP1 SLOAD DUP1 ISZERO PUSH2 0x1A53 JUMPI PUSH1 0x20 MUL DUP3 ADD SWAP2 SWAP1 PUSH1 0x0 MSTORE PUSH1 0x20 PUSH1 0x0 KECCAK256 SWAP1 JUMPDEST DUP2 SLOAD DUP2 MSTORE PUSH1 0x20 ADD SWAP1 PUSH1 0x1 ADD SWAP1 DUP1 DUP4 GT PUSH2 0x2044 JUMPI POP POP POP POP POP SWAP1 POP SWAP2 SWAP1 POP JUMP JUMPDEST PUSH2 0x121F DUP5 DUP5 DUP5 DUP5 PUSH2 0x22CE JUMP JUMPDEST PUSH1 0x0 DUP2 DUP2 MSTORE PUSH1 0x5 PUSH1 0x20 MSTORE PUSH1 0x40 DUP2 KECCAK256 SWAP1 PUSH2 0x2087 DUP3 PUSH2 0x1AA9 JUMP JUMPDEST SWAP1 POP PUSH1 0x0 DUP1 JUMPDEST DUP3 DUP2 LT ISZERO PUSH2 0xDE1 JUMPI PUSH2 0x20A0 DUP5 PUSH1 0x0 PUSH2 0x2395 JUMP JUMPDEST SWAP2 POP PUSH2 0x20BF DUP3 DUP8 DUP8 PUSH1 0x0 PUSH1 0x40 MLOAD DUP1 PUSH1 0x20 ADD PUSH1 0x40 MSTORE DUP1 PUSH1 0x0 DUP2 MSTORE POP PUSH2 0x1E38 JUMP JUMPDEST PUSH1 0x1 ADD PUSH2 0x208D JUMP JUMPDEST PUSH1 0x0 PUSH2 0x7FB DUP4 DUP4 PUSH2 0x23A1 JUMP JUMPDEST PUSH1 0x0 PUSH2 0x7FB DUP4 DUP4 PUSH2 0x220A JUMP JUMPDEST PUSH2 0xC8B DUP3 PUSH32 0xB23EAE7E6D1564B295B4C3E3BE402D9A2F0776C57BDF365903496F6FA481AB00 DUP4 PUSH2 0x2254 JUMP JUMPDEST PUSH2 0x211B DUP4 PUSH4 0x1AED5A85 PUSH1 0xE2 SHL PUSH2 0x1F53 JUMP JUMPDEST ISZERO PUSH2 0x21B5 JUMPI PUSH1 0x40 MLOAD PUSH4 0x1AED5A85 PUSH1 0xE2 SHL DUP2 MSTORE PUSH1 0x1 PUSH1 0x1 PUSH1 0xA0 SHL SUB DUP5 AND SWAP1 PUSH4 0x6BB56A14 SWAP1 PUSH2 0x216E SWAP1 PUSH32 0xB084A55EBF70FD3C06FD755269DAC2212C4D3F0F4D09079780BFA50C1B2984D SWAP1 DUP6 SWAP1 PUSH1 0x4 ADD PUSH2 0x33DA JUMP JUMPDEST PUSH1 0x0 PUSH1 0x40 MLOAD DUP1 DUP4 SUB DUP2 PUSH1 0x0 DUP8 GAS CALL ISZERO DUP1 ISZERO PUSH2 0x218D JUMPI RETURNDATASIZE PUSH1 0x0 DUP1 RETURNDATACOPY RETURNDATASIZE PUSH1 0x0 REVERT JUMPDEST POP POP POP POP PUSH1 0x40 MLOAD RETURNDATASIZE PUSH1 0x0 DUP3 RETURNDATACOPY PUSH1 0x1F RETURNDATASIZE SWAP1 DUP2 ADD PUSH1 0x1F NOT AND DUP3 ADD PUSH1 0x40 MSTORE PUSH2 0x121F SWAP2 SWAP1 DUP2 ADD SWAP1 PUSH2 0x33F3 JUMP JUMPDEST DUP2 PUSH2 0x1031 JUMPI PUSH1 0x1 PUSH1 0x1 PUSH1 0xA0 SHL SUB DUP4 AND EXTCODESIZE ISZERO PUSH2 0x21E5 JUMPI DUP3 PUSH1 0x40 MLOAD PUSH4 0x4349776D PUSH1 0xE0 SHL DUP2 MSTORE PUSH1 0x4 ADD PUSH2 0x1E7 SWAP2 SWAP1 PUSH2 0x2899 JUMP JUMPDEST DUP3 PUSH1 0x40 MLOAD PUSH4 0x3173137 PUSH1 0xE0 SHL DUP2 MSTORE PUSH1 0x4 ADD PUSH2 0x1E7 SWAP2 SWAP1 PUSH2 0x2899 JUMP JUMPDEST PUSH2 0xC8B DUP3 DUP3 PUSH2 0x2494 JUMP JUMPDEST PUSH1 0x0 PUSH2 0x2216 DUP4 DUP4 PUSH2 0x22B6 JUMP JUMPDEST PUSH2 0x224C JUMPI POP DUP2 SLOAD PUSH1 0x1 DUP2 DUP2 ADD DUP5 SSTORE PUSH1 0x0 DUP5 DUP2 MSTORE PUSH1 0x20 DUP1 DUP3 KECCAK256 SWAP1 SWAP4 ADD DUP5 SWAP1 SSTORE DUP5 SLOAD DUP5 DUP3 MSTORE DUP3 DUP7 ADD SWAP1 SWAP4 MSTORE PUSH1 0x40 SWAP1 KECCAK256 SWAP2 SWAP1 SWAP2 SSTORE PUSH2 0x7B5 JUMP JUMPDEST POP PUSH1 0x0 PUSH2 0x7B5 JUMP JUMPDEST PUSH2 0x226E PUSH1 0x1 PUSH1 0x1 PUSH1 0xA0 SHL SUB DUP5 AND PUSH4 0x1AED5A85 PUSH1 0xE2 SHL PUSH2 0x1F53 JUMP JUMPDEST ISZERO PUSH2 0x1031 JUMPI PUSH1 0x40 MLOAD PUSH4 0x1AED5A85 PUSH1 0xE2 SHL DUP2 MSTORE PUSH1 0x1 PUSH1 0x1 PUSH1 0xA0 SHL SUB DUP5 AND SWAP1 PUSH4 0x6BB56A14 SWAP1 PUSH2 0x216E SWAP1 DUP6 SWAP1 DUP6 SWAP1 PUSH1 0x4 ADD PUSH2 0x33DA JUMP JUMPDEST PUSH1 0x0 PUSH2 0x7FB DUP4 PUSH1 0x1 PUSH1 0x1 PUSH1 0xA0 SHL SUB DUP5 AND PUSH2 0x23A1 JUMP JUMPDEST PUSH1 0x0 SWAP1 DUP2 MSTORE PUSH1 0x1 SWAP2 SWAP1 SWAP2 ADD PUSH1 0x20 MSTORE PUSH1 0x40 SWAP1 KECCAK256 SLOAD ISZERO ISZERO SWAP1 JUMP JUMPDEST PUSH1 0x1 PUSH1 0x1 PUSH1 0xA0 SHL SUB DUP5 AND PUSH2 0x2308 JUMPI PUSH1 0x0 PUSH2 0x22E7 PUSH1 0x2 SLOAD SWAP1 JUMP JUMPDEST PUSH1 0x0 DUP2 DUP2 MSTORE PUSH1 0x7 PUSH1 0x20 SWAP1 DUP2 MSTORE PUSH1 0x40 DUP1 DUP4 KECCAK256 DUP8 SWAP1 SSTORE DUP7 DUP4 MSTORE PUSH1 0x8 SWAP1 SWAP2 MSTORE SWAP1 KECCAK256 SSTORE POP JUMPDEST PUSH1 0x1 PUSH1 0x1 PUSH1 0xA0 SHL SUB DUP4 AND PUSH2 0x2390 JUMPI PUSH1 0x0 PUSH1 0x1 PUSH2 0x2323 PUSH1 0x2 SLOAD SWAP1 JUMP JUMPDEST PUSH2 0x232D SWAP2 SWAP1 PUSH2 0x3460 JUMP JUMPDEST PUSH1 0x0 DUP5 DUP2 MSTORE PUSH1 0x8 PUSH1 0x20 MSTORE PUSH1 0x40 SWAP1 KECCAK256 SLOAD SWAP1 SWAP2 POP DUP2 DUP2 LT ISZERO PUSH2 0x236F JUMPI PUSH1 0x0 DUP3 DUP2 MSTORE PUSH1 0x7 PUSH1 0x20 SWAP1 DUP2 MSTORE PUSH1 0x40 DUP1 DUP4 KECCAK256 SLOAD DUP5 DUP5 MSTORE DUP2 DUP5 KECCAK256 DUP2 SWAP1 SSTORE DUP4 MSTORE PUSH1 0x8 SWAP1 SWAP2 MSTORE SWAP1 KECCAK256 DUP2 SWAP1 SSTORE JUMPDEST POP PUSH1 0x0 SWAP1 DUP2 MSTORE PUSH1 0x7 PUSH1 0x20 SWAP1 DUP2 MSTORE PUSH1 0x40 DUP1 DUP4 KECCAK256 DUP4 SWAP1 SSTORE DUP5 DUP4 MSTORE PUSH1 0x8 SWAP1 SWAP2 MSTORE DUP2 KECCAK256 SSTORE JUMPDEST PUSH2 0x121F JUMP JUMPDEST PUSH1 0x0 PUSH2 0x7FB DUP4 DUP4 PUSH2 0x25A9 JUMP JUMPDEST PUSH1 0x0 DUP2 DUP2 MSTORE PUSH1 0x1 DUP4 ADD PUSH1 0x20 MSTORE PUSH1 0x40 DUP2 KECCAK256 SLOAD DUP1 ISZERO PUSH2 0x248A JUMPI PUSH1 0x0 PUSH2 0x23C5 PUSH1 0x1 DUP4 PUSH2 0x3460 JUMP JUMPDEST DUP6 SLOAD SWAP1 SWAP2 POP PUSH1 0x0 SWAP1 PUSH2 0x23D9 SWAP1 PUSH1 0x1 SWAP1 PUSH2 0x3460 JUMP JUMPDEST SWAP1 POP DUP1 DUP3 EQ PUSH2 0x243E JUMPI PUSH1 0x0 DUP7 PUSH1 0x0 ADD DUP3 DUP2 SLOAD DUP2 LT PUSH2 0x23F9 JUMPI PUSH2 0x23F9 PUSH2 0x2FE9 JUMP JUMPDEST SWAP1 PUSH1 0x0 MSTORE PUSH1 0x20 PUSH1 0x0 KECCAK256 ADD SLOAD SWAP1 POP DUP1 DUP8 PUSH1 0x0 ADD DUP5 DUP2 SLOAD DUP2 LT PUSH2 0x241C JUMPI PUSH2 0x241C PUSH2 0x2FE9 JUMP JUMPDEST PUSH1 0x0 SWAP2 DUP3 MSTORE PUSH1 0x20 DUP1 DUP4 KECCAK256 SWAP1 SWAP2 ADD SWAP3 SWAP1 SWAP3 SSTORE SWAP2 DUP3 MSTORE PUSH1 0x1 DUP9 ADD SWAP1 MSTORE PUSH1 0x40 SWAP1 KECCAK256 DUP4 SWAP1 SSTORE JUMPDEST DUP6 SLOAD DUP7 SWAP1 DUP1 PUSH2 0x244F JUMPI PUSH2 0x244F PUSH2 0x3473 JUMP JUMPDEST PUSH1 0x1 SWAP1 SUB DUP2 DUP2 SWAP1 PUSH1 0x0 MSTORE PUSH1 0x20 PUSH1 0x0 KECCAK256 ADD PUSH1 0x0 SWAP1 SSTORE SWAP1 SSTORE DUP6 PUSH1 0x1 ADD PUSH1 0x0 DUP7 DUP2 MSTORE PUSH1 0x20 ADD SWAP1 DUP2 MSTORE PUSH1 0x20 ADD PUSH1 0x0 KECCAK256 PUSH1 0x0 SWAP1 SSTORE PUSH1 0x1 SWAP4 POP POP POP POP PUSH2 0x7B5 JUMP JUMPDEST PUSH1 0x0 SWAP2 POP POP PUSH2 0x7B5 JUMP JUMPDEST PUSH32 0x2145E1D6D074577DC71EF54C3807742B41B053A9352AE6B491331509ACB9750F DUP3 ADD PUSH2 0x24D4 JUMPI PUSH1 0x40 MLOAD PUSH4 0x85C169BD PUSH1 0xE0 SHL DUP2 MSTORE PUSH1 0x4 ADD PUSH1 0x40 MLOAD DUP1 SWAP2 SUB SWAP1 REVERT JUMPDEST PUSH32 0xD0F59754F88971FE6BC5A6618CC9D5F1E859C58D16B22D1C7B2D3E2B246CD8AA DUP3 ADD PUSH2 0x2514 JUMPI PUSH1 0x40 MLOAD PUSH4 0xECEAB67 PUSH1 0xE3 SHL DUP2 MSTORE PUSH1 0x4 ADD PUSH1 0x40 MLOAD DUP1 SWAP2 SUB SWAP1 REVERT JUMPDEST PUSH32 0x1FD9E056A24D14C4ABC642FCC325992A946906D0DBC57DD70278AAF12842024D DUP3 ADD PUSH2 0x2554 JUMPI PUSH1 0x40 MLOAD PUSH4 0x4EF6D7FB PUSH1 0xE0 SHL DUP2 MSTORE PUSH1 0x4 ADD PUSH1 0x40 MLOAD DUP1 SWAP2 SUB SWAP1 REVERT JUMPDEST PUSH1 0x0 DUP3 DUP2 MSTORE PUSH1 0x1 PUSH1 0x20 MSTORE PUSH1 0x40 SWAP1 KECCAK256 PUSH2 0x256C DUP3 DUP3 PUSH2 0x32C5 JUMP JUMPDEST POP DUP2 PUSH32 0xECE574603820D07BC9B91F2A932BAADF4628AABCB8AFBA49776529C14A6104B2 DUP3 PUSH1 0x40 MLOAD PUSH2 0x259D SWAP2 SWAP1 PUSH2 0x269E JUMP JUMPDEST PUSH1 0x40 MLOAD DUP1 SWAP2 SUB SWAP1 LOG2 POP POP JUMP JUMPDEST PUSH1 0x0 DUP3 PUSH1 0x0 ADD DUP3 DUP2 SLOAD DUP2 LT PUSH2 0x25C0 JUMPI PUSH2 0x25C0 PUSH2 0x2FE9 JUMP JUMPDEST SWAP1 PUSH1 0x0 MSTORE PUSH1 0x20 PUSH1 0x0 KECCAK256 ADD SLOAD SWAP1 POP SWAP3 SWAP2 POP POP JUMP JUMPDEST PUSH1 0x20 DUP2 MSTORE DUP2 PUSH1 0x20 DUP3 ADD MSTORE DUP2 DUP4 PUSH1 0x40 DUP4 ADD CALLDATACOPY PUSH1 0x0 DUP2 DUP4 ADD PUSH1 0x40 SWAP1 DUP2 ADD SWAP2 SWAP1 SWAP2 MSTORE PUSH1 0x1F SWAP1 SWAP3 ADD PUSH1 0x1F NOT AND ADD ADD SWAP2 SWAP1 POP JUMP JUMPDEST PUSH1 0x0 PUSH1 0x20 DUP3 DUP5 SUB SLT ISZERO PUSH2 0x2614 JUMPI PUSH1 0x0 DUP1 REVERT JUMPDEST DUP2 CALLDATALOAD PUSH1 0x1 PUSH1 0x1 PUSH1 0xE0 SHL SUB NOT DUP2 AND DUP2 EQ PUSH2 0x7FB JUMPI PUSH1 0x0 DUP1 REVERT JUMPDEST PUSH1 0x0 DUP1 PUSH1 0x40 DUP4 DUP6 SUB SLT ISZERO PUSH2 0x263F JUMPI PUSH1 0x0 DUP1 REVERT JUMPDEST POP POP DUP1 CALLDATALOAD SWAP3 PUSH1 0x20 SWAP1 SWAP2 ADD CALLDATALOAD SWAP2 POP JUMP JUMPDEST PUSH1 0x0 JUMPDEST DUP4 DUP2 LT ISZERO PUSH2 0x2669 JUMPI DUP2 DUP2 ADD MLOAD DUP4 DUP3 ADD MSTORE PUSH1 0x20 ADD PUSH2 0x2651 JUMP JUMPDEST POP POP PUSH1 0x0 SWAP2 ADD MSTORE JUMP JUMPDEST PUSH1 0x0 DUP2 MLOAD DUP1 DUP5 MSTORE PUSH2 0x268A DUP2 PUSH1 0x20 DUP7 ADD PUSH1 0x20 DUP7 ADD PUSH2 0x264E JUMP JUMPDEST PUSH1 0x1F ADD PUSH1 0x1F NOT AND SWAP3 SWAP1 SWAP3 ADD PUSH1 0x20 ADD SWAP3 SWAP2 POP POP JUMP JUMPDEST PUSH1 0x20 DUP2 MSTORE PUSH1 0x0 PUSH2 0x7FB PUSH1 0x20 DUP4 ADD DUP5 PUSH2 0x2672 JUMP JUMPDEST PUSH4 0x4E487B71 PUSH1 0xE0 SHL PUSH1 0x0 MSTORE PUSH1 0x41 PUSH1 0x4 MSTORE PUSH1 0x24 PUSH1 0x0 REVERT JUMPDEST PUSH1 0x40 MLOAD PUSH1 0x1F DUP3 ADD PUSH1 0x1F NOT AND DUP2 ADD PUSH1 0x1 PUSH1 0x1 PUSH1 0x40 SHL SUB DUP2 GT DUP3 DUP3 LT OR ISZERO PUSH2 0x26EF JUMPI PUSH2 0x26EF PUSH2 0x26B1 JUMP JUMPDEST PUSH1 0x40 MSTORE SWAP2 SWAP1 POP JUMP JUMPDEST PUSH1 0x0 PUSH1 0x1 PUSH1 0x1 PUSH1 0x40 SHL SUB DUP3 GT ISZERO PUSH2 0x2710 JUMPI PUSH2 0x2710 PUSH2 0x26B1 JUMP JUMPDEST POP PUSH1 0x5 SHL PUSH1 0x20 ADD SWAP1 JUMP JUMPDEST PUSH1 0x0 DUP3 PUSH1 0x1F DUP4 ADD SLT PUSH2 0x272B JUMPI PUSH1 0x0 DUP1 REVERT JUMPDEST DUP2 CALLDATALOAD PUSH1 0x20 PUSH2 0x2740 PUSH2 0x273B DUP4 PUSH2 0x26F7 JUMP JUMPDEST PUSH2 0x26C7 JUMP JUMPDEST DUP1 DUP4 DUP3 MSTORE PUSH1 0x20 DUP3 ADD SWAP2 POP PUSH1 0x20 DUP5 PUSH1 0x5 SHL DUP8 ADD ADD SWAP4 POP DUP7 DUP5 GT ISZERO PUSH2 0x2762 JUMPI PUSH1 0x0 DUP1 REVERT JUMPDEST PUSH1 0x20 DUP7 ADD JUMPDEST DUP5 DUP2 LT ISZERO PUSH2 0x277E JUMPI DUP1 CALLDATALOAD DUP4 MSTORE SWAP2 DUP4 ADD SWAP2 DUP4 ADD PUSH2 0x2767 JUMP JUMPDEST POP SWAP7 SWAP6 POP POP POP POP POP POP JUMP JUMPDEST PUSH1 0x0 DUP1 PUSH1 0x40 DUP4 DUP6 SUB SLT ISZERO PUSH2 0x279C JUMPI PUSH1 0x0 DUP1 REVERT JUMPDEST DUP3 CALLDATALOAD PUSH1 0x1 PUSH1 0x1 PUSH1 0x40 SHL SUB DUP1 DUP3 GT ISZERO PUSH2 0x27B3 JUMPI PUSH1 0x0 DUP1 REVERT JUMPDEST PUSH2 0x27BF DUP7 DUP4 DUP8 ADD PUSH2 0x271A JUMP JUMPDEST SWAP4 POP PUSH1 0x20 DUP6 ADD CALLDATALOAD SWAP2 POP DUP1 DUP3 GT ISZERO PUSH2 0x27D5 JUMPI PUSH1 0x0 DUP1 REVERT JUMPDEST POP PUSH2 0x27E2 DUP6 DUP3 DUP7 ADD PUSH2 0x271A JUMP JUMPDEST SWAP2 POP POP SWAP3 POP SWAP3 SWAP1 POP JUMP JUMPDEST PUSH1 0x0 PUSH1 0x20 DUP1 DUP4 ADD PUSH1 0x20 DUP5 MSTORE DUP1 DUP6 MLOAD DUP1 DUP4 MSTORE PUSH1 0x40 DUP7 ADD SWAP2 POP PUSH1 0x40 DUP2 PUSH1 0x5 SHL DUP8 ADD ADD SWAP3 POP PUSH1 0x20 DUP8 ADD PUSH1 0x0 JUMPDEST DUP3 DUP2 LT ISZERO PUSH2 0x2843 JUMPI PUSH1 0x3F NOT DUP9 DUP7 SUB ADD DUP5 MSTORE PUSH2 0x2831 DUP6 DUP4 MLOAD PUSH2 0x2672 JUMP JUMPDEST SWAP5 POP SWAP3 DUP6 ADD SWAP3 SWAP1 DUP6 ADD SWAP1 PUSH1 0x1 ADD PUSH2 0x2815 JUMP JUMPDEST POP SWAP3 SWAP8 SWAP7 POP POP POP POP POP POP POP JUMP JUMPDEST DUP1 CALLDATALOAD DUP1 ISZERO ISZERO DUP2 EQ PUSH2 0x2860 JUMPI PUSH1 0x0 DUP1 REVERT JUMPDEST SWAP2 SWAP1 POP JUMP JUMPDEST PUSH1 0x0 PUSH1 0x20 DUP3 DUP5 SUB SLT ISZERO PUSH2 0x2877 JUMPI PUSH1 0x0 DUP1 REVERT JUMPDEST PUSH2 0x7FB DUP3 PUSH2 0x2850 JUMP JUMPDEST PUSH1 0x0 PUSH1 0x20 DUP3 DUP5 SUB SLT ISZERO PUSH2 0x2892 JUMPI PUSH1 0x0 DUP1 REVERT JUMPDEST POP CALLDATALOAD SWAP2 SWAP1 POP JUMP JUMPDEST PUSH1 0x1 PUSH1 0x1 PUSH1 0xA0 SHL SUB SWAP2 SWAP1 SWAP2 AND DUP2 MSTORE PUSH1 0x20 ADD SWAP1 JUMP JUMPDEST DUP1 CALLDATALOAD PUSH1 0x1 PUSH1 0x1 PUSH1 0xA0 SHL SUB DUP2 AND DUP2 EQ PUSH2 0x2860 JUMPI PUSH1 0x0 DUP1 REVERT JUMPDEST PUSH1 0x0 DUP1 PUSH1 0x40 DUP4 DUP6 SUB SLT ISZERO PUSH2 0x28D7 JUMPI PUSH1 0x0 DUP1 REVERT JUMPDEST PUSH2 0x28E0 DUP4 PUSH2 0x28AD JUMP JUMPDEST SWAP5 PUSH1 0x20 SWAP4 SWAP1 SWAP4 ADD CALLDATALOAD SWAP4 POP POP POP JUMP JUMPDEST PUSH1 0x20 DUP1 DUP3 MSTORE DUP3 MLOAD DUP3 DUP3 ADD DUP2 SWAP1 MSTORE PUSH1 0x0 SWAP2 SWAP1 DUP5 DUP3 ADD SWAP1 PUSH1 0x40 DUP6 ADD SWAP1 DUP5 JUMPDEST DUP2 DUP2 LT ISZERO PUSH2 0x292F JUMPI DUP4 MLOAD PUSH1 0x1 PUSH1 0x1 PUSH1 0xA0 SHL SUB AND DUP4 MSTORE SWAP3 DUP5 ADD SWAP3 SWAP2 DUP5 ADD SWAP2 PUSH1 0x1 ADD PUSH2 0x290A JUMP JUMPDEST POP SWAP1 SWAP7 SWAP6 POP POP POP POP POP POP JUMP JUMPDEST PUSH1 0x0 PUSH1 0x1 PUSH1 0x1 PUSH1 0x40 SHL SUB DUP3 GT ISZERO PUSH2 0x2954 JUMPI PUSH2 0x2954 PUSH2 0x26B1 JUMP JUMPDEST POP PUSH1 0x1F ADD PUSH1 0x1F NOT AND PUSH1 0x20 ADD SWAP1 JUMP JUMPDEST PUSH1 0x0 PUSH2 0x2970 PUSH2 0x273B DUP5 PUSH2 0x293B JUMP JUMPDEST SWAP1 POP DUP3 DUP2 MSTORE DUP4 DUP4 DUP4 ADD GT ISZERO PUSH2 0x2984 JUMPI PUSH1 0x0 DUP1 REVERT JUMPDEST DUP3 DUP3 PUSH1 0x20 DUP4 ADD CALLDATACOPY PUSH1 0x0 PUSH1 0x20 DUP5 DUP4 ADD ADD MSTORE SWAP4 SWAP3 POP POP POP JUMP JUMPDEST PUSH1 0x0 DUP3 PUSH1 0x1F DUP4 ADD SLT PUSH2 0x29AC JUMPI PUSH1 0x0 DUP1 REVERT JUMPDEST PUSH2 0x7FB DUP4 DUP4 CALLDATALOAD PUSH1 0x20 DUP6 ADD PUSH2 0x2962 JUMP JUMPDEST PUSH1 0x0 DUP1 PUSH1 0x0 DUP1 PUSH1 0x0 PUSH1 0xA0 DUP7 DUP9 SUB SLT ISZERO PUSH2 0x29D3 JUMPI PUSH1 0x0 DUP1 REVERT JUMPDEST PUSH2 0x29DC DUP7 PUSH2 0x28AD JUMP JUMPDEST SWAP5 POP PUSH2 0x29EA PUSH1 0x20 DUP8 ADD PUSH2 0x28AD JUMP JUMPDEST SWAP4 POP PUSH1 0x40 DUP7 ADD CALLDATALOAD SWAP3 POP PUSH2 0x29FF PUSH1 0x60 DUP8 ADD PUSH2 0x2850 JUMP JUMPDEST SWAP2 POP PUSH1 0x80 DUP7 ADD CALLDATALOAD PUSH1 0x1 PUSH1 0x1 PUSH1 0x40 SHL SUB DUP2 GT ISZERO PUSH2 0x2A1A JUMPI PUSH1 0x0 DUP1 REVERT JUMPDEST PUSH2 0x2A26 DUP9 DUP3 DUP10 ADD PUSH2 0x299B JUMP JUMPDEST SWAP2 POP POP SWAP3 SWAP6 POP SWAP3 SWAP6 SWAP1 SWAP4 POP JUMP JUMPDEST PUSH1 0x0 PUSH1 0x20 DUP3 DUP5 SUB SLT ISZERO PUSH2 0x2A45 JUMPI PUSH1 0x0 DUP1 REVERT JUMPDEST DUP2 CALLDATALOAD PUSH1 0x1 PUSH1 0x1 PUSH1 0x40 SHL SUB DUP2 GT ISZERO PUSH2 0x2A5B JUMPI PUSH1 0x0 DUP1 REVERT JUMPDEST DUP3 ADD PUSH1 0x1F DUP2 ADD DUP5 SGT PUSH2 0x2A6C JUMPI PUSH1 0x0 DUP1 REVERT JUMPDEST PUSH2 0x1F16 DUP5 DUP3 CALLDATALOAD PUSH1 0x20 DUP5 ADD PUSH2 0x2962 JUMP JUMPDEST PUSH1 0x0 DUP1 PUSH1 0x20 DUP4 DUP6 SUB SLT ISZERO PUSH2 0x2A8E JUMPI PUSH1 0x0 DUP1 REVERT JUMPDEST DUP3 CALLDATALOAD PUSH1 0x1 PUSH1 0x1 PUSH1 0x40 SHL SUB DUP1 DUP3 GT ISZERO PUSH2 0x2AA5 JUMPI PUSH1 0x0 DUP1 REVERT JUMPDEST DUP2 DUP6 ADD SWAP2 POP DUP6 PUSH1 0x1F DUP4 ADD SLT PUSH2 0x2AB9 JUMPI PUSH1 0x0 DUP1 REVERT JUMPDEST DUP2 CALLDATALOAD DUP2 DUP2 GT ISZERO PUSH2 0x2AC8 JUMPI PUSH1 0x0 DUP1 REVERT JUMPDEST DUP7 PUSH1 0x20 DUP3 PUSH1 0x5 SHL DUP6 ADD ADD GT ISZERO PUSH2 0x2ADD JUMPI PUSH1 0x0 DUP1 REVERT JUMPDEST PUSH1 0x20 SWAP3 SWAP1 SWAP3 ADD SWAP7 SWAP2 SWAP6 POP SWAP1 SWAP4 POP POP POP POP JUMP JUMPDEST PUSH1 0x0 PUSH1 0x20 DUP3 DUP5 SUB SLT ISZERO PUSH2 0x2B01 JUMPI PUSH1 0x0 DUP1 REVERT JUMPDEST PUSH2 0x7FB DUP3 PUSH2 0x28AD JUMP JUMPDEST PUSH1 0x0 DUP3 PUSH1 0x1F DUP4 ADD SLT PUSH2 0x2B1B JUMPI PUSH1 0x0 DUP1 REVERT JUMPDEST DUP2 CALLDATALOAD PUSH1 0x20 PUSH2 0x2B2B PUSH2 0x273B DUP4 PUSH2 0x26F7 JUMP JUMPDEST DUP1 DUP4 DUP3 MSTORE PUSH1 0x20 DUP3 ADD SWAP2 POP PUSH1 0x20 DUP5 PUSH1 0x5 SHL DUP8 ADD ADD SWAP4 POP DUP7 DUP5 GT ISZERO PUSH2 0x2B4D JUMPI PUSH1 0x0 DUP1 REVERT JUMPDEST PUSH1 0x20 DUP7 ADD JUMPDEST DUP5 DUP2 LT ISZERO PUSH2 0x277E JUMPI PUSH2 0x2B63 DUP2 PUSH2 0x28AD JUMP JUMPDEST DUP4 MSTORE SWAP2 DUP4 ADD SWAP2 DUP4 ADD PUSH2 0x2B52 JUMP JUMPDEST PUSH1 0x0 DUP3 PUSH1 0x1F DUP4 ADD SLT PUSH2 0x2B81 JUMPI PUSH1 0x0 DUP1 REVERT JUMPDEST DUP2 CALLDATALOAD PUSH1 0x20 PUSH2 0x2B91 PUSH2 0x273B DUP4 PUSH2 0x26F7 JUMP JUMPDEST DUP1 DUP4 DUP3 MSTORE PUSH1 0x20 DUP3 ADD SWAP2 POP PUSH1 0x20 DUP5 PUSH1 0x5 SHL DUP8 ADD ADD SWAP4 POP DUP7 DUP5 GT ISZERO PUSH2 0x2BB3 JUMPI PUSH1 0x0 DUP1 REVERT JUMPDEST PUSH1 0x20 DUP7 ADD JUMPDEST DUP5 DUP2 LT ISZERO PUSH2 0x277E JUMPI PUSH2 0x2BC9 DUP2 PUSH2 0x2850 JUMP JUMPDEST DUP4 MSTORE SWAP2 DUP4 ADD SWAP2 DUP4 ADD PUSH2 0x2BB8 JUMP JUMPDEST PUSH1 0x0 DUP3 PUSH1 0x1F DUP4 ADD SLT PUSH2 0x2BE7 JUMPI PUSH1 0x0 DUP1 REVERT JUMPDEST DUP2 CALLDATALOAD PUSH1 0x20 PUSH2 0x2BF7 PUSH2 0x273B DUP4 PUSH2 0x26F7 JUMP JUMPDEST DUP3 DUP2 MSTORE PUSH1 0x5 SWAP3 SWAP1 SWAP3 SHL DUP5 ADD DUP2 ADD SWAP2 DUP2 DUP2 ADD SWAP1 DUP7 DUP5 GT ISZERO PUSH2 0x2C16 JUMPI PUSH1 0x0 DUP1 REVERT JUMPDEST DUP3 DUP7 ADD JUMPDEST DUP5 DUP2 LT ISZERO PUSH2 0x277E JUMPI DUP1 CALLDATALOAD PUSH1 0x1 PUSH1 0x1 PUSH1 0x40 SHL SUB DUP2 GT ISZERO PUSH2 0x2C39 JUMPI PUSH1 0x0 DUP1 DUP2 REVERT JUMPDEST PUSH2 0x2C47 DUP10 DUP7 DUP4 DUP12 ADD ADD PUSH2 0x299B JUMP JUMPDEST DUP5 MSTORE POP SWAP2 DUP4 ADD SWAP2 DUP4 ADD PUSH2 0x2C1A JUMP JUMPDEST PUSH1 0x0 DUP1 PUSH1 0x0 DUP1 PUSH1 0x0 PUSH1 0xA0 DUP7 DUP9 SUB SLT ISZERO PUSH2 0x2C6D JUMPI PUSH1 0x0 DUP1 REVERT JUMPDEST DUP6 CALLDATALOAD PUSH1 0x1 PUSH1 0x1 PUSH1 0x40 SHL SUB DUP1 DUP3 GT ISZERO PUSH2 0x2C84 JUMPI PUSH1 0x0 DUP1 REVERT JUMPDEST PUSH2 0x2C90 DUP10 DUP4 DUP11 ADD PUSH2 0x2B0A JUMP JUMPDEST SWAP7 POP PUSH1 0x20 DUP9 ADD CALLDATALOAD SWAP2 POP DUP1 DUP3 GT ISZERO PUSH2 0x2CA6 JUMPI PUSH1 0x0 DUP1 REVERT JUMPDEST PUSH2 0x2CB2 DUP10 DUP4 DUP11 ADD PUSH2 0x2B0A JUMP JUMPDEST SWAP6 POP PUSH1 0x40 DUP9 ADD CALLDATALOAD SWAP2 POP DUP1 DUP3 GT ISZERO PUSH2 0x2CC8 JUMPI PUSH1 0x0 DUP1 REVERT JUMPDEST PUSH2 0x2CD4 DUP10 DUP4 DUP11 ADD PUSH2 0x271A JUMP JUMPDEST SWAP5 POP PUSH1 0x60 DUP9 ADD CALLDATALOAD SWAP2 POP DUP1 DUP3 GT ISZERO PUSH2 0x2CEA JUMPI PUSH1 0x0 DUP1 REVERT JUMPDEST PUSH2 0x2CF6 DUP10 DUP4 DUP11 ADD PUSH2 0x2B70 JUMP JUMPDEST SWAP4 POP PUSH1 0x80 DUP9 ADD CALLDATALOAD SWAP2 POP DUP1 DUP3 GT ISZERO PUSH2 0x2D0C JUMPI PUSH1 0x0 DUP1 REVERT JUMPDEST POP PUSH2 0x2A26 DUP9 DUP3 DUP10 ADD PUSH2 0x2BD6 JUMP JUMPDEST PUSH1 0x0 DUP1 PUSH1 0x40 DUP4 DUP6 SUB SLT ISZERO PUSH2 0x2D2C JUMPI PUSH1 0x0 DUP1 REVERT JUMPDEST DUP3 CALLDATALOAD SWAP2 POP PUSH1 0x20 DUP4 ADD CALLDATALOAD PUSH1 0x1 PUSH1 0x1 PUSH1 0x40 SHL SUB DUP2 GT ISZERO PUSH2 0x2D49 JUMPI PUSH1 0x0 DUP1 REVERT JUMPDEST PUSH2 0x27E2 DUP6 DUP3 DUP7 ADD PUSH2 0x299B JUMP JUMPDEST PUSH1 0x0 DUP1 PUSH1 0x0 PUSH1 0x60 DUP5 DUP7 SUB SLT ISZERO PUSH2 0x2D6A JUMPI PUSH1 0x0 DUP1 REVERT JUMPDEST PUSH2 0x2D73 DUP5 PUSH2 0x28AD JUMP JUMPDEST SWAP3 POP PUSH1 0x20 DUP5 ADD CALLDATALOAD SWAP2 POP PUSH1 0x40 DUP5 ADD CALLDATALOAD PUSH1 0x1 PUSH1 0x1 PUSH1 0x40 SHL SUB DUP2 GT ISZERO PUSH2 0x2D95 JUMPI PUSH1 0x0 DUP1 REVERT JUMPDEST PUSH2 0x2DA1 DUP7 DUP3 DUP8 ADD PUSH2 0x299B JUMP JUMPDEST SWAP2 POP POP SWAP3 POP SWAP3 POP SWAP3 JUMP JUMPDEST PUSH1 0x0 DUP1 PUSH1 0x40 DUP4 DUP6 SUB SLT ISZERO PUSH2 0x2DBE JUMPI PUSH1 0x0 DUP1 REVERT JUMPDEST DUP3 CALLDATALOAD PUSH1 0x1 PUSH1 0x1 PUSH1 0x40 SHL SUB DUP1 DUP3 GT ISZERO PUSH2 0x2DD5 JUMPI PUSH1 0x0 DUP1 REVERT JUMPDEST PUSH2 0x2DE1 DUP7 DUP4 DUP8 ADD PUSH2 0x271A JUMP JUMPDEST SWAP4 POP PUSH1 0x20 DUP6 ADD CALLDATALOAD SWAP2 POP DUP1 DUP3 GT ISZERO PUSH2 0x2DF7 JUMPI PUSH1 0x0 DUP1 REVERT JUMPDEST POP PUSH2 0x27E2 DUP6 DUP3 DUP7 ADD PUSH2 0x2BD6 JUMP JUMPDEST PUSH1 0x20 DUP1 DUP3 MSTORE DUP3 MLOAD DUP3 DUP3 ADD DUP2 SWAP1 MSTORE PUSH1 0x0 SWAP2 SWAP1 DUP5 DUP3 ADD SWAP1 PUSH1 0x40 DUP6 ADD SWAP1 DUP5 JUMPDEST DUP2 DUP2 LT ISZERO PUSH2 0x292F JUMPI DUP4 MLOAD DUP4 MSTORE SWAP3 DUP5 ADD SWAP3 SWAP2 DUP5 ADD SWAP2 PUSH1 0x1 ADD PUSH2 0x2E20 JUMP JUMPDEST PUSH1 0x0 DUP1 PUSH1 0x0 PUSH1 0x60 DUP5 DUP7 SUB SLT ISZERO PUSH2 0x2E51 JUMPI PUSH1 0x0 DUP1 REVERT JUMPDEST DUP4 CALLDATALOAD PUSH1 0x1 PUSH1 0x1 PUSH1 0x40 SHL SUB DUP1 DUP3 GT ISZERO PUSH2 0x2E68 JUMPI PUSH1 0x0 DUP1 REVERT JUMPDEST PUSH2 0x2E74 DUP8 DUP4 DUP9 ADD PUSH2 0x271A JUMP JUMPDEST SWAP5 POP PUSH1 0x20 DUP7 ADD CALLDATALOAD SWAP2 POP DUP1 DUP3 GT ISZERO PUSH2 0x2E8A JUMPI PUSH1 0x0 DUP1 REVERT JUMPDEST PUSH2 0x2E96 DUP8 DUP4 DUP9 ADD PUSH2 0x271A JUMP JUMPDEST SWAP4 POP PUSH1 0x40 DUP7 ADD CALLDATALOAD SWAP2 POP DUP1 DUP3 GT ISZERO PUSH2 0x2EAC JUMPI PUSH1 0x0 DUP1 REVERT JUMPDEST POP PUSH2 0x2DA1 DUP7 DUP3 DUP8 ADD PUSH2 0x2BD6 JUMP JUMPDEST PUSH1 0x0 DUP1 PUSH1 0x0 PUSH1 0x60 DUP5 DUP7 SUB SLT ISZERO PUSH2 0x2ECE JUMPI PUSH1 0x0 DUP1 REVERT JUMPDEST DUP4 CALLDATALOAD SWAP3 POP PUSH1 0x20 DUP5 ADD CALLDATALOAD SWAP2 POP PUSH1 0x40 DUP5 ADD CALLDATALOAD PUSH1 0x1 PUSH1 0x1 PUSH1 0x40 SHL SUB DUP2 GT ISZERO PUSH2 0x2D95 JUMPI PUSH1 0x0 DUP1 REVERT JUMPDEST PUSH1 0x0 DUP1 PUSH1 0x0 DUP1 PUSH1 0x80 DUP6 DUP8 SUB SLT ISZERO PUSH2 0x2F08 JUMPI PUSH1 0x0 DUP1 REVERT JUMPDEST PUSH2 0x2F11 DUP6 PUSH2 0x28AD JUMP JUMPDEST SWAP4 POP PUSH1 0x20 DUP6 ADD CALLDATALOAD SWAP3 POP PUSH2 0x2F26 PUSH1 0x40 DUP7 ADD PUSH2 0x2850 JUMP JUMPDEST SWAP2 POP PUSH1 0x60 DUP6 ADD CALLDATALOAD PUSH1 0x1 PUSH1 0x1 PUSH1 0x40 SHL SUB DUP2 GT ISZERO PUSH2 0x2F41 JUMPI PUSH1 0x0 DUP1 REVERT JUMPDEST PUSH2 0x2F4D DUP8 DUP3 DUP9 ADD PUSH2 0x299B JUMP JUMPDEST SWAP2 POP POP SWAP3 SWAP6 SWAP2 SWAP5 POP SWAP3 POP JUMP JUMPDEST PUSH1 0x0 PUSH1 0x20 DUP3 DUP5 SUB SLT ISZERO PUSH2 0x2F6B JUMPI PUSH1 0x0 DUP1 REVERT JUMPDEST DUP2 CALLDATALOAD PUSH1 0x1 PUSH1 0x1 PUSH1 0x40 SHL SUB DUP2 GT ISZERO PUSH2 0x2F81 JUMPI PUSH1 0x0 DUP1 REVERT JUMPDEST PUSH2 0x1F16 DUP5 DUP3 DUP6 ADD PUSH2 0x271A JUMP JUMPDEST PUSH1 0x1 PUSH1 0x1 PUSH1 0xE0 SHL SUB NOT SWAP2 SWAP1 SWAP2 AND DUP2 MSTORE PUSH1 0x20 ADD SWAP1 JUMP JUMPDEST DUP4 DUP6 DUP3 CALLDATACOPY PUSH1 0x60 SWAP3 SWAP1 SWAP3 SHL PUSH1 0x1 PUSH1 0x1 PUSH1 0x60 SHL SUB NOT AND SWAP2 SWAP1 SWAP3 ADD SWAP1 DUP2 MSTORE PUSH1 0x14 DUP2 ADD SWAP2 SWAP1 SWAP2 MSTORE PUSH1 0x34 ADD SWAP2 SWAP1 POP JUMP JUMPDEST PUSH1 0x0 DUP3 MLOAD PUSH2 0x2FDF DUP2 DUP5 PUSH1 0x20 DUP8 ADD PUSH2 0x264E JUMP JUMPDEST SWAP2 SWAP1 SWAP2 ADD SWAP3 SWAP2 POP POP JUMP JUMPDEST PUSH4 0x4E487B71 PUSH1 0xE0 SHL PUSH1 0x0 MSTORE PUSH1 0x32 PUSH1 0x4 MSTORE PUSH1 0x24 PUSH1 0x0 REVERT JUMPDEST SWAP2 DUP3 MSTORE PUSH1 0x1 PUSH1 0x1 PUSH1 0xA0 SHL SUB AND PUSH1 0x20 DUP3 ADD MSTORE PUSH1 0x40 ADD SWAP1 JUMP JUMPDEST PUSH1 0x1 PUSH1 0x1 PUSH1 0xC0 SHL SUB NOT DUP4 AND DUP2 MSTORE DUP2 MLOAD PUSH1 0x0 SWAP1 PUSH2 0x3039 DUP2 PUSH1 0x8 DUP6 ADD PUSH1 0x20 DUP8 ADD PUSH2 0x264E JUMP JUMPDEST SWAP2 SWAP1 SWAP2 ADD PUSH1 0x8 ADD SWAP4 SWAP3 POP POP POP JUMP JUMPDEST PUSH1 0x0 DUP1 DUP4 CALLDATALOAD PUSH1 0x1E NOT DUP5 CALLDATASIZE SUB ADD DUP2 SLT PUSH2 0x305E JUMPI PUSH1 0x0 DUP1 REVERT JUMPDEST DUP4 ADD DUP1 CALLDATALOAD SWAP2 POP PUSH1 0x1 PUSH1 0x1 PUSH1 0x40 SHL SUB DUP3 GT ISZERO PUSH2 0x3078 JUMPI PUSH1 0x0 DUP1 REVERT JUMPDEST PUSH1 0x20 ADD SWAP2 POP CALLDATASIZE DUP2 SWAP1 SUB DUP3 SGT ISZERO PUSH2 0x308D JUMPI PUSH1 0x0 DUP1 REVERT JUMPDEST SWAP3 POP SWAP3 SWAP1 POP JUMP JUMPDEST DUP2 DUP4 DUP3 CALLDATACOPY PUSH1 0x0 SWAP2 ADD SWAP1 DUP2 MSTORE SWAP2 SWAP1 POP JUMP JUMPDEST PUSH1 0x1 PUSH1 0x1 PUSH1 0xA0 SHL SUB SWAP4 DUP5 AND DUP2 MSTORE PUSH1 0x20 DUP2 ADD SWAP3 SWAP1 SWAP3 MSTORE SWAP1 SWAP2 AND PUSH1 0x40 DUP3 ADD MSTORE PUSH1 0x60 ADD SWAP1 JUMP JUMPDEST PUSH1 0x1 PUSH1 0x1 PUSH1 0xA0 SHL SUB SWAP3 SWAP1 SWAP3 AND DUP3 MSTORE PUSH1 0x20 DUP3 ADD MSTORE PUSH1 0x40 ADD SWAP1 JUMP JUMPDEST PUSH1 0x1 DUP1 PUSH1 0xA0 SHL SUB DUP6 AND DUP2 MSTORE DUP4 PUSH1 0x20 DUP3 ADD MSTORE DUP3 ISZERO ISZERO PUSH1 0x40 DUP3 ADD MSTORE PUSH1 0x80 PUSH1 0x60 DUP3 ADD MSTORE PUSH1 0x0 PUSH2 0x310F PUSH1 0x80 DUP4 ADD DUP5 PUSH2 0x2672 JUMP JUMPDEST SWAP7 SWAP6 POP POP POP POP POP POP JUMP JUMPDEST PUSH1 0x20 DUP1 DUP3 MSTORE PUSH1 0x16 SWAP1 DUP3 ADD MSTORE PUSH22 0x135A5B9D1A5B99C81A5CC81B9BDD08195B98589B1959 PUSH1 0x52 SHL PUSH1 0x40 DUP3 ADD MSTORE PUSH1 0x60 ADD SWAP1 JUMP JUMPDEST PUSH4 0x4E487B71 PUSH1 0xE0 SHL PUSH1 0x0 MSTORE PUSH1 0x11 PUSH1 0x4 MSTORE PUSH1 0x24 PUSH1 0x0 REVERT JUMPDEST DUP1 DUP3 ADD DUP1 DUP3 GT ISZERO PUSH2 0x7B5 JUMPI PUSH2 0x7B5 PUSH2 0x3149 JUMP JUMPDEST DUP1 DUP3 MUL DUP2 ISZERO DUP3 DUP3 DIV DUP5 EQ OR PUSH2 0x7B5 JUMPI PUSH2 0x7B5 PUSH2 0x3149 JUMP JUMPDEST PUSH1 0x0 PUSH1 0x1 DUP3 ADD PUSH2 0x319B JUMPI PUSH2 0x319B PUSH2 0x3149 JUMP JUMPDEST POP PUSH1 0x1 ADD SWAP1 JUMP JUMPDEST DUP1 MLOAD PUSH1 0x20 DUP3 ADD MLOAD PUSH1 0x1 PUSH1 0x1 PUSH1 0x60 SHL SUB NOT DUP1 DUP3 AND SWAP3 SWAP2 SWAP1 PUSH1 0x14 DUP4 LT ISZERO PUSH2 0x31D1 JUMPI DUP1 DUP2 DUP5 PUSH1 0x14 SUB PUSH1 0x3 SHL SHL DUP4 AND AND SWAP4 POP JUMPDEST POP POP POP SWAP2 SWAP1 POP JUMP JUMPDEST PUSH1 0x1 DUP2 DUP2 SHR SWAP1 DUP3 AND DUP1 PUSH2 0x31ED JUMPI PUSH1 0x7F DUP3 AND SWAP2 POP JUMPDEST PUSH1 0x20 DUP3 LT DUP2 SUB PUSH2 0x14F0 JUMPI PUSH4 0x4E487B71 PUSH1 0xE0 SHL PUSH1 0x0 MSTORE PUSH1 0x22 PUSH1 0x4 MSTORE PUSH1 0x24 PUSH1 0x0 REVERT JUMPDEST PUSH1 0x1 PUSH1 0x1 PUSH1 0xA0 SHL SUB DUP5 AND DUP2 MSTORE DUP3 ISZERO ISZERO PUSH1 0x20 DUP3 ADD MSTORE PUSH1 0x60 PUSH1 0x40 DUP3 ADD DUP2 SWAP1 MSTORE PUSH1 0x0 SWAP1 PUSH2 0x3239 SWAP1 DUP4 ADD DUP5 PUSH2 0x2672 JUMP JUMPDEST SWAP6 SWAP5 POP POP POP POP POP JUMP JUMPDEST PUSH1 0x1 PUSH1 0x1 PUSH1 0xA0 SHL SUB DUP7 DUP2 AND DUP3 MSTORE DUP6 DUP2 AND PUSH1 0x20 DUP4 ADD MSTORE DUP5 AND PUSH1 0x40 DUP3 ADD MSTORE PUSH1 0x60 DUP2 ADD DUP4 SWAP1 MSTORE PUSH1 0xA0 PUSH1 0x80 DUP3 ADD DUP2 SWAP1 MSTORE PUSH1 0x0 SWAP1 PUSH2 0x1FCB SWAP1 DUP4 ADD DUP5 PUSH2 0x2672 JUMP JUMPDEST PUSH1 0x1F DUP3 GT ISZERO PUSH2 0x1031 JUMPI PUSH1 0x0 DUP2 PUSH1 0x0 MSTORE PUSH1 0x20 PUSH1 0x0 KECCAK256 PUSH1 0x1F DUP6 ADD PUSH1 0x5 SHR DUP2 ADD PUSH1 0x20 DUP7 LT ISZERO PUSH2 0x32A6 JUMPI POP DUP1 JUMPDEST PUSH1 0x1F DUP6 ADD PUSH1 0x5 SHR DUP3 ADD SWAP2 POP JUMPDEST DUP2 DUP2 LT ISZERO PUSH2 0xDE1 JUMPI DUP3 DUP2 SSTORE PUSH1 0x1 ADD PUSH2 0x32B2 JUMP JUMPDEST DUP2 MLOAD PUSH1 0x1 PUSH1 0x1 PUSH1 0x40 SHL SUB DUP2 GT ISZERO PUSH2 0x32DE JUMPI PUSH2 0x32DE PUSH2 0x26B1 JUMP JUMPDEST PUSH2 0x32F2 DUP2 PUSH2 0x32EC DUP5 SLOAD PUSH2 0x31D9 JUMP JUMPDEST DUP5 PUSH2 0x327D JUMP JUMPDEST PUSH1 0x20 DUP1 PUSH1 0x1F DUP4 GT PUSH1 0x1 DUP2 EQ PUSH2 0x3327 JUMPI PUSH1 0x0 DUP5 ISZERO PUSH2 0x330F JUMPI POP DUP6 DUP4 ADD MLOAD JUMPDEST PUSH1 0x0 NOT PUSH1 0x3 DUP7 SWAP1 SHL SHR NOT AND PUSH1 0x1 DUP6 SWAP1 SHL OR DUP6 SSTORE PUSH2 0xDE1 JUMP JUMPDEST PUSH1 0x0 DUP6 DUP2 MSTORE PUSH1 0x20 DUP2 KECCAK256 PUSH1 0x1F NOT DUP7 AND SWAP2 JUMPDEST DUP3 DUP2 LT ISZERO PUSH2 0x3356 JUMPI DUP9 DUP7 ADD MLOAD DUP3 SSTORE SWAP5 DUP5 ADD SWAP5 PUSH1 0x1 SWAP1 SWAP2 ADD SWAP1 DUP5 ADD PUSH2 0x3337 JUMP JUMPDEST POP DUP6 DUP3 LT ISZERO PUSH2 0x3374 JUMPI DUP8 DUP6 ADD MLOAD PUSH1 0x0 NOT PUSH1 0x3 DUP9 SWAP1 SHL PUSH1 0xF8 AND SHR NOT AND DUP2 SSTORE JUMPDEST POP POP POP POP POP PUSH1 0x1 SWAP1 DUP2 SHL ADD SWAP1 SSTORE POP JUMP JUMPDEST PUSH1 0x0 DUP2 PUSH2 0x3393 JUMPI PUSH2 0x3393 PUSH2 0x3149 JUMP JUMPDEST POP PUSH1 0x0 NOT ADD SWAP1 JUMP JUMPDEST DUP3 ISZERO ISZERO DUP2 MSTORE PUSH1 0x40 PUSH1 0x20 DUP3 ADD MSTORE PUSH1 0x0 PUSH2 0x1F16 PUSH1 0x40 DUP4 ADD DUP5 PUSH2 0x2672 JUMP JUMPDEST DUP1 MLOAD PUSH1 0x20 DUP1 DUP4 ADD MLOAD SWAP2 SWAP1 DUP2 LT ISZERO PUSH2 0x14F0 JUMPI PUSH1 0x0 NOT PUSH1 0x20 SWAP2 SWAP1 SWAP2 SUB PUSH1 0x3 SHL SHL AND SWAP2 SWAP1 POP JUMP JUMPDEST DUP3 DUP2 MSTORE PUSH1 0x40 PUSH1 0x20 DUP3 ADD MSTORE PUSH1 0x0 PUSH2 0x1F16 PUSH1 0x40 DUP4 ADD DUP5 PUSH2 0x2672 JUMP JUMPDEST PUSH1 0x0 PUSH1 0x20 DUP3 DUP5 SUB SLT ISZERO PUSH2 0x3405 JUMPI PUSH1 0x0 DUP1 REVERT JUMPDEST DUP2 MLOAD PUSH1 0x1 PUSH1 0x1 PUSH1 0x40 SHL SUB DUP2 GT ISZERO PUSH2 0x341B JUMPI PUSH1 0x0 DUP1 REVERT JUMPDEST DUP3 ADD PUSH1 0x1F DUP2 ADD DUP5 SGT PUSH2 0x342C JUMPI PUSH1 0x0 DUP1 REVERT JUMPDEST DUP1 MLOAD PUSH2 0x343A PUSH2 0x273B DUP3 PUSH2 0x293B JUMP JUMPDEST DUP2 DUP2 MSTORE DUP6 PUSH1 0x20 DUP4 DUP6 ADD ADD GT ISZERO PUSH2 0x344F JUMPI PUSH1 0x0 DUP1 REVERT JUMPDEST PUSH2 0x3239 DUP3 PUSH1 0x20 DUP4 ADD PUSH1 0x20 DUP7 ADD PUSH2 0x264E JUMP JUMPDEST DUP2 DUP2 SUB DUP2 DUP2 GT ISZERO PUSH2 0x7B5 JUMPI PUSH2 0x7B5 PUSH2 0x3149 JUMP JUMPDEST PUSH4 0x4E487B71 PUSH1 0xE0 SHL PUSH1 0x0 MSTORE PUSH1 0x31 PUSH1 0x4 MSTORE PUSH1 0x24 PUSH1 0x0 REVERT INVALID 0xB3 CALLER 0xC8 SGT 0xA7 TIMESTAMP PUSH11 0x7A11E2B190CAD52C441194 0x21 MSIZE 0x4B SELFBALANCE 0xF6 RETURN 0x2A 0xCE PUSH14 0x8C7207B2BFA26469706673582212 KECCAK256 0xD 0xC8 CREATE2 0xD7 BASEFEE 0xC3 MCOPY PUSH15 0xFE5438D86D444FCF51906FEFAB6324 SMOD ISZERO DUP7 0xE2 DUP4 PUSH5 0xB0A8396473 PUSH16 0x6C634300081800330000000000000000 "},"methodIdentifiers":{"CHILLPRICE()":"d0530ab0","MAX_MINTABLE()":"3f879faf","MAX_SUPPLY()":"32cb6b0c","PRICE()":"8d859f3e","TEAM_RESERVE()":"e5408eae","authorizeOperator(address,bytes32,bytes)":"86a10ddd","balanceOf(address)":"70a08231","batchCalls(bytes[])":"6963d438","burn(bytes32[],bytes[])":"c60be179","chillMint(uint256)":"95805794","getData(bytes32)":"54f6127f","getDataBatch(bytes32[])":"dedff9c6","getDataBatchForTokenIds(bytes32[],bytes32[])":"1d26fce6","getDataForTokenId(bytes32,bytes32)":"16e023b3","getOperatorsOf(bytes32)":"49a6078d","isOperatorFor(address,bytes32)":"2a3654a4","mint(uint256)":"a0712d68","mintOpen()":"24bbd049","mintTeamsAllocation(address)":"dda3c4b8","owner()":"8da5cb5b","renounceOwnership()":"715018a6","revokeOperator(address,bytes32,bool,bytes)":"db8c9663","setBaseURI(string)":"55f804b3","setData(bytes32,bytes)":"7f23690c","setDataBatch(bytes32[],bytes[])":"97902421","setDataBatchForTokenIds(bytes32[],bytes32[],bytes[])":"be9f0e6f","setDataForTokenId(bytes32,bytes32,bytes)":"d6c1407c","setMintStatus(bool)":"1f85e3ca","supportsInterface(bytes4)":"01ffc9a7","tokenAt(uint256)":"92a91a3a","tokenIdsOf(address)":"a3b261f2","tokenOwnerOf(bytes32)":"217b2270","totalSupply()":"18160ddd","transfer(address,address,bytes32,bool,bytes)":"511b6952","transferBatch(address[],address[],bytes32[],bool[],bytes[])":"7e87632c","transferOwnership(address)":"f2fde38b","withdraw()":"3ccfd60b"}}}}}