{
  "_format": "hh-sol-artifact-1",
  "contractName": "BurntPunX",
  "sourceName": "contracts/BurntPunX.sol",
  "abi": [
    {
      "inputs": [],
      "stateMutability": "nonpayable",
      "type": "constructor"
    },
    {
      "inputs": [
        {
          "internalType": "uint256",
          "name": "_amount",
          "type": "uint256"
        }
      ],
      "name": "BPunxMintingLimitExceeded",
      "type": "error"
    },
    {
      "inputs": [
        {
          "internalType": "uint256",
          "name": "_amount",
          "type": "uint256"
        }
      ],
      "name": "BPunxMintingPriceNotMet",
      "type": "error"
    },
    {
      "inputs": [],
      "name": "ERC725Y_DataKeysValuesEmptyArray",
      "type": "error"
    },
    {
      "inputs": [],
      "name": "ERC725Y_DataKeysValuesLengthMismatch",
      "type": "error"
    },
    {
      "inputs": [],
      "name": "ERC725Y_MsgValueDisallowed",
      "type": "error"
    },
    {
      "inputs": [
        {
          "internalType": "bytes",
          "name": "storedData",
          "type": "bytes"
        }
      ],
      "name": "InvalidExtensionAddress",
      "type": "error"
    },
    {
      "inputs": [
        {
          "internalType": "bytes",
          "name": "data",
          "type": "bytes"
        }
      ],
      "name": "InvalidFunctionSelector",
      "type": "error"
    },
    {
      "inputs": [],
      "name": "LSP4TokenNameNotEditable",
      "type": "error"
    },
    {
      "inputs": [],
      "name": "LSP4TokenSymbolNotEditable",
      "type": "error"
    },
    {
      "inputs": [],
      "name": "LSP4TokenTypeNotEditable",
      "type": "error"
    },
    {
      "inputs": [
        {
          "internalType": "uint256",
          "name": "callIndex",
          "type": "uint256"
        }
      ],
      "name": "LSP8BatchCallFailed",
      "type": "error"
    },
    {
      "inputs": [],
      "name": "LSP8CannotSendToAddressZero",
      "type": "error"
    },
    {
      "inputs": [],
      "name": "LSP8CannotSendToSelf",
      "type": "error"
    },
    {
      "inputs": [],
      "name": "LSP8CannotUseAddressZeroAsOperator",
      "type": "error"
    },
    {
      "inputs": [],
      "name": "LSP8InvalidTransferBatch",
      "type": "error"
    },
    {
      "inputs": [
        {
          "internalType": "bytes32",
          "name": "tokenId",
          "type": "bytes32"
        }
      ],
      "name": "LSP8NonExistentTokenId",
      "type": "error"
    },
    {
      "inputs": [
        {
          "internalType": "address",
          "name": "operator",
          "type": "address"
        },
        {
          "internalType": "bytes32",
          "name": "tokenId",
          "type": "bytes32"
        }
      ],
      "name": "LSP8NonExistingOperator",
      "type": "error"
    },
    {
      "inputs": [
        {
          "internalType": "bytes32",
          "name": "tokenId",
          "type": "bytes32"
        },
        {
          "internalType": "address",
          "name": "caller",
          "type": "address"
        }
      ],
      "name": "LSP8NotTokenOperator",
      "type": "error"
    },
    {
      "inputs": [
        {
          "internalType": "address",
          "name": "tokenOwner",
          "type": "address"
        },
        {
          "internalType": "bytes32",
          "name": "tokenId",
          "type": "bytes32"
        },
        {
          "internalType": "address",
          "name": "caller",
          "type": "address"
        }
      ],
      "name": "LSP8NotTokenOwner",
      "type": "error"
    },
    {
      "inputs": [
        {
          "internalType": "address",
          "name": "tokenReceiver",
          "type": "address"
        }
      ],
      "name": "LSP8NotifyTokenReceiverContractMissingLSP1Interface",
      "type": "error"
    },
    {
      "inputs": [
        {
          "internalType": "address",
          "name": "tokenReceiver",
          "type": "address"
        }
      ],
      "name": "LSP8NotifyTokenReceiverIsEOA",
      "type": "error"
    },
    {
      "inputs": [
        {
          "internalType": "address",
          "name": "operator",
          "type": "address"
        },
        {
          "internalType": "bytes32",
          "name": "tokenId",
          "type": "bytes32"
        }
      ],
      "name": "LSP8OperatorAlreadyAuthorized",
      "type": "error"
    },
    {
      "inputs": [],
      "name": "LSP8TokenContractCannotHoldValue",
      "type": "error"
    },
    {
      "inputs": [
        {
          "internalType": "bytes32",
          "name": "tokenId",
          "type": "bytes32"
        }
      ],
      "name": "LSP8TokenIdAlreadyMinted",
      "type": "error"
    },
    {
      "inputs": [],
      "name": "LSP8TokenIdFormatNotEditable",
      "type": "error"
    },
    {
      "inputs": [],
      "name": "LSP8TokenIdsDataEmptyArray",
      "type": "error"
    },
    {
      "inputs": [],
      "name": "LSP8TokenIdsDataLengthMismatch",
      "type": "error"
    },
    {
      "inputs": [],
      "name": "LSP8TokenOwnerCannotBeOperator",
      "type": "error"
    },
    {
      "inputs": [
        {
          "internalType": "bytes4",
          "name": "functionSelector",
          "type": "bytes4"
        }
      ],
      "name": "NoExtensionFoundForFunctionSelector",
      "type": "error"
    },
    {
      "inputs": [
        {
          "internalType": "address",
          "name": "callerAddress",
          "type": "address"
        }
      ],
      "name": "OwnableCallerNotTheOwner",
      "type": "error"
    },
    {
      "inputs": [],
      "name": "OwnableCannotSetZeroAddressAsOwner",
      "type": "error"
    },
    {
      "inputs": [],
      "name": "ReentrancyGuardReentrantCall",
      "type": "error"
    },
    {
      "inputs": [],
      "name": "Unauthorized",
      "type": "error"
    },
    {
      "anonymous": false,
      "inputs": [
        {
          "indexed": true,
          "internalType": "bytes32",
          "name": "dataKey",
          "type": "bytes32"
        },
        {
          "indexed": false,
          "internalType": "bytes",
          "name": "dataValue",
          "type": "bytes"
        }
      ],
      "name": "DataChanged",
      "type": "event"
    },
    {
      "anonymous": false,
      "inputs": [
        {
          "indexed": true,
          "internalType": "address",
          "name": "operator",
          "type": "address"
        },
        {
          "indexed": true,
          "internalType": "address",
          "name": "tokenOwner",
          "type": "address"
        },
        {
          "indexed": true,
          "internalType": "bytes32",
          "name": "tokenId",
          "type": "bytes32"
        },
        {
          "indexed": false,
          "internalType": "bytes",
          "name": "operatorNotificationData",
          "type": "bytes"
        }
      ],
      "name": "OperatorAuthorizationChanged",
      "type": "event"
    },
    {
      "anonymous": false,
      "inputs": [
        {
          "indexed": true,
          "internalType": "address",
          "name": "operator",
          "type": "address"
        },
        {
          "indexed": true,
          "internalType": "address",
          "name": "tokenOwner",
          "type": "address"
        },
        {
          "indexed": true,
          "internalType": "bytes32",
          "name": "tokenId",
          "type": "bytes32"
        },
        {
          "indexed": false,
          "internalType": "bool",
          "name": "notified",
          "type": "bool"
        },
        {
          "indexed": false,
          "internalType": "bytes",
          "name": "operatorNotificationData",
          "type": "bytes"
        }
      ],
      "name": "OperatorRevoked",
      "type": "event"
    },
    {
      "anonymous": false,
      "inputs": [
        {
          "indexed": true,
          "internalType": "address",
          "name": "previousOwner",
          "type": "address"
        },
        {
          "indexed": true,
          "internalType": "address",
          "name": "newOwner",
          "type": "address"
        }
      ],
      "name": "OwnershipTransferred",
      "type": "event"
    },
    {
      "anonymous": false,
      "inputs": [
        {
          "indexed": true,
          "internalType": "bytes32",
          "name": "tokenId",
          "type": "bytes32"
        },
        {
          "indexed": true,
          "internalType": "bytes32",
          "name": "dataKey",
          "type": "bytes32"
        },
        {
          "indexed": false,
          "internalType": "bytes",
          "name": "dataValue",
          "type": "bytes"
        }
      ],
      "name": "TokenIdDataChanged",
      "type": "event"
    },
    {
      "anonymous": false,
      "inputs": [
        {
          "indexed": false,
          "internalType": "address",
          "name": "operator",
          "type": "address"
        },
        {
          "indexed": true,
          "internalType": "address",
          "name": "from",
          "type": "address"
        },
        {
          "indexed": true,
          "internalType": "address",
          "name": "to",
          "type": "address"
        },
        {
          "indexed": true,
          "internalType": "bytes32",
          "name": "tokenId",
          "type": "bytes32"
        },
        {
          "indexed": false,
          "internalType": "bool",
          "name": "force",
          "type": "bool"
        },
        {
          "indexed": false,
          "internalType": "bytes",
          "name": "data",
          "type": "bytes"
        }
      ],
      "name": "Transfer",
      "type": "event"
    },
    {
      "stateMutability": "payable",
      "type": "fallback"
    },
    {
      "inputs": [],
      "name": "MAX_MINTABLE",
      "outputs": [
        {
          "internalType": "uint256",
          "name": "",
          "type": "uint256"
        }
      ],
      "stateMutability": "view",
      "type": "function"
    },
    {
      "inputs": [],
      "name": "MAX_SUPPLY",
      "outputs": [
        {
          "internalType": "uint256",
          "name": "",
          "type": "uint256"
        }
      ],
      "stateMutability": "view",
      "type": "function"
    },
    {
      "inputs": [],
      "name": "PRICE",
      "outputs": [
        {
          "internalType": "uint256",
          "name": "",
          "type": "uint256"
        }
      ],
      "stateMutability": "view",
      "type": "function"
    },
    {
      "inputs": [],
      "name": "TEAM_RESERVE",
      "outputs": [
        {
          "internalType": "uint256",
          "name": "",
          "type": "uint256"
        }
      ],
      "stateMutability": "view",
      "type": "function"
    },
    {
      "inputs": [
        {
          "internalType": "address",
          "name": "operator",
          "type": "address"
        },
        {
          "internalType": "bytes32",
          "name": "tokenId",
          "type": "bytes32"
        },
        {
          "internalType": "bytes",
          "name": "operatorNotificationData",
          "type": "bytes"
        }
      ],
      "name": "authorizeOperator",
      "outputs": [],
      "stateMutability": "nonpayable",
      "type": "function"
    },
    {
      "inputs": [],
      "name": "authorizedAgent",
      "outputs": [
        {
          "internalType": "address",
          "name": "",
          "type": "address"
        }
      ],
      "stateMutability": "view",
      "type": "function"
    },
    {
      "inputs": [
        {
          "internalType": "address",
          "name": "tokenOwner",
          "type": "address"
        }
      ],
      "name": "balanceOf",
      "outputs": [
        {
          "internalType": "uint256",
          "name": "",
          "type": "uint256"
        }
      ],
      "stateMutability": "view",
      "type": "function"
    },
    {
      "inputs": [
        {
          "internalType": "bytes[]",
          "name": "data",
          "type": "bytes[]"
        }
      ],
      "name": "batchCalls",
      "outputs": [
        {
          "internalType": "bytes[]",
          "name": "results",
          "type": "bytes[]"
        }
      ],
      "stateMutability": "nonpayable",
      "type": "function"
    },
    {
      "inputs": [
        {
          "internalType": "bytes32",
          "name": "dataKey",
          "type": "bytes32"
        }
      ],
      "name": "getData",
      "outputs": [
        {
          "internalType": "bytes",
          "name": "dataValue",
          "type": "bytes"
        }
      ],
      "stateMutability": "view",
      "type": "function"
    },
    {
      "inputs": [
        {
          "internalType": "bytes32[]",
          "name": "dataKeys",
          "type": "bytes32[]"
        }
      ],
      "name": "getDataBatch",
      "outputs": [
        {
          "internalType": "bytes[]",
          "name": "dataValues",
          "type": "bytes[]"
        }
      ],
      "stateMutability": "view",
      "type": "function"
    },
    {
      "inputs": [
        {
          "internalType": "bytes32[]",
          "name": "tokenIds",
          "type": "bytes32[]"
        },
        {
          "internalType": "bytes32[]",
          "name": "dataKeys",
          "type": "bytes32[]"
        }
      ],
      "name": "getDataBatchForTokenIds",
      "outputs": [
        {
          "internalType": "bytes[]",
          "name": "dataValues",
          "type": "bytes[]"
        }
      ],
      "stateMutability": "view",
      "type": "function"
    },
    {
      "inputs": [
        {
          "internalType": "bytes32",
          "name": "tokenId",
          "type": "bytes32"
        },
        {
          "internalType": "bytes32",
          "name": "dataKey",
          "type": "bytes32"
        }
      ],
      "name": "getDataForTokenId",
      "outputs": [
        {
          "internalType": "bytes",
          "name": "dataValue",
          "type": "bytes"
        }
      ],
      "stateMutability": "view",
      "type": "function"
    },
    {
      "inputs": [
        {
          "internalType": "bytes32",
          "name": "tokenId",
          "type": "bytes32"
        }
      ],
      "name": "getOperatorsOf",
      "outputs": [
        {
          "internalType": "address[]",
          "name": "",
          "type": "address[]"
        }
      ],
      "stateMutability": "view",
      "type": "function"
    },
    {
      "inputs": [
        {
          "internalType": "address",
          "name": "operator",
          "type": "address"
        },
        {
          "internalType": "bytes32",
          "name": "tokenId",
          "type": "bytes32"
        }
      ],
      "name": "isOperatorFor",
      "outputs": [
        {
          "internalType": "bool",
          "name": "",
          "type": "bool"
        }
      ],
      "stateMutability": "view",
      "type": "function"
    },
    {
      "inputs": [
        {
          "internalType": "uint256",
          "name": "_amount",
          "type": "uint256"
        },
        {
          "internalType": "address",
          "name": "to",
          "type": "address"
        }
      ],
      "name": "mint",
      "outputs": [],
      "stateMutability": "payable",
      "type": "function"
    },
    {
      "inputs": [],
      "name": "mintOpen",
      "outputs": [
        {
          "internalType": "bool",
          "name": "",
          "type": "bool"
        }
      ],
      "stateMutability": "view",
      "type": "function"
    },
    {
      "inputs": [
        {
          "internalType": "address",
          "name": "_receiver",
          "type": "address"
        }
      ],
      "name": "mintTeamsAllocation",
      "outputs": [],
      "stateMutability": "nonpayable",
      "type": "function"
    },
    {
      "inputs": [],
      "name": "owner",
      "outputs": [
        {
          "internalType": "address",
          "name": "",
          "type": "address"
        }
      ],
      "stateMutability": "view",
      "type": "function"
    },
    {
      "inputs": [],
      "name": "renounceOwnership",
      "outputs": [],
      "stateMutability": "nonpayable",
      "type": "function"
    },
    {
      "inputs": [
        {
          "internalType": "address",
          "name": "operator",
          "type": "address"
        },
        {
          "internalType": "bytes32",
          "name": "tokenId",
          "type": "bytes32"
        },
        {
          "internalType": "bool",
          "name": "notify",
          "type": "bool"
        },
        {
          "internalType": "bytes",
          "name": "operatorNotificationData",
          "type": "bytes"
        }
      ],
      "name": "revokeOperator",
      "outputs": [],
      "stateMutability": "nonpayable",
      "type": "function"
    },
    {
      "inputs": [
        {
          "internalType": "address",
          "name": "_authorizedAgent",
          "type": "address"
        }
      ],
      "name": "setAuthorizedAgent",
      "outputs": [],
      "stateMutability": "nonpayable",
      "type": "function"
    },
    {
      "inputs": [
        {
          "internalType": "string",
          "name": "_baseURI",
          "type": "string"
        }
      ],
      "name": "setBaseURI",
      "outputs": [],
      "stateMutability": "nonpayable",
      "type": "function"
    },
    {
      "inputs": [
        {
          "internalType": "bytes32",
          "name": "dataKey",
          "type": "bytes32"
        },
        {
          "internalType": "bytes",
          "name": "dataValue",
          "type": "bytes"
        }
      ],
      "name": "setData",
      "outputs": [],
      "stateMutability": "payable",
      "type": "function"
    },
    {
      "inputs": [
        {
          "internalType": "bytes32[]",
          "name": "dataKeys",
          "type": "bytes32[]"
        },
        {
          "internalType": "bytes[]",
          "name": "dataValues",
          "type": "bytes[]"
        }
      ],
      "name": "setDataBatch",
      "outputs": [],
      "stateMutability": "payable",
      "type": "function"
    },
    {
      "inputs": [
        {
          "internalType": "bytes32[]",
          "name": "tokenIds",
          "type": "bytes32[]"
        },
        {
          "internalType": "bytes32[]",
          "name": "dataKeys",
          "type": "bytes32[]"
        },
        {
          "internalType": "bytes[]",
          "name": "dataValues",
          "type": "bytes[]"
        }
      ],
      "name": "setDataBatchForTokenIds",
      "outputs": [],
      "stateMutability": "nonpayable",
      "type": "function"
    },
    {
      "inputs": [
        {
          "internalType": "bytes32",
          "name": "tokenId",
          "type": "bytes32"
        },
        {
          "internalType": "bytes32",
          "name": "dataKey",
          "type": "bytes32"
        },
        {
          "internalType": "bytes",
          "name": "dataValue",
          "type": "bytes"
        }
      ],
      "name": "setDataForTokenId",
      "outputs": [],
      "stateMutability": "nonpayable",
      "type": "function"
    },
    {
      "inputs": [
        {
          "internalType": "bool",
          "name": "_mintOpen",
          "type": "bool"
        }
      ],
      "name": "setMintStatus",
      "outputs": [],
      "stateMutability": "nonpayable",
      "type": "function"
    },
    {
      "inputs": [
        {
          "internalType": "bytes4",
          "name": "interfaceId",
          "type": "bytes4"
        }
      ],
      "name": "supportsInterface",
      "outputs": [
        {
          "internalType": "bool",
          "name": "",
          "type": "bool"
        }
      ],
      "stateMutability": "view",
      "type": "function"
    },
    {
      "inputs": [
        {
          "internalType": "address",
          "name": "tokenOwner",
          "type": "address"
        }
      ],
      "name": "tokenIdsOf",
      "outputs": [
        {
          "internalType": "bytes32[]",
          "name": "",
          "type": "bytes32[]"
        }
      ],
      "stateMutability": "view",
      "type": "function"
    },
    {
      "inputs": [
        {
          "internalType": "bytes32",
          "name": "tokenId",
          "type": "bytes32"
        }
      ],
      "name": "tokenOwnerOf",
      "outputs": [
        {
          "internalType": "address",
          "name": "",
          "type": "address"
        }
      ],
      "stateMutability": "view",
      "type": "function"
    },
    {
      "inputs": [],
      "name": "tokenSupplyCap",
      "outputs": [
        {
          "internalType": "uint256",
          "name": "",
          "type": "uint256"
        }
      ],
      "stateMutability": "view",
      "type": "function"
    },
    {
      "inputs": [],
      "name": "totalSupply",
      "outputs": [
        {
          "internalType": "uint256",
          "name": "",
          "type": "uint256"
        }
      ],
      "stateMutability": "view",
      "type": "function"
    },
    {
      "inputs": [
        {
          "internalType": "address",
          "name": "from",
          "type": "address"
        },
        {
          "internalType": "address",
          "name": "to",
          "type": "address"
        },
        {
          "internalType": "bytes32",
          "name": "tokenId",
          "type": "bytes32"
        },
        {
          "internalType": "bool",
          "name": "force",
          "type": "bool"
        },
        {
          "internalType": "bytes",
          "name": "data",
          "type": "bytes"
        }
      ],
      "name": "transfer",
      "outputs": [],
      "stateMutability": "nonpayable",
      "type": "function"
    },
    {
      "inputs": [
        {
          "internalType": "address[]",
          "name": "from",
          "type": "address[]"
        },
        {
          "internalType": "address[]",
          "name": "to",
          "type": "address[]"
        },
        {
          "internalType": "bytes32[]",
          "name": "tokenId",
          "type": "bytes32[]"
        },
        {
          "internalType": "bool[]",
          "name": "force",
          "type": "bool[]"
        },
        {
          "internalType": "bytes[]",
          "name": "data",
          "type": "bytes[]"
        }
      ],
      "name": "transferBatch",
      "outputs": [],
      "stateMutability": "nonpayable",
      "type": "function"
    },
    {
      "inputs": [
        {
          "internalType": "address",
          "name": "newOwner",
          "type": "address"
        }
      ],
      "name": "transferOwnership",
      "outputs": [],
      "stateMutability": "nonpayable",
      "type": "function"
    },
    {
      "stateMutability": "payable",
      "type": "receive"
    }
  ],
  "bytecode": "0x6080604052600880546001600160a81b03191690553480156200002157600080fd5b50604080518082018252600a815269084eae4dce840a0eadcb60b31b60208083019190915282518084019093526005835264084a0aa9cb60db1b9083015290336001600084848484818062000089576040516306b620db60e21b815260040160405180910390fd5b6200009481620001ed565b506040805180820190915260048152632936598960e21b6020820152620000dd907feafec4d89fa9619884b60000a4d96624a38f7ac2d8d9a604ecf07c12c77e480c906200025b565b620001097fdeba1e292f8ba88238e10ab3c7f88bd4be4fac56cad5194b6ecceaf653468af1856200025b565b620001357f2f0a68ab07768e01943a599e73362a0e17a63a72e94dd2e384d2c1d4db932756846200025b565b60408051602081018390526200017e917fe0261fa95db2eb3b5439bd033cda66d56b96f92f243a8228fd87550ed7bdfdb3910160408051601f198184030181529190526200025b565b50506040805160208101859052620001cb93507ff675e9361af1c1664c1868cfa3eb97672d6b1a513aa5b81dec34c9ee330e818d92500160408051601f19818403018152919052620002b4565b505060016007555050600880546001600160a01b03191633179055506200054b565b6000546001600160a01b038281169116146200025857600080546040516001600160a01b03808516939216917f8be0079c531659141344cd1fd0a4f28419497f9722a3daafe3b4186f6b6457e091a3600080546001600160a01b0319166001600160a01b0383161790555b50565b60008281526001602052604090206200027582826200042e565b50817fece574603820d07bc9b91f2a932baadf4628aabcb8afba49776529c14a6104b282604051620002a89190620004fa565b60405180910390a25050565b620002c08282620002c4565b5050565b7f2145e1d6d074577dc71ef54c3807742b41b053a9352ae6b491331509acb9750f820162000305576040516385c169bd60e01b815260040160405180910390fd5b7fd0f59754f88971fe6bc5a6618cc9d5f1e859c58d16b22d1c7b2d3e2b246cd8aa82016200034657604051630eceab6760e31b815260040160405180910390fd5b7f1fd9e056a24d14c4abc642fcc325992a946906d0dbc57dd70278aaf12842024d82016200025b57604051634ef6d7fb60e01b815260040160405180910390fd5b634e487b7160e01b600052604160045260246000fd5b600181811c90821680620003b257607f821691505b602082108103620003d357634e487b7160e01b600052602260045260246000fd5b50919050565b601f82111562000429576000816000526020600020601f850160051c81016020861015620004045750805b601f850160051c820191505b81811015620004255782815560010162000410565b5050505b505050565b81516001600160401b038111156200044a576200044a62000387565b62000462816200045b84546200039d565b84620003d9565b602080601f8311600181146200049a5760008415620004815750858301515b600019600386901b1c1916600185901b17855562000425565b600085815260208120601f198616915b82811015620004cb57888601518255948401946001909101908401620004aa565b5085821015620004ea5787850151600019600388901b60f8161c191681555b5050505050600190811b01905550565b60006020808352835180602085015260005b818110156200052a578581018301518582016040015282016200050c565b506000604082860101526040601f19601f8301168501019250505092915050565b61310e806200055b6000396000f3fe6080604052600436106101985760003560e01c806301ffc9a71461023457806316e023b31461026957806318160ddd146102965780631d26fce6146102b55780631f85e3ca146102e2578063217b22701461030457806324bbd049146103315780632a3654a41461035257806332cb6b0c146103725780633f879faf1461038857806349a6078d1461039d578063511b6952146103ca57806352058d8a146103ea57806354f6127f146103ff57806355f804b31461041f5780636963d4381461043f57806370a082311461045f578063715018a61461047f5780637e87632c146104945780637f23690c146104b457806386a10ddd146104c75780638d859f3e146104e75780638da5cb5b1461050357806394bf804d14610518578063979024211461052b578063a3b261f21461053e578063b13fa8b81461056b578063be9f0e6f1461058b578063d6c1407c146105ab578063db8c9663146105cb578063dda3c4b8146105eb578063dedff9c61461060b578063e2098e2b1461062b578063e5408eae1461064b578063f2fde38b14610660576101f3565b366101f357346000036101da5760405163e5099ee360e01b81526004016101d19060208082526004908201526000604082015260600190565b60405180910390fd5b6040516330fa4a2160e11b815260040160405180910390fd5b6000366060600482101561021e57828260405163e5099ee360e01b81526004016101d1929190612234565b6102288383610680565b80519350602001915050f35b34801561024057600080fd5b5061025461024f366004612263565b610776565b60405190151581526020015b60405180910390f35b34801561027557600080fd5b5061028961028436600461228d565b6107aa565b60405161026091906122ff565b3480156102a257600080fd5b506002545b604051908152602001610260565b3480156102c157600080fd5b506102d56102d03660046123ea565b6107bd565b604051610260919061244d565b3480156102ee57600080fd5b506103026102fd3660046124c6565b610882565b005b34801561031057600080fd5b5061032461031f3660046124e1565b6108f1565b60405161026091906124fa565b34801561033d57600080fd5b5060085461025490600160a01b900460ff1681565b34801561035e57600080fd5b5061025461036d366004612525565b61092a565b34801561037e57600080fd5b506102a7611af481565b34801561039457600080fd5b506102a7606481565b3480156103a957600080fd5b506103bd6103b83660046124e1565b61093f565b604051610260919061254f565b3480156103d657600080fd5b506103026103e536600461261c565b610961565b3480156103f657600080fd5b50611af46102a7565b34801561040b57600080fd5b5061028961041a3660046124e1565b6109a5565b34801561042b57600080fd5b5061030261043a366004612694565b6109b0565b34801561044b57600080fd5b506102d561045a3660046126dc565b610a55565b34801561046b57600080fd5b506102a761047a366004612750565b610b84565b34801561048b57600080fd5b50610302610ba5565b3480156104a057600080fd5b506103026104af3660046128b6565b610bb9565b6103026104c236600461297a565b610ca8565b3480156104d357600080fd5b506103026104e23660046129b6565b610cd9565b3480156104f357600080fd5b506102a7673a4965bf58a4000081565b34801561050f57600080fd5b50610324610e33565b610302610526366004612a0c565b610e42565b610302610539366004612a38565b610f7e565b34801561054a57600080fd5b5061055e610559366004612750565b61103e565b6040516102609190612a91565b34801561057757600080fd5b50610302610586366004612750565b611062565b34801561059757600080fd5b506103026105a6366004612ac9565b61108c565b3480156105b757600080fd5b506103026105c6366004612b46565b611157565b3480156105d757600080fd5b506103026105e6366004612b7f565b61116a565b3480156105f757600080fd5b50610302610606366004612750565b61122c565b34801561061757600080fd5b506102d5610626366004612be6565b61131c565b34801561063757600080fd5b50600854610324906001600160a01b031681565b34801561065757600080fd5b506102a7608e81565b34801561066c57600080fd5b5061030261067b366004612750565b6113c6565b606060006106996000356001600160e01b031916611401565b5090506001600160a01b0381166106d1576000356001600160e01b03191660405163bb370b2b60e01b81526004016101d19190612c1a565b600080826001600160a01b031634878733346040516020016106f69493929190612c2f565b60408051601f198184030181529082905261071091612c5a565b60006040518083038185875af1925050503d806000811461074d576040519150601f19603f3d011682016040523d82523d6000602084013e610752565b606091505b50915091508115610767579250610770915050565b80518060208301fd5b92915050565b60006001600160e01b03198216631d138b8360e11b148061079b575061079b8261147f565b806107705750610770826114a4565b60606107b683836114db565b9392505050565b606082516001600160401b038111156107d8576107d8612312565b60405190808252806020026020018201604052801561080b57816020015b60608152602001906001900390816107f65790505b50905060005b835181101561087b5761085684828151811061082f5761082f612c76565b602002602001015184838151811061084957610849612c76565b60200260200101516114db565b82828151811061086857610868612c76565b6020908102919091010152600101610811565b5092915050565b6008546001600160a01b031633148015906108b657506108a0610e33565b6001600160a01b0316336001600160a01b031614155b156108d3576040516282b42960e81b815260040160405180910390fd5b60088054911515600160a01b0260ff60a01b19909216919091179055565b6000818152600360205260408120546001600160a01b03168061077057604051635747cd1b60e11b8152600481018490526024016101d1565b6000610935826115b2565b6107b683836115db565b606061094a826115b2565b600082815260056020526040902061077090611618565b61096b33846115db565b61099157604051631294d2a960e01b8152600481018490523360248201526044016101d1565b61099e8585858585611625565b5050505050565b6060610770826117bb565b6008546001600160a01b031633148015906109e457506109ce610e33565b6001600160a01b0316336001600160a01b031614155b15610a01576040516282b42960e81b815260040160405180910390fd5b6040518190610a51907f1a7628600c3bac7101f53697f48df381ddc36b9015e7d7c9c5633d1252aa284390610a3d906000908590602001612c8c565b60405160208183030381529060405261185d565b5050565b6060816001600160401b03811115610a6f57610a6f612312565b604051908082528060200260200182016040528015610aa257816020015b6060815260200190600190039081610a8d5790505b50905060005b8281101561087b5760008030868685818110610ac657610ac6612c76565b9050602002810190610ad89190612cbd565b604051610ae6929190612d0a565b600060405180830381855af49150503d8060008114610b21576040519150601f19603f3d011682016040523d82523d6000602084013e610b26565b606091505b509150915081610b5c57805115610b405780518082602001fd5b60405163234eb81960e01b8152600481018490526024016101d1565b80848481518110610b6f57610b6f612c76565b60209081029190910101525050600101610aa8565b6001600160a01b0381166000908152600460205260408120610770906118a7565b610bad6118b1565b610bb760006118e3565b565b8451845181141580610bcc575083518114155b80610bd8575082518114155b80610be4575081518114155b15610c02576040516393a8311960e01b815260040160405180910390fd5b60005b81811015610c9f57610c97878281518110610c2257610c22612c76565b6020026020010151878381518110610c3c57610c3c612c76565b6020026020010151878481518110610c5657610c56612c76565b6020026020010151878581518110610c7057610c70612c76565b6020026020010151878681518110610c8a57610c8a612c76565b6020026020010151610961565b600101610c05565b50505050505050565b610cb06118b1565b3415610ccf5760405163f36ba73760e01b815260040160405180910390fd5b610a51828261185d565b6000610ce4836108f1565b90506001600160a01b0381163314610d1557808333604051632d938f5160e11b81526004016101d193929190612d1a565b6001600160a01b038416610d3c57604051639577b8b360e01b815260040160405180910390fd5b836001600160a01b0316816001600160a01b031603610d6e576040516344fed6b160e11b815260040160405180910390fd5b6000838152600560205260408120610d86908661195c565b905080610daa5784846040516314ec4d6d60e31b81526004016101d1929190612d3d565b83826001600160a01b0316866001600160a01b03167f1b1b58aa2ec0cec2228b2d37124556d41f5a1f7b12f089171f896cc23667121586604051610dee91906122ff565b60405180910390a460003385600186604051602001610e109493929190612d56565b6040516020818303038152906040529050610e2b8682611971565b505050505050565b6000546001600160a01b031690565b610e4a61199c565b600854600160a01b900460ff16610e9c5760405162461bcd60e51b8152602060048201526016602482015275135a5b9d1a5b99c81a5cc81b9bdd08195b98589b195960521b60448201526064016101d1565b6000610ea760025490565b9050611af4610eb68483612da5565b1115610ed757604051628edf1960e71b8152600481018490526024016101d1565b6064831115610efb57604051628edf1960e71b8152600481018490526024016101d1565b610f0d83673a4965bf58a40000612db8565b3414610f2f57604051635e90f77360e11b8152600481018490526024016101d1565b60005b83811015610f72576000610f4583612dcf565b9250829050610f69848260001b6000604051806020016040528060008152506119c6565b50600101610f32565b5050610a516001600755565b610f866118b1565b3415610fa55760405163f36ba73760e01b815260040160405180910390fd5b8051825114610fc757604051633bcc897960e01b815260040160405180910390fd5b8151600003610fe9576040516397da5f9560e01b815260040160405180910390fd5b60005b82518110156110395761103183828151811061100a5761100a612c76565b602002602001015183838151811061102457611024612c76565b602002602001015161185d565b600101610fec565b505050565b6001600160a01b038116600090815260046020526040902060609061077090611618565b61106a6118b1565b600880546001600160a01b0319166001600160a01b0392909216919091179055565b6110946118b1565b815183511415806110a757508051825114155b156110c5576040516317d38eff60e11b815260040160405180910390fd5b82516000036110e7576040516380c9830560e01b815260040160405180910390fd5b60005b83518110156111515761114984828151811061110857611108612c76565b602002602001015184838151811061112257611122612c76565b602002602001015184848151811061113c5761113c612c76565b6020026020010151611adc565b6001016110ea565b50505050565b61115f6118b1565b611039838383611adc565b6000611175846108f1565b90506001600160a01b03811633146111a657808433604051632d938f5160e11b81526004016101d193929190612d1a565b6001600160a01b0385166111cd57604051639577b8b360e01b815260040160405180910390fd5b846001600160a01b0316816001600160a01b0316036111ff576040516344fed6b160e11b815260040160405180910390fd5b61120c8582868686611b6c565b821561099e5760003385600085604051602001610e109493929190612d56565b6008546001600160a01b03163314801590611260575061124a610e33565b6001600160a01b0316336001600160a01b031614155b1561127d576040516282b42960e81b815260040160405180910390fd5b600061128860025490565b9050608e81106112d85760405162461bcd60e51b815260206004820152601b60248201527a1519585b481c995cd95c9d9948185b1c9958591e481b5a5b9d1959602a1b60448201526064016101d1565b60005b608e8110156110395760006112ef83612dcf565b9250829050611313848260001b6000604051806020016040528060008152506119c6565b506001016112db565b606081516001600160401b0381111561133757611337612312565b60405190808252806020026020018201604052801561136a57816020015b60608152602001906001900390816113555790505b50905060005b82518110156113c05761139b83828151811061138e5761138e612c76565b60200260200101516117bb565b8282815181106113ad576113ad612c76565b6020908102919091010152600101611370565b50919050565b6113ce6118b1565b6001600160a01b0381166113f5576040516306b620db60e21b815260040160405180910390fd5b6113fe816118e3565b50565b60008080611426696773c5a04a6d4300884b60b11b6001600160e01b03198616611bfe565b90506000611433826117bb565b905080516014141580156114475750805115155b1561146757806040516342bfe79f60e01b81526004016101d191906122ff565b61147081612de8565b60601c95600195509350505050565b60006001600160e01b0319821663a918fa6b60e01b1480610770575061077082611c52565b6000806114b76301ffc9a760e01b611401565b5090506001600160a01b0381166114d15750600092915050565b6107b68184611c87565b60606001600084846040516020016114fd929190918252602082015260400190565b604051602081830303815290604052805190602001208152602001908152602001600020805461152c90612e1f565b80601f016020809104026020016040519081016040528092919081815260200182805461155890612e1f565b80156115a55780601f1061157a576101008083540402835291602001916115a5565b820191906000526020600020905b81548152906001019060200180831161158857829003601f168201915b5050505050905092915050565b6115bb81611d0a565b6113fe57604051635747cd1b60e11b8152600481018290526024016101d1565b60006115e6826108f1565b6001600160a01b0316836001600160a01b031614806107b6575060008281526005602052604090206107b69084611d27565b606060006107b683611d3c565b836001600160a01b0316856001600160a01b03160361165757604051635d67d6c160e01b815260040160405180910390fd5b6000611662846108f1565b9050856001600160a01b0316816001600160a01b03161461169c57808487604051632d938f5160e11b81526004016101d193929190612d1a565b6001600160a01b0385166116c3576040516324ecef4d60e01b815260040160405180910390fd5b6116cc846108f1565b90506116d88685611d97565b6001600160a01b03861660009081526004602052604090206116fa9085611def565b506001600160a01b038516600090815260046020526040902061171d9085611dfb565b506000848152600360205260409081902080546001600160a01b0319166001600160a01b0388811691821790925591518692918916906000805160206130b98339815191529061177290339089908990612e53565b60405180910390a460003387878786604051602001611795959493929190612e88565b60405160208183030381529060405290506117b08782611e07565b610c9f868583611e32565b60008181526001602052604090208054606091906117d890612e1f565b80601f016020809104026020016040519081016040528092919081815260200182805461180490612e1f565b80156118515780601f1061182657610100808354040283529160200191611851565b820191906000526020600020905b81548152906001019060200180831161183457829003601f168201915b50505050509050919050565b7f098a16c9e50e3e99b3e797305c146898d294e5aec55a47e213cb3611ccf17e73820161189d57604051631b32400560e11b815260040160405180910390fd5b610a518282611f28565b6000610770825490565b336118ba610e33565b6001600160a01b031614610bb7573360405163bf1169c560e01b81526004016101d191906124fa565b6118eb610e33565b6001600160a01b0316816001600160a01b0316146113fe57600080546040516001600160a01b03808516939216917f8be0079c531659141344cd1fd0a4f28419497f9722a3daafe3b4186f6b6457e091a3600080546001600160a01b0383166001600160a01b031990911617905550565b60006107b6836001600160a01b038416611f32565b610a51827f8a1c15a8799f71b547e08e2bcb2e85257e81b0a07eee2ce6712549eef1f0097083611f7c565b6002600754036119bf57604051633ee5aeb560e01b815260040160405180910390fd5b6002600755565b6001600160a01b0384166119ed576040516324ecef4d60e01b815260040160405180910390fd5b6119f683611d0a565b15611a17576040516334c7b51160e01b8152600481018490526024016101d1565b600260008154611a2690612dcf565b909155506001600160a01b0384166000908152600460205260409020611a4c9084611dfb565b5060008381526003602052604080822080546001600160a01b0319166001600160a01b03881690811790915590518592906000805160206130b983398151915290611a9c90339088908890612e53565b60405180910390a46000336000868685604051602001611ac0959493929190612e88565b604051602081830303815290604052905061099e858483611e32565b80600160008585604051602001611afd929190918252602082015260400190565b6040516020818303038152906040528051906020012081526020019081526020016000209081611b2d9190612f0b565b5081837fa6e4251f855f750545fe414f120db91c76b88def14d120969e5bb2d3f05debbb83604051611b5f91906122ff565b60405180910390a3505050565b6000838152600560205260408120611b849087611fc9565b905080611ba85785846040516312a8c6a360e21b81526004016101d1929190612d3d565b83856001600160a01b0316876001600160a01b03167fc78cd419d6136f9f1c1c6aec1d3fae098cffaf8bc86314a8f2685e32fe574e3c8686604051611bee929190612fca565b60405180910390a4505050505050565b604080516001600160b01b0319841660208201526000602a82018190526001600160601b03198416602c83015291829101604051602081830303815290604052905080611c4a90612fe5565b949350505050565b60006001600160e01b031982166318a6a9a560e21b148061077057506301ffc9a760e01b6001600160e01b0319831614610770565b60008082604051602401611c9b9190612c1a565b60408051601f19818403018152919052602080820180516001600160e01b03166301ffc9a760e01b178152825192935060009283928392909183918a617530fa92503d91506000519050828015611cf3575060208210155b8015611cff5750600081115b979650505050505050565b6000908152600360205260409020546001600160a01b0316151590565b60006107b6836001600160a01b038416611fde565b60608160000180548060200260200160405190810160405280929190818152602001828054801561185157602002820191906000526020600020905b815481526020019060010190808311611d785750505050509050919050565b600081815260056020526040812090611daf826118a7565b90506000805b82811015610e2b57611dc8846000611ff6565b9150611de7828787600060405180602001604052806000815250611b6c565b600101611db5565b60006107b68383612002565b60006107b68383611f32565b610a51827fb23eae7e6d1564b295b4c3e3be402d9a2f0776c57bdf365903496f6fa481ab0083611f7c565b611e4383631aed5a8560e21b611c87565b15611edd57604051631aed5a8560e21b81526001600160a01b03841690636bb56a1490611e96907f0b084a55ebf70fd3c06fd755269dac2212c4d3f0f4d09079780bfa50c1b2984d908590600401613009565b6000604051808303816000875af1158015611eb5573d6000803e3d6000fd5b505050506040513d6000823e601f3d908101601f191682016040526111519190810190613022565b81611039576001600160a01b0383163b15611f0d5782604051634349776d60e01b81526004016101d191906124fa565b82604051630317313760e01b81526004016101d191906124fa565b610a5182826120f5565b6000611f3e8383611fde565b611f7457508154600181810184556000848152602080822090930184905584548482528286019093526040902091909155610770565b506000610770565b611f966001600160a01b038416631aed5a8560e21b611c87565b1561103957604051631aed5a8560e21b81526001600160a01b03841690636bb56a1490611e969085908590600401613009565b60006107b6836001600160a01b038416612002565b60009081526001919091016020526040902054151590565b60006107b6838361220a565b600081815260018301602052604081205480156120eb57600061202660018361308f565b855490915060009061203a9060019061308f565b905080821461209f57600086600001828154811061205a5761205a612c76565b906000526020600020015490508087600001848154811061207d5761207d612c76565b6000918252602080832090910192909255918252600188019052604090208390555b85548690806120b0576120b06130a2565b600190038181906000526020600020016000905590558560010160008681526020019081526020016000206000905560019350505050610770565b6000915050610770565b7f2145e1d6d074577dc71ef54c3807742b41b053a9352ae6b491331509acb9750f8201612135576040516385c169bd60e01b815260040160405180910390fd5b7fd0f59754f88971fe6bc5a6618cc9d5f1e859c58d16b22d1c7b2d3e2b246cd8aa820161217557604051630eceab6760e31b815260040160405180910390fd5b7f1fd9e056a24d14c4abc642fcc325992a946906d0dbc57dd70278aaf12842024d82016121b557604051634ef6d7fb60e01b815260040160405180910390fd5b60008281526001602052604090206121cd8282612f0b565b50817fece574603820d07bc9b91f2a932baadf4628aabcb8afba49776529c14a6104b2826040516121fe91906122ff565b60405180910390a25050565b600082600001828154811061222157612221612c76565b9060005260206000200154905092915050565b60208152816020820152818360408301376000818301604090810191909152601f909201601f19160101919050565b60006020828403121561227557600080fd5b81356001600160e01b0319811681146107b657600080fd5b600080604083850312156122a057600080fd5b50508035926020909101359150565b60005b838110156122ca5781810151838201526020016122b2565b50506000910152565b600081518084526122eb8160208601602086016122af565b601f01601f19169290920160200192915050565b6020815260006107b660208301846122d3565b634e487b7160e01b600052604160045260246000fd5b604051601f8201601f191681016001600160401b038111828210171561235057612350612312565b604052919050565b60006001600160401b0382111561237157612371612312565b5060051b60200190565b600082601f83011261238c57600080fd5b813560206123a161239c83612358565b612328565b8083825260208201915060208460051b8701019350868411156123c357600080fd5b602086015b848110156123df57803583529183019183016123c8565b509695505050505050565b600080604083850312156123fd57600080fd5b82356001600160401b038082111561241457600080fd5b6124208683870161237b565b9350602085013591508082111561243657600080fd5b506124438582860161237b565b9150509250929050565b600060208083016020845280855180835260408601915060408160051b87010192506020870160005b828110156124a457603f198886030184526124928583516122d3565b94509285019290850190600101612476565b5092979650505050505050565b803580151581146124c157600080fd5b919050565b6000602082840312156124d857600080fd5b6107b6826124b1565b6000602082840312156124f357600080fd5b5035919050565b6001600160a01b0391909116815260200190565b80356001600160a01b03811681146124c157600080fd5b6000806040838503121561253857600080fd5b6125418361250e565b946020939093013593505050565b6020808252825182820181905260009190848201906040850190845b818110156125905783516001600160a01b03168352928401929184019160010161256b565b50909695505050505050565b60006001600160401b038211156125b5576125b5612312565b50601f01601f191660200190565b60006125d161239c8461259c565b90508281528383830111156125e557600080fd5b828260208301376000602084830101529392505050565b600082601f83011261260d57600080fd5b6107b6838335602085016125c3565b600080600080600060a0868803121561263457600080fd5b61263d8661250e565b945061264b6020870161250e565b935060408601359250612660606087016124b1565b915060808601356001600160401b0381111561267b57600080fd5b612687888289016125fc565b9150509295509295909350565b6000602082840312156126a657600080fd5b81356001600160401b038111156126bc57600080fd5b8201601f810184136126cd57600080fd5b611c4a848235602084016125c3565b600080602083850312156126ef57600080fd5b82356001600160401b038082111561270657600080fd5b818501915085601f83011261271a57600080fd5b81358181111561272957600080fd5b8660208260051b850101111561273e57600080fd5b60209290920196919550909350505050565b60006020828403121561276257600080fd5b6107b68261250e565b600082601f83011261277c57600080fd5b8135602061278c61239c83612358565b8083825260208201915060208460051b8701019350868411156127ae57600080fd5b602086015b848110156123df576127c48161250e565b83529183019183016127b3565b600082601f8301126127e257600080fd5b813560206127f261239c83612358565b8083825260208201915060208460051b87010193508684111561281457600080fd5b602086015b848110156123df5761282a816124b1565b8352918301918301612819565b600082601f83011261284857600080fd5b8135602061285861239c83612358565b82815260059290921b8401810191818101908684111561287757600080fd5b8286015b848110156123df5780356001600160401b0381111561289a5760008081fd5b6128a88986838b01016125fc565b84525091830191830161287b565b600080600080600060a086880312156128ce57600080fd5b85356001600160401b03808211156128e557600080fd5b6128f189838a0161276b565b9650602088013591508082111561290757600080fd5b61291389838a0161276b565b9550604088013591508082111561292957600080fd5b61293589838a0161237b565b9450606088013591508082111561294b57600080fd5b61295789838a016127d1565b9350608088013591508082111561296d57600080fd5b5061268788828901612837565b6000806040838503121561298d57600080fd5b8235915060208301356001600160401b038111156129aa57600080fd5b612443858286016125fc565b6000806000606084860312156129cb57600080fd5b6129d48461250e565b92506020840135915060408401356001600160401b038111156129f657600080fd5b612a02868287016125fc565b9150509250925092565b60008060408385031215612a1f57600080fd5b82359150612a2f6020840161250e565b90509250929050565b60008060408385031215612a4b57600080fd5b82356001600160401b0380821115612a6257600080fd5b612a6e8683870161237b565b93506020850135915080821115612a8457600080fd5b5061244385828601612837565b6020808252825182820181905260009190848201906040850190845b8181101561259057835183529284019291840191600101612aad565b600080600060608486031215612ade57600080fd5b83356001600160401b0380821115612af557600080fd5b612b018783880161237b565b94506020860135915080821115612b1757600080fd5b612b238783880161237b565b93506040860135915080821115612b3957600080fd5b50612a0286828701612837565b600080600060608486031215612b5b57600080fd5b833592506020840135915060408401356001600160401b038111156129f657600080fd5b60008060008060808587031215612b9557600080fd5b612b9e8561250e565b935060208501359250612bb3604086016124b1565b915060608501356001600160401b03811115612bce57600080fd5b612bda878288016125fc565b91505092959194509250565b600060208284031215612bf857600080fd5b81356001600160401b03811115612c0e57600080fd5b611c4a8482850161237b565b6001600160e01b031991909116815260200190565b8385823760609290921b6001600160601b031916919092019081526014810191909152603401919050565b60008251612c6c8184602087016122af565b9190910192915050565b634e487b7160e01b600052603260045260246000fd5b6001600160c01b0319831681528151600090612caf8160088501602087016122af565b919091016008019392505050565b6000808335601e19843603018112612cd457600080fd5b8301803591506001600160401b03821115612cee57600080fd5b602001915036819003821315612d0357600080fd5b9250929050565b8183823760009101908152919050565b6001600160a01b0393841681526020810192909252909116604082015260600190565b6001600160a01b03929092168252602082015260400190565b60018060a01b03851681528360208201528215156040820152608060608201526000612d8560808301846122d3565b9695505050505050565b634e487b7160e01b600052601160045260246000fd5b8082018082111561077057610770612d8f565b808202811582820484141761077057610770612d8f565b600060018201612de157612de1612d8f565b5060010190565b805160208201516001600160601b03198082169291906014831015612e175780818460140360031b1b83161693505b505050919050565b600181811c90821680612e3357607f821691505b6020821081036113c057634e487b7160e01b600052602260045260246000fd5b6001600160a01b03841681528215156020820152606060408201819052600090612e7f908301846122d3565b95945050505050565b6001600160a01b0386811682528581166020830152841660408201526060810183905260a060808201819052600090611cff908301846122d3565b601f821115611039576000816000526020600020601f850160051c81016020861015612eec5750805b601f850160051c820191505b81811015610e2b57828155600101612ef8565b81516001600160401b03811115612f2457612f24612312565b612f3881612f328454612e1f565b84612ec3565b602080601f831160018114612f6d5760008415612f555750858301515b600019600386901b1c1916600185901b178555610e2b565b600085815260208120601f198616915b82811015612f9c57888601518255948401946001909101908401612f7d565b5085821015612fba5787850151600019600388901b60f8161c191681555b5050505050600190811b01905550565b8215158152604060208201526000611c4a60408301846122d3565b805160208083015191908110156113c05760001960209190910360031b1b16919050565b828152604060208201526000611c4a60408301846122d3565b60006020828403121561303457600080fd5b81516001600160401b0381111561304a57600080fd5b8201601f8101841361305b57600080fd5b805161306961239c8261259c565b81815285602083850101111561307e57600080fd5b612e7f8260208301602086016122af565b8181038181111561077057610770612d8f565b634e487b7160e01b600052603160045260246000fdfeb333c813a7426a7a11e2b190cad52c44119421594b47f6f32ace6d8c7207b2bfa2646970667358221220de9dc91d74baa7eb692b54de7c983edc9bebe3448fc63cf7951362e3bc764aab64736f6c63430008180033",
  "linkReferences": {},
  "deployedLinkReferences": {}
}